{
  "address": "0x6b4ec10d9cf0c28217C8B26847aF267fb26D6a1D",
  "abi": [
    {
      "inputs": [
        {
          "internalType": "address",
          "name": "inputToken_",
          "type": "address"
        },
        {
          "internalType": "address",
          "name": "outputToken_",
          "type": "address"
        },
        {
          "internalType": "address",
          "name": "market_",
          "type": "address"
        }
      ],
      "stateMutability": "nonpayable",
      "type": "constructor"
    },
    {
      "inputs": [
        {
          "internalType": "uint256",
          "name": "errorCode",
          "type": "uint256"
        }
      ],
      "name": "MangoError",
      "type": "error"
    },
    {
      "anonymous": false,
      "inputs": [
        {
          "indexed": false,
          "internalType": "uint8",
          "name": "version",
          "type": "uint8"
        }
      ],
      "name": "Initialized",
      "type": "event"
    },
    {
      "anonymous": false,
      "inputs": [
        {
          "indexed": true,
          "internalType": "address",
          "name": "previousOwner",
          "type": "address"
        },
        {
          "indexed": true,
          "internalType": "address",
          "name": "newOwner",
          "type": "address"
        }
      ],
      "name": "OwnershipTransferred",
      "type": "event"
    },
    {
      "anonymous": false,
      "inputs": [
        {
          "indexed": true,
          "internalType": "address",
          "name": "sender",
          "type": "address"
        },
        {
          "indexed": false,
          "internalType": "uint256",
          "name": "amount",
          "type": "uint256"
        }
      ],
      "name": "Receive",
      "type": "event"
    },
    {
      "inputs": [
        {
          "internalType": "address",
          "name": "inputToken_",
          "type": "address"
        },
        {
          "internalType": "address",
          "name": "outputToken_",
          "type": "address"
        },
        {
          "internalType": "uint256",
          "name": "inputAmount",
          "type": "uint256"
        },
        {
          "internalType": "uint256",
          "name": "",
          "type": "uint256"
        },
        {
          "internalType": "bytes",
          "name": "",
          "type": "bytes"
        }
      ],
      "name": "cloberMarketSwapCallback",
      "outputs": [],
      "stateMutability": "payable",
      "type": "function"
    },
    {
      "inputs": [],
      "name": "currentOrderId",
      "outputs": [
        {
          "internalType": "uint256",
          "name": "",
          "type": "uint256"
        }
      ],
      "stateMutability": "view",
      "type": "function"
    },
    {
      "inputs": [],
      "name": "hasNoOpenOrder",
      "outputs": [
        {
          "internalType": "bool",
          "name": "",
          "type": "bool"
        }
      ],
      "stateMutability": "view",
      "type": "function"
    },
    {
      "inputs": [
        {
          "internalType": "address",
          "name": "outputTokenReceiver_",
          "type": "address"
        }
      ],
      "name": "initialize",
      "outputs": [],
      "stateMutability": "nonpayable",
      "type": "function"
    },
    {
      "inputs": [],
      "name": "inputToken",
      "outputs": [
        {
          "internalType": "address",
          "name": "",
          "type": "address"
        }
      ],
      "stateMutability": "view",
      "type": "function"
    },
    {
      "inputs": [
        {
          "internalType": "uint16",
          "name": "priceIndex",
          "type": "uint16"
        }
      ],
      "name": "limitOrder",
      "outputs": [],
      "stateMutability": "nonpayable",
      "type": "function"
    },
    {
      "inputs": [],
      "name": "market",
      "outputs": [
        {
          "internalType": "address",
          "name": "",
          "type": "address"
        }
      ],
      "stateMutability": "view",
      "type": "function"
    },
    {
      "inputs": [],
      "name": "outputToken",
      "outputs": [
        {
          "internalType": "address",
          "name": "",
          "type": "address"
        }
      ],
      "stateMutability": "view",
      "type": "function"
    },
    {
      "inputs": [],
      "name": "outputTokenReceiver",
      "outputs": [
        {
          "internalType": "contract ITokenReceiver",
          "name": "",
          "type": "address"
        }
      ],
      "stateMutability": "view",
      "type": "function"
    },
    {
      "inputs": [],
      "name": "owner",
      "outputs": [
        {
          "internalType": "address",
          "name": "",
          "type": "address"
        }
      ],
      "stateMutability": "view",
      "type": "function"
    },
    {
      "inputs": [
        {
          "internalType": "uint256",
          "name": "amount",
          "type": "uint256"
        }
      ],
      "name": "receiveToken",
      "outputs": [],
      "stateMutability": "nonpayable",
      "type": "function"
    },
    {
      "inputs": [],
      "name": "receivingToken",
      "outputs": [
        {
          "internalType": "address",
          "name": "",
          "type": "address"
        }
      ],
      "stateMutability": "view",
      "type": "function"
    },
    {
      "inputs": [],
      "name": "renounceOwnership",
      "outputs": [],
      "stateMutability": "nonpayable",
      "type": "function"
    },
    {
      "inputs": [],
      "name": "setApprovals",
      "outputs": [],
      "stateMutability": "nonpayable",
      "type": "function"
    },
    {
      "inputs": [
        {
          "internalType": "contract ITokenReceiver",
          "name": "receiver",
          "type": "address"
        }
      ],
      "name": "setReceiver",
      "outputs": [],
      "stateMutability": "nonpayable",
      "type": "function"
    },
    {
      "inputs": [],
      "name": "transferOutputToken",
      "outputs": [],
      "stateMutability": "nonpayable",
      "type": "function"
    },
    {
      "inputs": [
        {
          "internalType": "address",
          "name": "newOwner",
          "type": "address"
        }
      ],
      "name": "transferOwnership",
      "outputs": [],
      "stateMutability": "nonpayable",
      "type": "function"
    },
    {
      "inputs": [],
      "name": "transferableAmount",
      "outputs": [
        {
          "internalType": "uint256",
          "name": "",
          "type": "uint256"
        }
      ],
      "stateMutability": "view",
      "type": "function"
    },
    {
      "inputs": [
        {
          "internalType": "address",
          "name": "token",
          "type": "address"
        },
        {
          "internalType": "address",
          "name": "to",
          "type": "address"
        }
      ],
      "name": "withdrawLostERC20",
      "outputs": [],
      "stateMutability": "nonpayable",
      "type": "function"
    }
  ],
  "transactionHash": "0x9194b27c6b8fff0f7fde10cf7acfe8c1858bcb58d9e02aeacf66e3cd3b3cc89c",
  "args": [
    "0x1fA03eDB1B8839a5319A7D2c1Ae6AAE492342bAD",
    "0xA8CE8aee21bC2A48a5EF670afCc9274C7bbbC035",
    "0x1FC38BA10E741F357b1c8B69DC08eA654c21Ae37"
  ],
  "numDeployments": 1,
  "solcInputHash": "9b43978420c0ff4c6bcbca9d11f7d35a",
  "bytecode": "0x610120604052600180553480156200001657600080fd5b5060405162002433380380620024338339810160408190526200003991620002f8565b620000443362000280565b6001600160a01b0380841660e052828116608052811660a0819052604080516385d1891760e01b815290516385d18917916004808201926020929091908290030181865afa1580156200009b573d6000803e3d6000fd5b505050506040513d601f19601f82011682018060405250810190620000c1919062000342565b6001600160a01b031660c0816001600160a01b031681525050600060a0516001600160a01b031663217a4b706040518163ffffffff1660e01b8152600401602060405180830381865afa1580156200011d573d6000803e3d6000fd5b505050506040513d601f19601f8201168201806040525081019062000143919062000342565b9050600060a0516001600160a01b031663c55dae636040518163ffffffff1660e01b8152600401602060405180830381865afa15801562000188573d6000803e3d6000fd5b505050506040513d601f19601f82011682018060405250810190620001ae919062000342565b9050846001600160a01b0316826001600160a01b0316148015620001e35750836001600160a01b0316816001600160a01b0316145b158015620002215750836001600160a01b0316826001600160a01b03161480156200021f5750846001600160a01b0316816001600160a01b0316145b155b156200024757604051630bc320f560e01b81526007600482015260240160405180910390fd5b60e0516001600160a01b0316826001600160a01b0316146200026b5760006200026e565b60015b15156101005250620003679350505050565b600080546001600160a01b038381166201000081810262010000600160b01b0319851617855560405193049190911692909183917f8be0079c531659141344cd1fd0a4f28419497f9722a3daafe3b4186f6b6457e091a35050565b80516001600160a01b0381168114620002f357600080fd5b919050565b6000806000606084860312156200030e57600080fd5b6200031984620002db565b92506200032960208501620002db565b91506200033960408501620002db565b90509250925092565b6000602082840312156200035557600080fd5b6200036082620002db565b9392505050565b60805160a05160c05160e05161010051611fc36200047060003960008181610e3f01528181610f1401528181610f42015261101501526000818161015b015281816101a901528181610425015281816109b301528181610d95015281816111df015261127c01526000818161073001528181611077015281816113ad015261176b015260008181610299015281816107f101528181610e0e01528181610e9f0152818161119c0152818161137e015261182c015260008181610353015281816104a8015281816105570152818161058301528181610669015281816108740152818161097801528181610aa501528181610ae001528181610c43015261121b0152611fc36000f3fe6080604052600436106101445760003560e01c806380f79020116100c0578063c1d8d1d911610074578063c76e5e6d11610059578063c76e5e6d14610395578063f2fde38b146103b5578063fd235fda146103d557600080fd5b8063c1d8d1d914610341578063c4d66de81461037557600080fd5b80638757b15b116100a55780638757b15b146102f25780638da5cb5b14610307578063925931fc1461032b57600080fd5b806380f79020146102bd5780638284511b146102d257600080fd5b80635bca4a5011610117578063715018a6116100fc578063715018a614610255578063718da7ee1461026a57806380f556051461028a57600080fd5b80635bca4a5014610212578063620e1c5a1461023257600080fd5b806301b60ef214610149578063038ad0f41461019a57806337df00c9146101cd578063387714df146101ef575b600080fd5b34801561015557600080fd5b5061017d7f000000000000000000000000000000000000000000000000000000000000000081565b6040516001600160a01b0390911681526020015b60405180910390f35b3480156101a657600080fd5b507f000000000000000000000000000000000000000000000000000000000000000061017d565b3480156101d957600080fd5b506101ed6101e8366004611b2a565b6103e8565b005b3480156101fb57600080fd5b506003546040516000199091148152602001610191565b34801561021e57600080fd5b5060025461017d906001600160a01b031681565b34801561023e57600080fd5b50610247610489565b604051908152602001610191565b34801561026157600080fd5b506101ed61052a565b34801561027657600080fd5b506101ed610285366004611b58565b61053e565b34801561029657600080fd5b507f000000000000000000000000000000000000000000000000000000000000000061017d565b3480156102c957600080fd5b506101ed610695565b3480156102de57600080fd5b506101ed6102ed366004611b7c565b61096e565b3480156102fe57600080fd5b506101ed610a94565b34801561031357600080fd5b506000546201000090046001600160a01b031661017d565b34801561033757600080fd5b5061024760035481565b34801561034d57600080fd5b5061017d7f000000000000000000000000000000000000000000000000000000000000000081565b34801561038157600080fd5b506101ed610390366004611b58565b610b0b565b3480156103a157600080fd5b506101ed6103b0366004611bc5565b610d37565b3480156103c157600080fd5b506101ed6103d0366004611b58565b611104565b6101ed6103e3366004611be2565b611191565b60015460011461041357604051630bc320f560e01b8152600260048201526024015b60405180910390fd5b600260015561044d6001600160a01b037f0000000000000000000000000000000000000000000000000000000000000000163330846112ab565b60405181815233907fd6717f327e0cb88b4a97a7f67a453e9258252c34937ccbdd86de7cb840e7def39060200160405180910390a25060018055565b6000610493611362565b6040516370a0823160e01b81523060048201527f00000000000000000000000000000000000000000000000000000000000000006001600160a01b0316906370a0823190602401602060405180830381865afa1580156104f7573d6000803e3d6000fd5b505050506040513d601f19601f8201168201806040525081019061051b9190611c8c565b6105259190611ca5565b905090565b6105326114a2565b61053c6000611503565b565b6105466114a2565b600254610581906001600160a01b037f0000000000000000000000000000000000000000000000000000000000000000811691166000611574565b7f00000000000000000000000000000000000000000000000000000000000000006001600160a01b0316816001600160a01b031663038ad0f46040518163ffffffff1660e01b8152600401602060405180830381865afa1580156105e9573d6000803e3d6000fd5b505050506040513d601f19601f8201168201806040525081019061060d9190611ccc565b6001600160a01b03161461063757604051630bc320f560e01b81526007600482015260240161040a565b6002805473ffffffffffffffffffffffffffffffffffffffff19166001600160a01b03838116918217909255610692917f00000000000000000000000000000000000000000000000000000000000000001690600019611574565b50565b6001546001146106bb57604051630bc320f560e01b81526002600482015260240161040a565b600260015560006106ca611362565b111561085c57604080516001808252818301909252600091816020015b60408051606081018252600080825260208083018290529282015282526000199092019101816106e7575050600354604051636e10637d60e11b815260048101919091529091507f00000000000000000000000000000000000000000000000000000000000000006001600160a01b03169063dc20c6fa90602401606060405180830381865afa15801561077f573d6000803e3d6000fd5b505050506040513d601f19601f820116820180604052508101906107a39190611cfe565b816000815181106107b6576107b6611d75565b60209081029190910101526040517f75375e960000000000000000000000000000000000000000000000000000000081526001600160a01b037f000000000000000000000000000000000000000000000000000000000000000016906375375e96906108289030908590600401611d8b565b600060405180830381600087803b15801561084257600080fd5b505af1158015610856573d6000803e3d6000fd5b50505050505b6040516370a0823160e01b81523060048201526000907f00000000000000000000000000000000000000000000000000000000000000006001600160a01b0316906370a0823190602401602060405180830381865afa1580156108c3573d6000803e3d6000fd5b505050506040513d601f19601f820116820180604052508101906108e79190611c8c565b90508015610967576002546040517f37df00c9000000000000000000000000000000000000000000000000000000008152600481018390526001600160a01b03909116906337df00c990602401600060405180830381600087803b15801561094e57600080fd5b505af1158015610962573d6000803e3d6000fd5b505050505b5060018055565b6109766114a2565b7f00000000000000000000000000000000000000000000000000000000000000006001600160a01b0316826001600160a01b031614806109e757507f00000000000000000000000000000000000000000000000000000000000000006001600160a01b0316826001600160a01b0316145b15610a0857604051630bc320f560e01b81526007600482015260240161040a565b6040516370a0823160e01b81523060048201526000906001600160a01b038416906370a0823190602401602060405180830381865afa158015610a4f573d6000803e3d6000fd5b505050506040513d601f19601f82011682018060405250810190610a739190611c8c565b90508015610a8f57610a8f6001600160a01b03841683836116c2565b505050565b600254610acf906001600160a01b037f0000000000000000000000000000000000000000000000000000000000000000811691166000611574565b60025461053c906001600160a01b037f000000000000000000000000000000000000000000000000000000000000000081169116600019611574565b600054610100900460ff1615808015610b2b5750600054600160ff909116105b80610b455750303b158015610b45575060005460ff166001145b610bb75760405162461bcd60e51b815260206004820152602e60248201527f496e697469616c697a61626c653a20636f6e747261637420697320616c72656160448201527f647920696e697469616c697a6564000000000000000000000000000000000000606482015260840161040a565b6000805460ff191660011790558015610bda576000805461ff0019166101001790555b610be360018055565b610bec33611503565b6002805473ffffffffffffffffffffffffffffffffffffffff19166001600160a01b03848116918217909255604080517f038ad0f400000000000000000000000000000000000000000000000000000000815290517f00000000000000000000000000000000000000000000000000000000000000009093169263038ad0f4916004808201926020929091908290030181865afa158015610c91573d6000803e3d6000fd5b505050506040513d601f19601f82011682018060405250810190610cb59190611ccc565b6001600160a01b031614610cdf57604051630bc320f560e01b81526007600482015260240161040a565b600019600355610ced610a94565b8015610d33576000805461ff0019169055604051600181527f7f26b83ff96e1f2b6a682f133852f6798a09c465da95921460cefb38474024989060200160405180910390a15b5050565b600154600114610d5d57604051630bc320f560e01b81526002600482015260240161040a565b6002600155610d6a6114a2565b60035460001914610d7d57610d7d61170b565b6040516370a0823160e01b81523060048201526000907f00000000000000000000000000000000000000000000000000000000000000006001600160a01b0316906370a0823190602401602060405180830381865afa158015610de4573d6000803e3d6000fd5b505050506040513d601f19601f82011682018060405250810190610e089190611c8c565b905060007f00000000000000000000000000000000000000000000000000000000000000006001600160a01b031663bfc18aef30857f0000000000000000000000000000000000000000000000000000000000000000610e69576000610f12565b6040517f441055f500000000000000000000000000000000000000000000000000000000815260048101879052600060248201527f00000000000000000000000000000000000000000000000000000000000000006001600160a01b03169063441055f590604401602060405180830381865afa158015610eee573d6000803e3d6000fd5b505050506040513d601f19601f82011682018060405250810190610f129190611e1d565b7f0000000000000000000000000000000000000000000000000000000000000000610f3d5786610f40565b60005b7f0000000000000000000000000000000000000000000000000000000000000000610f6c576000610f6f565b60015b604080516000815260208101918290527fffffffff0000000000000000000000000000000000000000000000000000000060e089901b16909152610fbb95949392919060248101611e88565b6020604051808303816000875af1158015610fda573d6000803e3d6000fd5b505050506040513d601f19601f82011682018060405250810190610ffe9190611c8c565b905060001981146110f457604080516060810182527f00000000000000000000000000000000000000000000000000000000000000001515815261ffff8516602082015280820183905290517fc776d5830000000000000000000000000000000000000000000000000000000081526001600160a01b037f0000000000000000000000000000000000000000000000000000000000000000169163c776d583916110ab9190600401611edf565b602060405180830381865afa1580156110c8573d6000803e3d6000fd5b505050506040513d601f19601f820116820180604052508101906110ec9190611c8c565b6003556110fb565b6000196003555b50506001805550565b61110c6114a2565b6001600160a01b0381166111885760405162461bcd60e51b815260206004820152602660248201527f4f776e61626c653a206e6577206f776e657220697320746865207a65726f206160448201527f6464726573730000000000000000000000000000000000000000000000000000606482015260840161040a565b61069281611503565b336001600160a01b037f000000000000000000000000000000000000000000000000000000000000000016146111dd57604051630bc320f560e01b81526000600482015260240161040a565b7f00000000000000000000000000000000000000000000000000000000000000006001600160a01b0316866001600160a01b031614801561124f57507f00000000000000000000000000000000000000000000000000000000000000006001600160a01b0316856001600160a01b0316145b61126f57604051630bc320f560e01b81526007600482015260240161040a565b6112a36001600160a01b037f00000000000000000000000000000000000000000000000000000000000000001633866116c2565b505050505050565b6040516001600160a01b038085166024830152831660448201526064810182905261135c9085907f23b872dd00000000000000000000000000000000000000000000000000000000906084015b60408051601f198184030181529190526020810180517bffffffffffffffffffffffffffffffffffffffffffffffffffffffff167fffffffff000000000000000000000000000000000000000000000000000000009093169290921790915261189e565b50505050565b60006113716003546000191490565b1561137c5750600090565b7f00000000000000000000000000000000000000000000000000000000000000006001600160a01b0316635fec37797f00000000000000000000000000000000000000000000000000000000000000006001600160a01b031663dc20c6fa6003546040518263ffffffff1660e01b81526004016113fb91815260200190565b606060405180830381865afa158015611418573d6000803e3d6000fd5b505050506040513d601f19601f8201168201806040525081019061143c9190611cfe565b6040518263ffffffff1660e01b81526004016114589190611edf565b608060405180830381865afa158015611475573d6000803e3d6000fd5b505050506040513d601f19601f820116820180604052508101906114999190611f06565b50909392505050565b6000546001600160a01b036201000090910416331461053c5760405162461bcd60e51b815260206004820181905260248201527f4f776e61626c653a2063616c6c6572206973206e6f7420746865206f776e6572604482015260640161040a565b600080546001600160a01b03838116620100008181027fffffffffffffffffffff0000000000000000000000000000000000000000ffff851617855560405193049190911692909183917f8be0079c531659141344cd1fd0a4f28419497f9722a3daafe3b4186f6b6457e091a35050565b80158061160757506040517fdd62ed3e0000000000000000000000000000000000000000000000000000000081523060048201526001600160a01b03838116602483015284169063dd62ed3e90604401602060405180830381865afa1580156115e1573d6000803e3d6000fd5b505050506040513d601f19601f820116820180604052508101906116059190611c8c565b155b6116795760405162461bcd60e51b815260206004820152603660248201527f5361666545524332303a20617070726f76652066726f6d206e6f6e2d7a65726f60448201527f20746f206e6f6e2d7a65726f20616c6c6f77616e636500000000000000000000606482015260840161040a565b6040516001600160a01b038316602482015260448101829052610a8f9084907f095ea7b300000000000000000000000000000000000000000000000000000000906064016112f8565b6040516001600160a01b038316602482015260448101829052610a8f9084907fa9059cbb00000000000000000000000000000000000000000000000000000000906064016112f8565b604080516001808252818301909252600091816020015b6040805160608101825260008082526020808301829052928201528252600019909201910181611722575050600354604051636e10637d60e11b815260048101919091529091507f00000000000000000000000000000000000000000000000000000000000000006001600160a01b03169063dc20c6fa90602401606060405180830381865afa1580156117ba573d6000803e3d6000fd5b505050506040513d601f19601f820116820180604052508101906117de9190611cfe565b816000815181106117f1576117f1611d75565b60209081029190910101526040517fdfdc93880000000000000000000000000000000000000000000000000000000081526001600160a01b037f0000000000000000000000000000000000000000000000000000000000000000169063dfdc9388906118639030908590600401611d8b565b600060405180830381600087803b15801561187d57600080fd5b505af1158015611891573d6000803e3d6000fd5b5050600019600355505050565b60006118f3826040518060400160405280602081526020017f5361666545524332303a206c6f772d6c6576656c2063616c6c206661696c6564815250856001600160a01b03166119839092919063ffffffff16565b805190915015610a8f57808060200190518101906119119190611f43565b610a8f5760405162461bcd60e51b815260206004820152602a60248201527f5361666545524332303a204552433230206f7065726174696f6e20646964206e60448201527f6f74207375636365656400000000000000000000000000000000000000000000606482015260840161040a565b6060611992848460008561199a565b949350505050565b606082471015611a125760405162461bcd60e51b815260206004820152602660248201527f416464726573733a20696e73756666696369656e742062616c616e636520666f60448201527f722063616c6c0000000000000000000000000000000000000000000000000000606482015260840161040a565b600080866001600160a01b03168587604051611a2e9190611f5e565b60006040518083038185875af1925050503d8060008114611a6b576040519150601f19603f3d011682016040523d82523d6000602084013e611a70565b606091505b5091509150611a8187838387611a8c565b979650505050505050565b60608315611afb578251600003611af4576001600160a01b0385163b611af45760405162461bcd60e51b815260206004820152601d60248201527f416464726573733a2063616c6c20746f206e6f6e2d636f6e7472616374000000604482015260640161040a565b5081611992565b6119928383815115611b105781518083602001fd5b8060405162461bcd60e51b815260040161040a9190611f7a565b600060208284031215611b3c57600080fd5b5035919050565b6001600160a01b038116811461069257600080fd5b600060208284031215611b6a57600080fd5b8135611b7581611b43565b9392505050565b60008060408385031215611b8f57600080fd5b8235611b9a81611b43565b91506020830135611baa81611b43565b809150509250929050565b61ffff8116811461069257600080fd5b600060208284031215611bd757600080fd5b8135611b7581611bb5565b60008060008060008060a08789031215611bfb57600080fd5b8635611c0681611b43565b95506020870135611c1681611b43565b94506040870135935060608701359250608087013567ffffffffffffffff80821115611c4157600080fd5b818901915089601f830112611c5557600080fd5b813581811115611c6457600080fd5b8a6020828501011115611c7657600080fd5b6020830194508093505050509295509295509295565b600060208284031215611c9e57600080fd5b5051919050565b80820180821115611cc657634e487b7160e01b600052601160045260246000fd5b92915050565b600060208284031215611cde57600080fd5b8151611b7581611b43565b80518015158114611cf957600080fd5b919050565b600060608284031215611d1057600080fd5b6040516060810181811067ffffffffffffffff82111715611d4157634e487b7160e01b600052604160045260246000fd5b604052611d4d83611ce9565b81526020830151611d5d81611bb5565b60208201526040928301519281019290925250919050565b634e487b7160e01b600052603260045260246000fd5b6000604082016001600160a01b0385168352602060408185015281855180845260609350838601915082870160005b82811015611df757611de784835180511515825260208082015161ffff1690830152604090810151910152565b9285019290840190600101611dba565b509198975050505050505050565b805167ffffffffffffffff81168114611cf957600080fd5b600060208284031215611e2f57600080fd5b611b7582611e05565b60005b83811015611e53578181015183820152602001611e3b565b50506000910152565b60008151808452611e74816020860160208601611e38565b601f01601f19169290920160200192915050565b6001600160a01b038716815261ffff8616602082015267ffffffffffffffff8516604082015283606082015260ff8316608082015260c060a08201526000611ed360c0830184611e5c565b98975050505050505050565b81511515815260208083015161ffff16908201526040808301519082015260608101611cc6565b60008060008060808587031215611f1c57600080fd5b611f2585611e05565b60208601516040870151606090970151919890975090945092505050565b600060208284031215611f5557600080fd5b611b7582611ce9565b60008251611f70818460208701611e38565b9190910192915050565b602081526000611b756020830184611e5c56fea26469706673582212203cf2176b404ff1932b39f2f474a6a93516bb5353ea1d3ea74af8ae700b3eb2f964736f6c63430008110033",
  "devdoc": {
    "kind": "dev",
    "methods": {
      "owner()": {
        "details": "Returns the address of the current owner."
      },
      "receiveToken(uint256)": {
        "params": {
          "amount": "The amount of tokens to be received."
        }
      },
      "receivingToken()": {
        "returns": {
          "_0": "The address of the receivable token."
        }
      },
      "renounceOwnership()": {
        "details": "Leaves the contract without owner. It will not be possible to call `onlyOwner` functions anymore. Can only be called by the current owner. NOTE: Renouncing ownership will leave the contract without an owner, thereby removing any functionality that is only available to the owner."
      },
      "transferOwnership(address)": {
        "details": "Transfers ownership of the contract to a new account (`newOwner`). Can only be called by the current owner."
      }
    },
    "version": 1
  },
  "userdoc": {
    "events": {
      "Receive(address,uint256)": {
        "notice": "Emitted when tokens are received."
      }
    },
    "kind": "user",
    "methods": {
      "receiveToken(uint256)": {
        "notice": "Allows the contract to receive tokens."
      },
      "receivingToken()": {
        "notice": "Returns the address of the receivable token."
      }
    },
    "version": 1
  },
  "storageLayout": {
    "storage": [
      {
        "astId": 119,
        "contract": "contracts/MangoCloberExchanger.sol:MangoCloberExchanger",
        "label": "_initialized",
        "offset": 0,
        "slot": "0",
        "type": "t_uint8"
      },
      {
        "astId": 122,
        "contract": "contracts/MangoCloberExchanger.sol:MangoCloberExchanger",
        "label": "_initializing",
        "offset": 1,
        "slot": "0",
        "type": "t_bool"
      },
      {
        "astId": 7,
        "contract": "contracts/MangoCloberExchanger.sol:MangoCloberExchanger",
        "label": "_owner",
        "offset": 2,
        "slot": "0",
        "type": "t_address"
      },
      {
        "astId": 6694,
        "contract": "contracts/MangoCloberExchanger.sol:MangoCloberExchanger",
        "label": "_locked",
        "offset": 0,
        "slot": "1",
        "type": "t_uint256"
      },
      {
        "astId": 3522,
        "contract": "contracts/MangoCloberExchanger.sol:MangoCloberExchanger",
        "label": "outputTokenReceiver",
        "offset": 0,
        "slot": "2",
        "type": "t_contract(ITokenReceiver)6597"
      },
      {
        "astId": 3525,
        "contract": "contracts/MangoCloberExchanger.sol:MangoCloberExchanger",
        "label": "currentOrderId",
        "offset": 0,
        "slot": "3",
        "type": "t_uint256"
      }
    ],
    "types": {
      "t_address": {
        "encoding": "inplace",
        "label": "address",
        "numberOfBytes": "20"
      },
      "t_bool": {
        "encoding": "inplace",
        "label": "bool",
        "numberOfBytes": "1"
      },
      "t_contract(ITokenReceiver)6597": {
        "encoding": "inplace",
        "label": "contract ITokenReceiver",
        "numberOfBytes": "20"
      },
      "t_uint256": {
        "encoding": "inplace",
        "label": "uint256",
        "numberOfBytes": "32"
      },
      "t_uint8": {
        "encoding": "inplace",
        "label": "uint8",
        "numberOfBytes": "1"
      }
    }
  }
}