{
  "address": "0x5FC39060FA7649da9c5fEbd02b4c3B36e900c13B",
  "abi": [
    {
      "inputs": [
        {
          "internalType": "address",
          "name": "treasury_",
          "type": "address"
        },
        {
          "internalType": "address",
          "name": "burnAddress_",
          "type": "address"
        },
        {
          "internalType": "address",
          "name": "underlyingToken_",
          "type": "address"
        },
        {
          "internalType": "uint256",
          "name": "cancelFee_",
          "type": "uint256"
        },
        {
          "internalType": "address",
          "name": "market_",
          "type": "address"
        },
        {
          "internalType": "uint256",
          "name": "releaseRate_",
          "type": "uint256"
        },
        {
          "internalType": "uint256",
          "name": "maxReleaseAmount_",
          "type": "uint256"
        },
        {
          "internalType": "uint16",
          "name": "initialBondPriceIndex_",
          "type": "uint16"
        }
      ],
      "stateMutability": "nonpayable",
      "type": "constructor"
    },
    {
      "inputs": [
        {
          "internalType": "uint256",
          "name": "errorCode",
          "type": "uint256"
        }
      ],
      "name": "MangoError",
      "type": "error"
    },
    {
      "anonymous": false,
      "inputs": [
        {
          "indexed": false,
          "internalType": "uint8",
          "name": "version",
          "type": "uint8"
        }
      ],
      "name": "Initialized",
      "type": "event"
    },
    {
      "anonymous": false,
      "inputs": [
        {
          "indexed": true,
          "internalType": "address",
          "name": "previousOwner",
          "type": "address"
        },
        {
          "indexed": true,
          "internalType": "address",
          "name": "newOwner",
          "type": "address"
        }
      ],
      "name": "OwnershipTransferred",
      "type": "event"
    },
    {
      "anonymous": false,
      "inputs": [
        {
          "indexed": true,
          "internalType": "address",
          "name": "payer",
          "type": "address"
        },
        {
          "indexed": true,
          "internalType": "address",
          "name": "to",
          "type": "address"
        },
        {
          "indexed": true,
          "internalType": "uint256",
          "name": "orderId",
          "type": "uint256"
        },
        {
          "indexed": false,
          "internalType": "uint256",
          "name": "spentAmount",
          "type": "uint256"
        },
        {
          "indexed": false,
          "internalType": "uint8",
          "name": "bonus",
          "type": "uint8"
        },
        {
          "indexed": false,
          "internalType": "uint256",
          "name": "bondedAmount",
          "type": "uint256"
        }
      ],
      "name": "PurchaseBond",
      "type": "event"
    },
    {
      "inputs": [],
      "name": "availableAmount",
      "outputs": [
        {
          "internalType": "uint256",
          "name": "",
          "type": "uint256"
        }
      ],
      "stateMutability": "view",
      "type": "function"
    },
    {
      "inputs": [
        {
          "internalType": "uint256",
          "name": "orderId",
          "type": "uint256"
        }
      ],
      "name": "bondInfo",
      "outputs": [
        {
          "components": [
            {
              "internalType": "uint256",
              "name": "orderId",
              "type": "uint256"
            },
            {
              "internalType": "address",
              "name": "owner",
              "type": "address"
            },
            {
              "internalType": "uint8",
              "name": "bonus",
              "type": "uint8"
            },
            {
              "internalType": "bool",
              "name": "isValid",
              "type": "bool"
            },
            {
              "internalType": "uint256",
              "name": "spentAmount",
              "type": "uint256"
            },
            {
              "internalType": "uint256",
              "name": "bondedAmount",
              "type": "uint256"
            },
            {
              "internalType": "uint256",
              "name": "claimedAmount",
              "type": "uint256"
            },
            {
              "internalType": "uint256",
              "name": "canceledAmount",
              "type": "uint256"
            }
          ],
          "internalType": "struct IBondPool.BondInfo",
          "name": "",
          "type": "tuple"
        }
      ],
      "stateMutability": "view",
      "type": "function"
    },
    {
      "inputs": [
        {
          "internalType": "uint256[]",
          "name": "orderIds",
          "type": "uint256[]"
        }
      ],
      "name": "bondInfos",
      "outputs": [
        {
          "components": [
            {
              "internalType": "uint256",
              "name": "orderId",
              "type": "uint256"
            },
            {
              "internalType": "address",
              "name": "owner",
              "type": "address"
            },
            {
              "internalType": "uint8",
              "name": "bonus",
              "type": "uint8"
            },
            {
              "internalType": "bool",
              "name": "isValid",
              "type": "bool"
            },
            {
              "internalType": "uint256",
              "name": "spentAmount",
              "type": "uint256"
            },
            {
              "internalType": "uint256",
              "name": "bondedAmount",
              "type": "uint256"
            },
            {
              "internalType": "uint256",
              "name": "claimedAmount",
              "type": "uint256"
            },
            {
              "internalType": "uint256",
              "name": "canceledAmount",
              "type": "uint256"
            }
          ],
          "internalType": "struct IBondPool.BondInfo[]",
          "name": "infos",
          "type": "tuple[]"
        }
      ],
      "stateMutability": "view",
      "type": "function"
    },
    {
      "inputs": [
        {
          "internalType": "uint256[]",
          "name": "orderIds",
          "type": "uint256[]"
        }
      ],
      "name": "breakBonds",
      "outputs": [],
      "stateMutability": "nonpayable",
      "type": "function"
    },
    {
      "inputs": [],
      "name": "burnAddress",
      "outputs": [
        {
          "internalType": "address",
          "name": "",
          "type": "address"
        }
      ],
      "stateMutability": "view",
      "type": "function"
    },
    {
      "inputs": [],
      "name": "cancelFee",
      "outputs": [
        {
          "internalType": "uint256",
          "name": "",
          "type": "uint256"
        }
      ],
      "stateMutability": "view",
      "type": "function"
    },
    {
      "inputs": [
        {
          "internalType": "uint8",
          "name": "min",
          "type": "uint8"
        },
        {
          "internalType": "uint8",
          "name": "max",
          "type": "uint8"
        }
      ],
      "name": "changeAvailableBonusRange",
      "outputs": [],
      "stateMutability": "nonpayable",
      "type": "function"
    },
    {
      "inputs": [
        {
          "internalType": "uint16",
          "name": "newSampleSize",
          "type": "uint16"
        }
      ],
      "name": "changePriceSampleSize",
      "outputs": [],
      "stateMutability": "nonpayable",
      "type": "function"
    },
    {
      "inputs": [
        {
          "internalType": "uint256[]",
          "name": "orderIds",
          "type": "uint256[]"
        }
      ],
      "name": "claim",
      "outputs": [],
      "stateMutability": "nonpayable",
      "type": "function"
    },
    {
      "inputs": [
        {
          "internalType": "uint256",
          "name": "orderId",
          "type": "uint256"
        }
      ],
      "name": "claimable",
      "outputs": [
        {
          "internalType": "uint256",
          "name": "claimableAmount",
          "type": "uint256"
        }
      ],
      "stateMutability": "view",
      "type": "function"
    },
    {
      "inputs": [
        {
          "internalType": "address",
          "name": "inputToken",
          "type": "address"
        },
        {
          "internalType": "address",
          "name": "outputToken",
          "type": "address"
        },
        {
          "internalType": "uint256",
          "name": "inputAmount",
          "type": "uint256"
        },
        {
          "internalType": "uint256",
          "name": "",
          "type": "uint256"
        },
        {
          "internalType": "bytes",
          "name": "",
          "type": "bytes"
        }
      ],
      "name": "cloberMarketSwapCallback",
      "outputs": [],
      "stateMutability": "payable",
      "type": "function"
    },
    {
      "inputs": [
        {
          "internalType": "uint256",
          "name": "spentAmount",
          "type": "uint256"
        },
        {
          "internalType": "uint8",
          "name": "bonus",
          "type": "uint8"
        }
      ],
      "name": "expectedBondAmount",
      "outputs": [
        {
          "internalType": "uint256",
          "name": "amount",
          "type": "uint256"
        }
      ],
      "stateMutability": "view",
      "type": "function"
    },
    {
      "inputs": [],
      "name": "getBasisPrice",
      "outputs": [
        {
          "internalType": "uint256",
          "name": "price",
          "type": "uint256"
        }
      ],
      "stateMutability": "view",
      "type": "function"
    },
    {
      "inputs": [],
      "name": "getBasisPriceIndex",
      "outputs": [
        {
          "internalType": "uint16",
          "name": "priceIndex",
          "type": "uint16"
        }
      ],
      "stateMutability": "view",
      "type": "function"
    },
    {
      "inputs": [],
      "name": "initialBondPriceIndex",
      "outputs": [
        {
          "internalType": "uint16",
          "name": "",
          "type": "uint16"
        }
      ],
      "stateMutability": "view",
      "type": "function"
    },
    {
      "inputs": [
        {
          "internalType": "uint8",
          "name": "minBonus_",
          "type": "uint8"
        },
        {
          "internalType": "uint8",
          "name": "maxBonus_",
          "type": "uint8"
        },
        {
          "internalType": "uint64",
          "name": "startAt_",
          "type": "uint64"
        },
        {
          "internalType": "uint16",
          "name": "sampleSize_",
          "type": "uint16"
        }
      ],
      "name": "initialize",
      "outputs": [],
      "stateMutability": "nonpayable",
      "type": "function"
    },
    {
      "inputs": [],
      "name": "lastRecordedReleasedAmount",
      "outputs": [
        {
          "internalType": "uint256",
          "name": "",
          "type": "uint256"
        }
      ],
      "stateMutability": "view",
      "type": "function"
    },
    {
      "inputs": [],
      "name": "lastReleasedAt",
      "outputs": [
        {
          "internalType": "uint64",
          "name": "",
          "type": "uint64"
        }
      ],
      "stateMutability": "view",
      "type": "function"
    },
    {
      "inputs": [],
      "name": "market",
      "outputs": [
        {
          "internalType": "address",
          "name": "",
          "type": "address"
        }
      ],
      "stateMutability": "view",
      "type": "function"
    },
    {
      "inputs": [],
      "name": "maxBonus",
      "outputs": [
        {
          "internalType": "uint8",
          "name": "",
          "type": "uint8"
        }
      ],
      "stateMutability": "view",
      "type": "function"
    },
    {
      "inputs": [],
      "name": "maxReleaseAmount",
      "outputs": [
        {
          "internalType": "uint256",
          "name": "",
          "type": "uint256"
        }
      ],
      "stateMutability": "view",
      "type": "function"
    },
    {
      "inputs": [],
      "name": "minBonus",
      "outputs": [
        {
          "internalType": "uint8",
          "name": "",
          "type": "uint8"
        }
      ],
      "stateMutability": "view",
      "type": "function"
    },
    {
      "inputs": [],
      "name": "owner",
      "outputs": [
        {
          "internalType": "address",
          "name": "",
          "type": "address"
        }
      ],
      "stateMutability": "view",
      "type": "function"
    },
    {
      "inputs": [
        {
          "internalType": "uint256",
          "name": "orderId",
          "type": "uint256"
        }
      ],
      "name": "ownerOf",
      "outputs": [
        {
          "internalType": "address",
          "name": "",
          "type": "address"
        }
      ],
      "stateMutability": "view",
      "type": "function"
    },
    {
      "inputs": [
        {
          "internalType": "uint256[]",
          "name": "orderIds",
          "type": "uint256[]"
        }
      ],
      "name": "ownersOf",
      "outputs": [
        {
          "components": [
            {
              "internalType": "address",
              "name": "owner",
              "type": "address"
            },
            {
              "internalType": "uint256",
              "name": "orderId",
              "type": "uint256"
            }
          ],
          "internalType": "struct IBondPool.BondOwner[]",
          "name": "owners",
          "type": "tuple[]"
        }
      ],
      "stateMutability": "view",
      "type": "function"
    },
    {
      "inputs": [],
      "name": "pause",
      "outputs": [],
      "stateMutability": "nonpayable",
      "type": "function"
    },
    {
      "inputs": [],
      "name": "paused",
      "outputs": [
        {
          "internalType": "bool",
          "name": "",
          "type": "bool"
        }
      ],
      "stateMutability": "view",
      "type": "function"
    },
    {
      "inputs": [
        {
          "internalType": "uint256",
          "name": "spentAmount",
          "type": "uint256"
        },
        {
          "internalType": "uint8",
          "name": "bonus",
          "type": "uint8"
        },
        {
          "internalType": "address",
          "name": "to",
          "type": "address"
        },
        {
          "internalType": "uint16",
          "name": "limitPriceIndex",
          "type": "uint16"
        }
      ],
      "name": "purchaseBond",
      "outputs": [
        {
          "internalType": "uint256",
          "name": "orderId",
          "type": "uint256"
        }
      ],
      "stateMutability": "nonpayable",
      "type": "function"
    },
    {
      "inputs": [],
      "name": "quoteToken",
      "outputs": [
        {
          "internalType": "address",
          "name": "",
          "type": "address"
        }
      ],
      "stateMutability": "view",
      "type": "function"
    },
    {
      "inputs": [],
      "name": "releaseRate",
      "outputs": [
        {
          "internalType": "uint256",
          "name": "",
          "type": "uint256"
        }
      ],
      "stateMutability": "view",
      "type": "function"
    },
    {
      "inputs": [],
      "name": "releasedAmount",
      "outputs": [
        {
          "internalType": "uint256",
          "name": "newReleasedAmount",
          "type": "uint256"
        }
      ],
      "stateMutability": "view",
      "type": "function"
    },
    {
      "inputs": [],
      "name": "renounceOwnership",
      "outputs": [],
      "stateMutability": "nonpayable",
      "type": "function"
    },
    {
      "inputs": [],
      "name": "sampleSize",
      "outputs": [
        {
          "internalType": "uint16",
          "name": "",
          "type": "uint16"
        }
      ],
      "stateMutability": "view",
      "type": "function"
    },
    {
      "inputs": [],
      "name": "setApprovals",
      "outputs": [],
      "stateMutability": "nonpayable",
      "type": "function"
    },
    {
      "inputs": [],
      "name": "soldAmount",
      "outputs": [
        {
          "internalType": "uint256",
          "name": "",
          "type": "uint256"
        }
      ],
      "stateMutability": "view",
      "type": "function"
    },
    {
      "inputs": [
        {
          "internalType": "address",
          "name": "newOwner",
          "type": "address"
        }
      ],
      "name": "transferOwnership",
      "outputs": [],
      "stateMutability": "nonpayable",
      "type": "function"
    },
    {
      "inputs": [],
      "name": "treasury",
      "outputs": [
        {
          "internalType": "address",
          "name": "",
          "type": "address"
        }
      ],
      "stateMutability": "view",
      "type": "function"
    },
    {
      "inputs": [
        {
          "internalType": "uint256",
          "name": "orderId",
          "type": "uint256"
        }
      ],
      "name": "unaccountedClaimedAmount",
      "outputs": [
        {
          "internalType": "uint256",
          "name": "",
          "type": "uint256"
        }
      ],
      "stateMutability": "view",
      "type": "function"
    },
    {
      "inputs": [],
      "name": "underlyingToken",
      "outputs": [
        {
          "internalType": "address",
          "name": "",
          "type": "address"
        }
      ],
      "stateMutability": "view",
      "type": "function"
    },
    {
      "inputs": [],
      "name": "unpause",
      "outputs": [],
      "stateMutability": "nonpayable",
      "type": "function"
    },
    {
      "inputs": [
        {
          "internalType": "address",
          "name": "receiver",
          "type": "address"
        }
      ],
      "name": "withdrawExceededUnderlyingToken",
      "outputs": [],
      "stateMutability": "nonpayable",
      "type": "function"
    },
    {
      "inputs": [
        {
          "internalType": "address",
          "name": "token",
          "type": "address"
        },
        {
          "internalType": "address",
          "name": "to",
          "type": "address"
        }
      ],
      "name": "withdrawLostERC20",
      "outputs": [],
      "stateMutability": "nonpayable",
      "type": "function"
    }
  ],
  "transactionHash": "0xe969888b9a95055ec51fb925d28a076c874374d94814939879c2903e4c44e252",
  "args": [
    "0x4eA8496D4D1d4EcF6eD6DaeA95D1A0856F8A5177",
    "0x000000000000000000000000000000000000dEaD",
    "0x1fA03eDB1B8839a5319A7D2c1Ae6AAE492342bAD",
    200000,
    "0x1FC38BA10E741F357b1c8B69DC08eA654c21Ae37",
    "92592592592592592592",
    "4000000000000000000000000000",
    220
  ],
  "numDeployments": 2,
  "solcInputHash": "1e201f9c448d20789a6134249584f634",
  "bytecode": "0x6101c0604052600180553480156200001657600080fd5b5060405162004de838038062004de883398101604081905262000039916200033a565b6200004433620002c2565b6001600160a01b0380891660805287811660a0528416610180819052604080516385d1891760e01b815290516385d18917916004808201926020929091908290030181865afa1580156200009c573d6000803e3d6000fd5b505050506040513d601f19601f82011682018060405250810190620000c29190620003d1565b6001600160a01b03166101a0816001600160a01b031681525050856001600160a01b0316610180516001600160a01b031663c55dae636040518163ffffffff1660e01b8152600401602060405180830381865afa15801562000128573d6000803e3d6000fd5b505050506040513d601f19601f820116820180604052508101906200014e9190620003d1565b6001600160a01b0316146200017e57604051630bc320f560e01b8152600760048201526024015b60405180910390fd5b610180516001600160a01b031663fc741c7c6040518163ffffffff1660e01b8152600401602060405180830381865afa158015620001c0573d6000803e3d6000fd5b505050506040513d601f19601f82011682018060405250810190620001e69190620003f6565b60020b156200020c57604051630bc320f560e01b81526009600482015260240162000175565b856001600160a01b031660c0816001600160a01b031681525050846101008181525050610180516001600160a01b031663217a4b706040518163ffffffff1660e01b8152600401602060405180830381865afa15801562000271573d6000803e3d6000fd5b505050506040513d601f19601f82011682018060405250810190620002979190620003d1565b6001600160a01b031660e052610120929092526101405261ffff1661016052506200041b9350505050565b600080546001600160a01b038381166201000081810262010000600160b01b0319851617855560405193049190911692909183917f8be0079c531659141344cd1fd0a4f28419497f9722a3daafe3b4186f6b6457e091a35050565b80516001600160a01b03811681146200033557600080fd5b919050565b600080600080600080600080610100898b0312156200035857600080fd5b62000363896200031d565b97506200037360208a016200031d565b96506200038360408a016200031d565b9550606089015194506200039a60808a016200031d565b935060a0890151925060c0890151915060e089015161ffff81168114620003c057600080fd5b809150509295985092959890939650565b600060208284031215620003e457600080fd5b620003ef826200031d565b9392505050565b6000602082840312156200040957600080fd5b81518060020b8114620003ef57600080fd5b60805160a05160c05160e05161010051610120516101405161016051610180516101a0516147b462000634600039600081816126d7015261342501526000818161066301528181610a5001528181610b3301528181610bd301528181610c8401528181610fba0152818161104e0152818161136c0152818161165301528181611ae701528181611c670152818161205001528181612119015281816121cc015281816123f401528181612489015281816125a8015281816127670152818161299501528181612bd001528181612c7e01528181612fe2015281816132cf015281816135ce015281816136be01528181613a4f01528181613afd0152613b9b0152600081816108b1015281816122570152818161228701526122fd01526000818161044c01528181610d6f01528181610d9701526131420152600081816107580152610d3a01526000818161031e015261151201526000818161036001528181611238015281816113f7015281816115e201528181611a7801528181611b8301528181611c2601528181611e9401528181611f9601528181611feb0152818161250b015261334e0152600081816103ac015281816112ce015281816114910152818161154f015281816115ae01528181611e590152818161316d015281816131fb015261331201526000818161061d015261157101526000818161056101528181611fb80152818161200d0152612aef01526147b46000f3fe6080604052600436106102d15760003560e01c80638284511b11610179578063aff25c14116100d6578063f09887301161008a578063f6c714d611610064578063f6c714d6146108d3578063fa1a5f59146108f3578063fd235fda1461090957600080fd5b8063f09887301461085f578063f2fde38b1461087f578063f35509e41461089f57600080fd5b8063d1d58b25116100bb578063d1d58b2514610805578063d45c241c14610825578063e5040c421461083f57600080fd5b8063aff25c14146107cf578063c30bdf48146107ef57600080fd5b806391f7cfb91161012d578063a756377e11610112578063a756377e1461077a578063aa83a3081461078f578063afe517ee146107af57600080fd5b806391f7cfb914610731578063a70329981461074657600080fd5b80638757b15b1161015e5780638757b15b146106bc5780638d0525bb146106d15780638da5cb5b1461070d57600080fd5b80638284511b146106875780638456cb59146106a757600080fd5b806357ef74031161023257806361f08f23116101e657806370d5ae05116101c057806370d5ae051461060b578063715018a61461063f57806380f556051461065457600080fd5b806361f08f23146105855780636352211e146105b25780636ba4c138146105eb57600080fd5b80635c975abb116102175780635c975abb146104f45780635ff2f2e81461052557806361d027b31461055257600080fd5b806357ef74031461049f5780635ac0d9c0146104b457600080fd5b806345d30a17116102895780634b86a3d01161026e5780634b86a3d01461041a57806353701bc11461043a57806354c5b6961461046e57600080fd5b806345d30a17146103e5578063468e3e2f146103fa57600080fd5b8063217a4b70116102ba578063217a4b701461034e5780632495a5991461039a5780633f4ba83a146103ce57600080fd5b806310fc6172146102d657806314025dcd1461030c575b600080fd5b3480156102e257600080fd5b506102f66102f1366004613e60565b61091c565b6040516103039190613e79565b60405180910390f35b34801561031857600080fd5b506103407f000000000000000000000000000000000000000000000000000000000000000081565b604051908152602001610303565b34801561035a57600080fd5b506103827f000000000000000000000000000000000000000000000000000000000000000081565b6040516001600160a01b039091168152602001610303565b3480156103a657600080fd5b506103827f000000000000000000000000000000000000000000000000000000000000000081565b3480156103da57600080fd5b506103e3610cf9565b005b3480156103f157600080fd5b50610340610d10565b34801561040657600080fd5b506103e3610415366004613edf565b610dbd565b34801561042657600080fd5b506103e3610435366004613f64565b611617565b34801561044657600080fd5b506103407f000000000000000000000000000000000000000000000000000000000000000081565b34801561047a57600080fd5b5060025461048d90610100900460ff1681565b60405160ff9091168152602001610303565b3480156104ab57600080fd5b5061034061164f565b3480156104c057600080fd5b506002546104db9062010000900467ffffffffffffffff1681565b60405167ffffffffffffffff9091168152602001610303565b34801561050057600080fd5b5060005461051590600160b01b900460ff1681565b6040519015158152602001610303565b34801561053157600080fd5b50610545610540366004613edf565b611708565b6040516103039190613f81565b34801561055e57600080fd5b507f0000000000000000000000000000000000000000000000000000000000000000610382565b34801561059157600080fd5b506105a56105a0366004613edf565b611813565b6040516103039190613fd9565b3480156105be57600080fd5b506103826105cd366004613e60565b6000908152600560205260409020600101546001600160a01b031690565b3480156105f757600080fd5b506103e3610606366004613edf565b611912565b34801561061757600080fd5b506103827f000000000000000000000000000000000000000000000000000000000000000081565b34801561064b57600080fd5b506103e3611e3b565b34801561066057600080fd5b507f0000000000000000000000000000000000000000000000000000000000000000610382565b34801561069357600080fd5b506103e36106a2366004614094565b611e4f565b3480156106b357600080fd5b506103e3611f6c565b3480156106c857600080fd5b506103e3611f89565b3480156106dd57600080fd5b506002546106fa906a0100000000000000000000900461ffff1681565b60405161ffff9091168152602001610303565b34801561071957600080fd5b506000546201000090046001600160a01b0316610382565b34801561073d57600080fd5b50610340612034565b34801561075257600080fd5b506103407f000000000000000000000000000000000000000000000000000000000000000081565b34801561078657600080fd5b506106fa61204b565b34801561079b57600080fd5b506103406107aa3660046140e3565b61232a565b3480156107bb57600080fd5b506103406107ca366004614134565b612b66565b3480156107db57600080fd5b506103e36107ea366004614176565b612d96565b3480156107fb57600080fd5b5061034060035481565b34801561081157600080fd5b50610340610820366004613e60565b612f1e565b34801561083157600080fd5b5060025461048d9060ff1681565b34801561084b57600080fd5b5061034061085a366004613e60565b61307c565b34801561086b57600080fd5b506103e361087a3660046141b3565b61311c565b34801561088b57600080fd5b506103e361089a3660046141b3565b613222565b3480156108ab57600080fd5b506106fa7f000000000000000000000000000000000000000000000000000000000000000081565b3480156108df57600080fd5b506103e36108ee3660046141d0565b6132b2565b3480156108ff57600080fd5b5061034060045481565b6103e36109173660046141fa565b6132c4565b6109726040518061010001604052806000815260200160006001600160a01b03168152602001600060ff168152602001600015158152602001600081526020016000815260200160008152602001600081525090565b6000828152600560209081526040808320815160e081018352815467ffffffffffffffff8082168352600160401b8204811695830195909552600160801b8104851693820193909352600160c01b90920490921660608201526001909101546001600160a01b038116608083015260ff600160a01b8204811660a0840152600160a81b90910416151560c082015290610a0a846133d5565b60200151905060405180610100016040528085815260200183608001516001600160a01b031681526020018360a0015160ff1681526020018360c00151151581526020017f00000000000000000000000000000000000000000000000000000000000000006001600160a01b031663240ddd2e85600001516040518263ffffffff1660e01b8152600401610aae919067ffffffffffffffff91909116815260200190565b602060405180830381865afa158015610acb573d6000803e3d6000fd5b505050506040513d601f19601f82011682018060405250810190610aef91906142a4565b81526020848101516040516363e320a160e11b815267ffffffffffffffff909116600482015261ffff85166024820152600060448201529101906001600160a01b037f0000000000000000000000000000000000000000000000000000000000000000169063c7c6414290606401602060405180830381865afa158015610b7a573d6000803e3d6000fd5b505050506040513d601f19601f82011682018060405250810190610b9e91906142a4565b81526040808501519051631206ee9760e11b815267ffffffffffffffff90911660048201526020909101906001600160a01b037f0000000000000000000000000000000000000000000000000000000000000000169063240ddd2e90602401602060405180830381865afa158015610c1a573d6000803e3d6000fd5b505050506040513d601f19601f82011682018060405250810190610c3e91906142a4565b815260608401516040516363e320a160e11b815267ffffffffffffffff909116600482015261ffff84166024820152600060448201526020909101906001600160a01b037f0000000000000000000000000000000000000000000000000000000000000000169063c7c6414290606401602060405180830381865afa158015610ccb573d6000803e3d6000fd5b505050506040513d601f19601f82011682018060405250810190610cef91906142a4565b9052949350505050565b610d01613490565b6000805460ff60b01b19169055565b6002546000908190610d329062010000900467ffffffffffffffff16426142d3565b9050610d5e817f00000000000000000000000000000000000000000000000000000000000000006142e6565b600354610d6b91906142fd565b91507f0000000000000000000000000000000000000000000000000000000000000000821115610db9577f000000000000000000000000000000000000000000000000000000000000000091505b5090565b600154600114610de857604051630bc320f560e01b8152600260048201526024015b60405180910390fd5b6002600155600054600160b01b900460ff1615610e1b57604051630bc320f560e01b815260016004820152602401610ddf565b60008167ffffffffffffffff811115610e3657610e36614310565b604051908082528060200260200182016040528015610e8157816020015b6040805160608101825260008082526020808301829052928201528252600019909201910181610e545790505b50905060005b8281101561121f576000848483818110610ea357610ea3614326565b60209081029290920135600081815260058452604090819020815160e081018352815467ffffffffffffffff8082168352600160401b8204811697830197909752600160801b8104871693820193909352600160c01b90920490941660608201526001909301546001600160a01b0381166080850181905260ff600160a01b8304811660a0870152600160a81b909204909116151560c085015290935033149050610f6457604051630bc320f560e01b815260006004820152602401610ddf565b6000610f6f836133d5565b905080858581518110610f8457610f84614326565b60200260200101819052508160c00151610fa05750505061120f565b604051634cd9c08160e11b81526000906001600160a01b037f000000000000000000000000000000000000000000000000000000000000000016906399b3810290610fef90859060040161433c565b606060405180830381865afa15801561100c573d6000803e3d6000fd5b505050506040513d601f19601f82011682018060405250810190611030919061439a565b51604051635fec377960e01b81529091506000906001600160a01b037f00000000000000000000000000000000000000000000000000000000000000001690635fec37799061108390869060040161433c565b608060405180830381865afa1580156110a0573d6000803e3d6000fd5b505050506040513d601f19601f820116820180604052508101906110c491906143f7565b505050905080826110d59190614436565b67ffffffffffffffff166060850181905260208501516110f59190614436565b67ffffffffffffffff9081166040808701918252600060c08801818152988152600560209081529190208751815492890151935160608a01518616600160c01b0277ffffffffffffffffffffffffffffffffffffffffffffffff918716600160801b02919091166fffffffffffffffffffffffffffffffff958716600160401b026fffffffffffffffffffffffffffffffff1990951692909616919091179290921792909216929092179190911781556080850151600191909101805460a09096015196511515600160a81b0260ff60a81b1960ff909816600160a01b0274ffffffffffffffffffffffffffffffffffffffffff199097166001600160a01b03909316929092179590951795909516949094179092555050505b61121881614457565b9050610e87565b506040516370a0823160e01b81523060048201526000907f00000000000000000000000000000000000000000000000000000000000000006001600160a01b0316906370a0823190602401602060405180830381865afa158015611287573d6000803e3d6000fd5b505050506040513d601f19601f820116820180604052508101906112ab91906142a4565b6040516370a0823160e01b81523060048201529091506000906001600160a01b037f000000000000000000000000000000000000000000000000000000000000000016906370a0823190602401602060405180830381865afa158015611315573d6000803e3d6000fd5b505050506040513d601f19601f8201168201806040525081019061133991906142a4565b6040517fdfdc93880000000000000000000000000000000000000000000000000000000081529091506001600160a01b037f0000000000000000000000000000000000000000000000000000000000000000169063dfdc9388906113a39030908790600401614470565b600060405180830381600087803b1580156113bd57600080fd5b505af11580156113d1573d6000803e3d6000fd5b50506040516370a0823160e01b8152306004820152600092508491506001600160a01b037f000000000000000000000000000000000000000000000000000000000000000016906370a0823190602401602060405180830381865afa15801561143e573d6000803e3d6000fd5b505050506040513d601f19601f8201168201806040525081019061146291906142a4565b61146c91906142d3565b6040516370a0823160e01b815230600482015290915060009083906001600160a01b037f000000000000000000000000000000000000000000000000000000000000000016906370a0823190602401602060405180830381865afa1580156114d8573d6000803e3d6000fd5b505050506040513d601f19601f820116820180604052508101906114fc91906142a4565b61150691906142d3565b905060006115406115377f0000000000000000000000000000000000000000000000000000000000000000846142e6565b620f42406134f1565b90506115966001600160a01b037f0000000000000000000000000000000000000000000000000000000000000000167f00000000000000000000000000000000000000000000000000000000000000008361351b565b6115d5336115a483856142d3565b6001600160a01b037f000000000000000000000000000000000000000000000000000000000000000016919061351b565b6116096001600160a01b037f000000000000000000000000000000000000000000000000000000000000000016338561351b565b505060018055505050505050565b61161f613490565b6002805461ffff9092166a0100000000000000000000026bffff0000000000000000000019909216919091179055565b60007f00000000000000000000000000000000000000000000000000000000000000006001600160a01b0316636a204d0c61168861204b565b6040517fffffffff0000000000000000000000000000000000000000000000000000000060e084901b16815261ffff9091166004820152602401602060405180830381865afa1580156116df573d6000803e3d6000fd5b505050506040513d601f19601f8201168201806040525081019061170391906142a4565b905090565b60608167ffffffffffffffff81111561172357611723614310565b60405190808252806020026020018201604052801561176857816020015b60408051808201909152600080825260208201528152602001906001900390816117415790505b50905060005b8281101561180b5760405180604001604052806005600087878681811061179757611797614326565b6020908102929092013583525081810192909252604001600020600101546001600160a01b03168252018585848181106117d3576117d3614326565b905060200201358152508282815181106117ef576117ef614326565b60200260200101819052508061180490614457565b905061176e565b505b92915050565b60608167ffffffffffffffff81111561182e5761182e614310565b6040519080825280602002602001820160405280156118b557816020015b6118a26040518061010001604052806000815260200160006001600160a01b03168152602001600060ff168152602001600015158152602001600081526020016000815260200160008152602001600081525090565b81526020019060019003908161184c5790505b50905060005b8281101561180b576118e48484838181106118d8576118d8614326565b9050602002013561091c565b8282815181106118f6576118f6614326565b60200260200101819052508061190b90614457565b90506118bb565b60015460011461193857604051630bc320f560e01b815260026004820152602401610ddf565b6002600155600054600160b01b900460ff161561196b57604051630bc320f560e01b815260016004820152602401610ddf565b60005b81811015611e325760008084848481811061198b5761198b614326565b60209081029290920135600081815260058452604090819020815160e081018352815467ffffffffffffffff8082168352600160401b8204811697830197909752600160801b8104871693820193909352600160c01b90920490941660608201526001909301546001600160a01b038116608085015260ff600160a01b8204811660a0860152600160a81b90910416151560c084018190529093509050611a3457505050611e22565b6000611a3f836133d5565b9050611a4b82826135c9565b611a5590856142fd565b6040516370a0823160e01b81523060048201529094506000906001600160a01b037f000000000000000000000000000000000000000000000000000000000000000016906370a0823190602401602060405180830381865afa158015611abf573d6000803e3d6000fd5b505050506040513d601f19601f82011682018060405250810190611ae391906142a4565b90507f00000000000000000000000000000000000000000000000000000000000000006001600160a01b03166375375e9633611b1e8561373a565b6040518363ffffffff1660e01b8152600401611b3b929190614470565b600060405180830381600087803b158015611b5557600080fd5b505af1158015611b69573d6000803e3d6000fd5b50506040516370a0823160e01b81523060048201528392507f00000000000000000000000000000000000000000000000000000000000000006001600160a01b031691506370a0823190602401602060405180830381865afa158015611bd3573d6000803e3d6000fd5b505050506040513d601f19601f82011682018060405250810190611bf791906142a4565b611c0191906142d3565b611c0b90866142fd565b94508415611e1c576080830151611c4d906001600160a01b037f000000000000000000000000000000000000000000000000000000000000000016908761351b565b604051634cd9c08160e11b81526000906001600160a01b037f000000000000000000000000000000000000000000000000000000000000000016906399b3810290611c9c90869060040161433c565b606060405180830381865afa158015611cb9573d6000803e3d6000fd5b505050506040513d601f19601f82011682018060405250810190611cdd919061439a565b516020850151909150611cf1908290614436565b67ffffffffffffffff90811660408601819052602086015190911603611d1957600060c08501525b50600084815260056020908152604091829020855181549287015193870151606088015167ffffffffffffffff908116600160c01b0277ffffffffffffffffffffffffffffffffffffffffffffffff928216600160801b02929092166fffffffffffffffffffffffffffffffff968216600160401b026fffffffffffffffffffffffffffffffff19909616919093161793909317939093169290921717815560808401516001909101805460a086015160c08701511515600160a81b0260ff60a81b1960ff909216600160a01b0274ffffffffffffffffffffffffffffffffffffffffff199093166001600160a01b039095169490941791909117169190911790555b50505050505b611e2b81614457565b905061196e565b50506001805550565b611e43613490565b611e4d60006137a4565b565b611e57613490565b7f00000000000000000000000000000000000000000000000000000000000000006001600160a01b0316826001600160a01b03161480611ec857507f00000000000000000000000000000000000000000000000000000000000000006001600160a01b0316826001600160a01b0316145b15611ee957604051630bc320f560e01b815260076004820152602401610ddf565b6040516370a0823160e01b8152306004820152611f689082906001600160a01b038516906370a0823190602401602060405180830381865afa158015611f33573d6000803e3d6000fd5b505050506040513d601f19601f82011682018060405250810190611f5791906142a4565b6001600160a01b038516919061351b565b5050565b611f74613490565b6000805460ff60b01b1916600160b01b179055565b611fde6001600160a01b037f0000000000000000000000000000000000000000000000000000000000000000167f00000000000000000000000000000000000000000000000000000000000000006000613815565b611e4d6001600160a01b037f0000000000000000000000000000000000000000000000000000000000000000167f0000000000000000000000000000000000000000000000000000000000000000600019613815565b6000600454612041610d10565b61170391906142d3565b6000807f00000000000000000000000000000000000000000000000000000000000000006001600160a01b031663c9ed23766040518163ffffffff1660e01b8152600401602060405180830381865afa1580156120ac573d6000803e3d6000fd5b505050506040513d601f19601f820116820180604052508101906120d091906144f5565b60028054600094509192506a010000000000000000000090910461ffff1690835b8261ffff168110156122ee5760405163092337eb60e21b815261ffff851660048201526000907f00000000000000000000000000000000000000000000000000000000000000006001600160a01b03169063248cdfac9060240160e060405180830381865afa158015612168573d6000803e3d6000fd5b505050506040513d601f19601f8201168201806040525081019061218c9190614512565b9050811580156121a65750805167ffffffffffffffff1642145b156122425760405163092337eb60e21b815261ffff6000199690960195861660048201527f00000000000000000000000000000000000000000000000000000000000000006001600160a01b03169063248cdfac9060240160e060405180830381865afa15801561221b573d6000803e3d6000fd5b505050506040513d601f19601f8201168201806040525081019061223f9190614512565b90505b805167ffffffffffffffff166000036122b6577f000000000000000000000000000000000000000000000000000000000000000061ffff168661ffff1610156122b0577f00000000000000000000000000000000000000000000000000000000000000009550505050505090565b506122ee565b8561ffff16816080015161ffff1611156122d257806080015195505b5092819003926002909102906122e781614457565b90506120f1565b508361ffff16600003612324577f0000000000000000000000000000000000000000000000000000000000000000935050505090565b50505090565b600060015460011461235257604051630bc320f560e01b815260026004820152602401610ddf565b6002600155600054600160b01b900460ff161561238557604051630bc320f560e01b815260016004820152602401610ddf565b600254849060ff610100909104811690821611806123ab575060025460ff908116908216105b156123cc57604051630bc320f560e01b8152600a6004820152602401610ddf565b6123d4613963565b60405163441055f560e01b815260048101879052600060248201819052907f00000000000000000000000000000000000000000000000000000000000000006001600160a01b03169063441055f590604401602060405180830381865afa158015612443573d6000803e3d6000fd5b505050506040513d601f19601f8201168201806040525081019061246791906145d8565b604051631206ee9760e11b815267ffffffffffffffff821660048201529091507f00000000000000000000000000000000000000000000000000000000000000006001600160a01b03169063240ddd2e90602401602060405180830381865afa1580156124d8573d6000803e3d6000fd5b505050506040513d601f19601f820116820180604052508101906124fc91906142a4565b96506125336001600160a01b037f00000000000000000000000000000000000000000000000000000000000000001633308a6139ae565b6000806125408389613a05565b915091508061254d612034565b101561256f57604051630bc320f560e01b815260036004820152602401610ddf565b8561ffff168261ffff16111561259b57604051630bc320f560e01b815260056004820152602401610ddf565b6000806001600160a01b037f00000000000000000000000000000000000000000000000000000000000000001663bfc18aef308684876002826040519080825280601f01601f1916602001820160405280156125fe576020820181803683370190505b506040518763ffffffff1660e01b815260040161262096959493929190614645565b6020604051808303816000875af115801561263f573d6000803e3d6000fd5b505050506040513d601f19601f8201168201806040525081019061266391906142a4565b9050600019810361268a57604051630bc320f560e01b815260066004820152602401610ddf565b604080516060810182526000815261ffff8616602082015280820183905290517fc776d5830000000000000000000000000000000000000000000000000000000081526001600160a01b037f0000000000000000000000000000000000000000000000000000000000000000169063c776d5839061270c90849060040161433c565b602060405180830381865afa158015612729573d6000803e3d6000fd5b505050506040513d601f19601f8201168201806040525081019061274d91906142a4565b604051634cd9c08160e11b81529098506001600160a01b037f000000000000000000000000000000000000000000000000000000000000000016906399b381029061279c90849060040161433c565b606060405180830381865afa1580156127b9573d6000803e3d6000fd5b505050506040513d601f19601f820116820180604052508101906127dd919061439a565b60000151925050506040518060e001604052808567ffffffffffffffff1681526020018267ffffffffffffffff168152602001600067ffffffffffffffff168152602001600067ffffffffffffffff168152602001896001600160a01b031681526020018a60ff168152602001600115158152506005600088815260200190815260200160002060008201518160000160006101000a81548167ffffffffffffffff021916908367ffffffffffffffff16021790555060208201518160000160086101000a81548167ffffffffffffffff021916908367ffffffffffffffff16021790555060408201518160000160106101000a81548167ffffffffffffffff021916908367ffffffffffffffff16021790555060608201518160000160186101000a81548167ffffffffffffffff021916908367ffffffffffffffff16021790555060808201518160010160006101000a8154816001600160a01b0302191690836001600160a01b0316021790555060a08201518160010160146101000a81548160ff021916908360ff16021790555060c08201518160010160156101000a81548160ff02191690831515021790555090505060007f00000000000000000000000000000000000000000000000000000000000000006001600160a01b031663c7c64142838660006040518463ffffffff1660e01b8152600401612a079392919067ffffffffffffffff93909316835261ffff9190911660208301521515604082015260600190565b602060405180830381865afa158015612a24573d6000803e3d6000fd5b505050506040513d601f19601f82011682018060405250810190612a4891906142a4565b905080600003612a6e57604051630bc320f560e01b815260066004820152602401610ddf565b604080518c815260ff8c16602082015290810182905287906001600160a01b038b169033907f267dddb881e07bcf2b2f2fea4452c4a4a99ac8577aaf7c026f68210185fb90479060600160405180910390a46040517f37df00c9000000000000000000000000000000000000000000000000000000008152600481018c90527f00000000000000000000000000000000000000000000000000000000000000006001600160a01b0316906337df00c990602401600060405180830381600087803b158015612b3b57600080fd5b505af1158015612b4f573d6000803e3d6000fd5b50506001805550969b9a5050505050505050505050565b600254600090829060ff61010090910481169082161180612b8f575060025460ff908116908216105b15612bb057604051630bc320f560e01b8152600a6004820152602401610ddf565b60405163441055f560e01b815260048101859052600060248201819052907f00000000000000000000000000000000000000000000000000000000000000006001600160a01b03169063441055f590604401602060405180830381865afa158015612c1f573d6000803e3d6000fd5b505050506040513d601f19601f82011682018060405250810190612c4391906145d8565b9050600080612c528387613a05565b60405163151d468760e11b81526004810182905261ffff831660248201526000604482015291935091507f00000000000000000000000000000000000000000000000000000000000000006001600160a01b03169063c7c64142908290632a3a8d0e90606401602060405180830381865afa158015612cd5573d6000803e3d6000fd5b505050506040513d601f19601f82011682018060405250810190612cf991906145d8565b6040517fffffffff0000000000000000000000000000000000000000000000000000000060e084901b16815267ffffffffffffffff909116600482015261ffff8516602482015260006044820152606401602060405180830381865afa158015612d67573d6000803e3d6000fd5b505050506040513d601f19601f82011682018060405250810190612d8b91906142a4565b979650505050505050565b600054610100900460ff1615808015612db65750600054600160ff909116105b80612dd05750303b158015612dd0575060005460ff166001145b612e425760405162461bcd60e51b815260206004820152602e60248201527f496e697469616c697a61626c653a20636f6e747261637420697320616c72656160448201527f647920696e697469616c697a65640000000000000000000000000000000000006064820152608401610ddf565b6000805460ff191660011790558015612e65576000805461ff0019166101001790555b612e6e60018055565b612e77336137a4565b612e818585613c1a565b600280546bffffffffffffffffffff000019166201000067ffffffffffffffff8616026bffff000000000000000000001916176a010000000000000000000061ffff851602179055612ed1611f89565b8015612f17576000805461ff0019169055604051600181527f7f26b83ff96e1f2b6a682f133852f6798a09c465da95921460cefb38474024989060200160405180910390a15b5050505050565b600080612f2a836133d5565b600084815260056020908152604091829020825160e081018452815467ffffffffffffffff8082168352600160401b8204811694830194909452600160801b8104841694820194909452600160c01b9093049091166060830152600101546001600160a01b038116608083015260ff600160a01b8204811660a0840152600160a81b90910416151560c0820181905291925090612fcb575060009392505050565b604051635fec377960e01b81526001600160a01b037f00000000000000000000000000000000000000000000000000000000000000001690635fec37799061301790859060040161433c565b608060405180830381865afa158015613034573d6000803e3d6000fd5b505050506040513d601f19601f8201168201806040525081019061305891906143f7565b5090945061306a9150829050836135c9565b61307490846142fd565b949350505050565b6000818152600560209081526040808320815160e081018352815467ffffffffffffffff8082168352600160401b8204811695830195909552600160801b8104851693820193909352600160c01b90920490921660608201526001909101546001600160a01b038116608083015260ff600160a01b8204811660a0840152600160a81b90910416151560c082015261180d90613117846133d5565b6135c9565b613124613490565b600480546040516370a0823160e01b815230928101929092526000917f000000000000000000000000000000000000000000000000000000000000000091906001600160a01b037f000000000000000000000000000000000000000000000000000000000000000016906370a0823190602401602060405180830381865afa1580156131b4573d6000803e3d6000fd5b505050506040513d601f19601f820116820180604052508101906131d891906142a4565b6131e291906142fd565b6131ec91906142d3565b9050611f686001600160a01b037f000000000000000000000000000000000000000000000000000000000000000016838361351b565b61322a613490565b6001600160a01b0381166132a65760405162461bcd60e51b815260206004820152602660248201527f4f776e61626c653a206e6577206f776e657220697320746865207a65726f206160448201527f64647265737300000000000000000000000000000000000000000000000000006064820152608401610ddf565b6132af816137a4565b50565b6132ba613490565b611f688282613c1a565b336001600160a01b037f0000000000000000000000000000000000000000000000000000000000000000161461331057604051630bc320f560e01b815260006004820152602401610ddf565b7f00000000000000000000000000000000000000000000000000000000000000006001600160a01b0316866001600160a01b031614801561338257507f00000000000000000000000000000000000000000000000000000000000000006001600160a01b0316856001600160a01b0316145b6133a257604051630bc320f560e01b815260076004820152602401610ddf565b6133b66001600160a01b038716338661351b565b83600460008282546133c891906142fd565b9091555050505050505050565b604080516060810182526000808252602082018190528183015290517fdc20c6fa000000000000000000000000000000000000000000000000000000008152600481018390526001600160a01b037f0000000000000000000000000000000000000000000000000000000000000000169063dc20c6fa90602401606060405180830381865afa15801561346c573d6000803e3d6000fd5b505050506040513d601f19601f8201168201806040525081019061180d91906146ac565b6000546001600160a01b0362010000909104163314611e4d5760405162461bcd60e51b815260206004820181905260248201527f4f776e61626c653a2063616c6c6572206973206e6f7420746865206f776e65726044820152606401610ddf565b600081600161350082866142fd565b61350a91906142d3565b61351491906146f7565b9392505050565b6040516001600160a01b0383166024820152604481018290526135c49084907fa9059cbb00000000000000000000000000000000000000000000000000000000906064015b60408051601f198184030181529190526020810180517bffffffffffffffffffffffffffffffffffffffffffffffffffffffff167fffffffff0000000000000000000000000000000000000000000000000000000090931692909217909152613c68565b505050565b6000807f00000000000000000000000000000000000000000000000000000000000000006001600160a01b03166399b38102846040518263ffffffff1660e01b8152600401613618919061433c565b606060405180830381865afa158015613635573d6000803e3d6000fd5b505050506040513d601f19601f82011682018060405250810190613659919061439a565b600001519050600084604001518286602001516136769190614436565b6136809190614436565b90508067ffffffffffffffff1660000361369f5760009250505061180d565b604051631206ee9760e11b815267ffffffffffffffff821660048201527f00000000000000000000000000000000000000000000000000000000000000006001600160a01b03169063240ddd2e90602401602060405180830381865afa15801561370d573d6000803e3d6000fd5b505050506040513d601f19601f8201168201806040525081019061373191906142a4565b95945050505050565b604080516001808252818301909252606091816020015b6040805160608101825260008082526020808301829052928201528252600019909201910181613751579050509050818160008151811061379457613794614326565b6020026020010181905250919050565b600080546001600160a01b03838116620100008181027fffffffffffffffffffff0000000000000000000000000000000000000000ffff851617855560405193049190911692909183917f8be0079c531659141344cd1fd0a4f28419497f9722a3daafe3b4186f6b6457e091a35050565b8015806138a857506040517fdd62ed3e0000000000000000000000000000000000000000000000000000000081523060048201526001600160a01b03838116602483015284169063dd62ed3e90604401602060405180830381865afa158015613882573d6000803e3d6000fd5b505050506040513d601f19601f820116820180604052508101906138a691906142a4565b155b61391a5760405162461bcd60e51b815260206004820152603660248201527f5361666545524332303a20617070726f76652066726f6d206e6f6e2d7a65726f60448201527f20746f206e6f6e2d7a65726f20616c6c6f77616e6365000000000000000000006064820152608401610ddf565b6040516001600160a01b0383166024820152604481018290526135c49084907f095ea7b30000000000000000000000000000000000000000000000000000000090606401613560565b60025462010000900467ffffffffffffffff16421115611e4d57613985610d10565b6003556002805469ffffffffffffffff00001916620100004267ffffffffffffffff1602179055565b6040516001600160a01b03808516602483015283166044820152606481018290526139ff9085907f23b872dd0000000000000000000000000000000000000000000000000000000090608401613560565b50505050565b6000806000613a1261204b565b6040516363e320a160e11b815267ffffffffffffffff8716600482015261ffff821660248201526000604482018190529192506001600160a01b037f0000000000000000000000000000000000000000000000000000000000000000169063c7c6414290606401602060405180830381865afa158015613a96573d6000803e3d6000fd5b505050506040513d601f19601f82011682018060405250810190613aba91906142a4565b9050613ac960ff861683614719565b60405163151d468760e11b81526004810183905261ffff821660248201526000604482018190529195506001600160a01b037f00000000000000000000000000000000000000000000000000000000000000001690632a3a8d0e90606401602060405180830381865afa158015613b44573d6000803e3d6000fd5b505050506040513d601f19601f82011682018060405250810190613b6891906145d8565b6040516363e320a160e11b815267ffffffffffffffff8216600482015261ffff85166024820152600060448201529091507f00000000000000000000000000000000000000000000000000000000000000006001600160a01b03169063c7c6414290606401602060405180830381865afa158015613bea573d6000803e3d6000fd5b505050506040513d601f19601f82011682018060405250810190613c0e91906142a4565b93505050509250929050565b8060ff168260ff161115613c4457604051630bc320f560e01b8152600a6004820152602401610ddf565b6002805460ff9283166101000261ffff199091169290931691909117919091179055565b6000613cbd826040518060400160405280602081526020017f5361666545524332303a206c6f772d6c6576656c2063616c6c206661696c6564815250856001600160a01b0316613d4d9092919063ffffffff16565b8051909150156135c45780806020019051810190613cdb9190614734565b6135c45760405162461bcd60e51b815260206004820152602a60248201527f5361666545524332303a204552433230206f7065726174696f6e20646964206e60448201527f6f742073756363656564000000000000000000000000000000000000000000006064820152608401610ddf565b6060613074848460008585600080866001600160a01b03168587604051613d74919061474f565b60006040518083038185875af1925050503d8060008114613db1576040519150601f19603f3d011682016040523d82523d6000602084013e613db6565b606091505b5091509150612d8b8783838760608315613e31578251600003613e2a576001600160a01b0385163b613e2a5760405162461bcd60e51b815260206004820152601d60248201527f416464726573733a2063616c6c20746f206e6f6e2d636f6e74726163740000006044820152606401610ddf565b5081613074565b6130748383815115613e465781518083602001fd5b8060405162461bcd60e51b8152600401610ddf919061476b565b600060208284031215613e7257600080fd5b5035919050565b610100810161180d8284805182526001600160a01b03602082015116602083015260ff60408201511660408301526060810151151560608301526080810151608083015260a081015160a083015260c081015160c083015260e081015160e08301525050565b60008060208385031215613ef257600080fd5b823567ffffffffffffffff80821115613f0a57600080fd5b818501915085601f830112613f1e57600080fd5b813581811115613f2d57600080fd5b8660208260051b8501011115613f4257600080fd5b60209290920196919550909350505050565b61ffff811681146132af57600080fd5b600060208284031215613f7657600080fd5b813561351481613f54565b602080825282518282018190526000919060409081850190868401855b82811015613fcc57815180516001600160a01b03168552860151868501529284019290850190600101613f9e565b5091979650505050505050565b6020808252825182820181905260009190848201906040850190845b818110156140735761405f838551805182526001600160a01b03602082015116602083015260ff60408201511660408301526060810151151560608301526080810151608083015260a081015160a083015260c081015160c083015260e081015160e08301525050565b928401926101009290920191600101613ff5565b50909695505050505050565b6001600160a01b03811681146132af57600080fd5b600080604083850312156140a757600080fd5b82356140b28161407f565b915060208301356140c28161407f565b809150509250929050565b803560ff811681146140de57600080fd5b919050565b600080600080608085870312156140f957600080fd5b84359350614109602086016140cd565b925060408501356141198161407f565b9150606085013561412981613f54565b939692955090935050565b6000806040838503121561414757600080fd5b82359150614157602084016140cd565b90509250929050565b67ffffffffffffffff811681146132af57600080fd5b6000806000806080858703121561418c57600080fd5b614195856140cd565b93506141a3602086016140cd565b9250604085013561411981614160565b6000602082840312156141c557600080fd5b81356135148161407f565b600080604083850312156141e357600080fd5b6141ec836140cd565b9150614157602084016140cd565b60008060008060008060a0878903121561421357600080fd5b863561421e8161407f565b9550602087013561422e8161407f565b94506040870135935060608701359250608087013567ffffffffffffffff8082111561425957600080fd5b818901915089601f83011261426d57600080fd5b81358181111561427c57600080fd5b8a602082850101111561428e57600080fd5b6020830194508093505050509295509295509295565b6000602082840312156142b657600080fd5b5051919050565b634e487b7160e01b600052601160045260246000fd5b8181038181111561180d5761180d6142bd565b808202811582820484141761180d5761180d6142bd565b8082018082111561180d5761180d6142bd565b634e487b7160e01b600052604160045260246000fd5b634e487b7160e01b600052603260045260246000fd5b81511515815260208083015161ffff1690820152604080830151908201526060810161180d565b6040516060810167ffffffffffffffff8111828210171561439457634e487b7160e01b600052604160045260246000fd5b60405290565b6000606082840312156143ac57600080fd5b6143b4614363565b82516143bf81614160565b8152602083015163ffffffff811681146143d857600080fd5b602082015260408301516143eb8161407f565b60408201529392505050565b6000806000806080858703121561440d57600080fd5b845161441881614160565b60208601516040870151606090970151919890975090945092505050565b67ffffffffffffffff82811682821603908082111561180b5761180b6142bd565b600060018201614469576144696142bd565b5060010190565b6000604082016001600160a01b0385168352602060408185015281855180845260609350838601915082870160005b828110156144dc576144cc84835180511515825260208082015161ffff1690830152604090810151910152565b928501929084019060010161449f565b509198975050505050505050565b80516140de81613f54565b60006020828403121561450757600080fd5b815161351481613f54565b600060e0828403121561452457600080fd5b60405160e0810181811067ffffffffffffffff8211171561455557634e487b7160e01b600052604160045260246000fd5b604052825161456381614160565b8152602083015161457381614160565b6020820152604083015161458681614160565b6040820152606083015161459981613f54565b60608201526145aa608084016144ea565b60808201526145bb60a084016144ea565b60a08201526145cc60c084016144ea565b60c08201529392505050565b6000602082840312156145ea57600080fd5b815161351481614160565b60005b838110156146105781810151838201526020016145f8565b50506000910152565b600081518084526146318160208601602086016145f5565b601f01601f19169290920160200192915050565b6001600160a01b038716815261ffff8616602082015267ffffffffffffffff8516604082015283606082015260ff8316608082015260c060a0820152600061469060c0830184614619565b98975050505050505050565b805180151581146140de57600080fd5b6000606082840312156146be57600080fd5b6146c6614363565b6146cf8361469c565b815260208301516146df81613f54565b60208201526040928301519281019290925250919050565b60008261471457634e487b7160e01b600052601260045260246000fd5b500490565b61ffff81811683821601908082111561180b5761180b6142bd565b60006020828403121561474657600080fd5b6135148261469c565b600082516147618184602087016145f5565b9190910192915050565b602081526000613514602083018461461956fea26469706673582212206c68618f003e6980efbc8636d9172c60c40968bc9d5a2455c1fe0b1c36e4c1c064736f6c63430008110033",
  "devdoc": {
    "kind": "dev",
    "methods": {
      "owner()": {
        "details": "Returns the address of the current owner."
      },
      "renounceOwnership()": {
        "details": "Leaves the contract without owner. It will not be possible to call `onlyOwner` functions anymore. Can only be called by the current owner. NOTE: Renouncing ownership will leave the contract without an owner, thereby removing any functionality that is only available to the owner."
      },
      "transferOwnership(address)": {
        "details": "Transfers ownership of the contract to a new account (`newOwner`). Can only be called by the current owner."
      }
    },
    "version": 1
  },
  "userdoc": {
    "kind": "user",
    "methods": {},
    "version": 1
  },
  "storageLayout": {
    "storage": [
      {
        "astId": 119,
        "contract": "contracts/MangoBondPool.sol:MangoBondPool",
        "label": "_initialized",
        "offset": 0,
        "slot": "0",
        "type": "t_uint8"
      },
      {
        "astId": 122,
        "contract": "contracts/MangoBondPool.sol:MangoBondPool",
        "label": "_initializing",
        "offset": 1,
        "slot": "0",
        "type": "t_bool"
      },
      {
        "astId": 7,
        "contract": "contracts/MangoBondPool.sol:MangoBondPool",
        "label": "_owner",
        "offset": 2,
        "slot": "0",
        "type": "t_address"
      },
      {
        "astId": 4984,
        "contract": "contracts/MangoBondPool.sol:MangoBondPool",
        "label": "paused",
        "offset": 22,
        "slot": "0",
        "type": "t_bool"
      },
      {
        "astId": 5026,
        "contract": "contracts/MangoBondPool.sol:MangoBondPool",
        "label": "_locked",
        "offset": 0,
        "slot": "1",
        "type": "t_uint256"
      },
      {
        "astId": 1904,
        "contract": "contracts/MangoBondPool.sol:MangoBondPool",
        "label": "minBonus",
        "offset": 0,
        "slot": "2",
        "type": "t_uint8"
      },
      {
        "astId": 1907,
        "contract": "contracts/MangoBondPool.sol:MangoBondPool",
        "label": "maxBonus",
        "offset": 1,
        "slot": "2",
        "type": "t_uint8"
      },
      {
        "astId": 1910,
        "contract": "contracts/MangoBondPool.sol:MangoBondPool",
        "label": "lastReleasedAt",
        "offset": 2,
        "slot": "2",
        "type": "t_uint64"
      },
      {
        "astId": 1913,
        "contract": "contracts/MangoBondPool.sol:MangoBondPool",
        "label": "sampleSize",
        "offset": 10,
        "slot": "2",
        "type": "t_uint16"
      },
      {
        "astId": 1916,
        "contract": "contracts/MangoBondPool.sol:MangoBondPool",
        "label": "lastRecordedReleasedAmount",
        "offset": 0,
        "slot": "3",
        "type": "t_uint256"
      },
      {
        "astId": 1919,
        "contract": "contracts/MangoBondPool.sol:MangoBondPool",
        "label": "soldAmount",
        "offset": 0,
        "slot": "4",
        "type": "t_uint256"
      },
      {
        "astId": 1924,
        "contract": "contracts/MangoBondPool.sol:MangoBondPool",
        "label": "_bonds",
        "offset": 0,
        "slot": "5",
        "type": "t_mapping(t_uint256,t_struct(Bond)4641_storage)"
      }
    ],
    "types": {
      "t_address": {
        "encoding": "inplace",
        "label": "address",
        "numberOfBytes": "20"
      },
      "t_bool": {
        "encoding": "inplace",
        "label": "bool",
        "numberOfBytes": "1"
      },
      "t_mapping(t_uint256,t_struct(Bond)4641_storage)": {
        "encoding": "mapping",
        "key": "t_uint256",
        "label": "mapping(uint256 => struct IBondPool.Bond)",
        "numberOfBytes": "32",
        "value": "t_struct(Bond)4641_storage"
      },
      "t_struct(Bond)4641_storage": {
        "encoding": "inplace",
        "label": "struct IBondPool.Bond",
        "members": [
          {
            "astId": 4628,
            "contract": "contracts/MangoBondPool.sol:MangoBondPool",
            "label": "spentRawAmount",
            "offset": 0,
            "slot": "0",
            "type": "t_uint64"
          },
          {
            "astId": 4630,
            "contract": "contracts/MangoBondPool.sol:MangoBondPool",
            "label": "purchasedRawAmount",
            "offset": 8,
            "slot": "0",
            "type": "t_uint64"
          },
          {
            "astId": 4632,
            "contract": "contracts/MangoBondPool.sol:MangoBondPool",
            "label": "claimedRawAmount",
            "offset": 16,
            "slot": "0",
            "type": "t_uint64"
          },
          {
            "astId": 4634,
            "contract": "contracts/MangoBondPool.sol:MangoBondPool",
            "label": "canceledRawAmount",
            "offset": 24,
            "slot": "0",
            "type": "t_uint64"
          },
          {
            "astId": 4636,
            "contract": "contracts/MangoBondPool.sol:MangoBondPool",
            "label": "owner",
            "offset": 0,
            "slot": "1",
            "type": "t_address"
          },
          {
            "astId": 4638,
            "contract": "contracts/MangoBondPool.sol:MangoBondPool",
            "label": "bonus",
            "offset": 20,
            "slot": "1",
            "type": "t_uint8"
          },
          {
            "astId": 4640,
            "contract": "contracts/MangoBondPool.sol:MangoBondPool",
            "label": "isValid",
            "offset": 21,
            "slot": "1",
            "type": "t_bool"
          }
        ],
        "numberOfBytes": "64"
      },
      "t_uint16": {
        "encoding": "inplace",
        "label": "uint16",
        "numberOfBytes": "2"
      },
      "t_uint256": {
        "encoding": "inplace",
        "label": "uint256",
        "numberOfBytes": "32"
      },
      "t_uint64": {
        "encoding": "inplace",
        "label": "uint64",
        "numberOfBytes": "8"
      },
      "t_uint8": {
        "encoding": "inplace",
        "label": "uint8",
        "numberOfBytes": "1"
      }
    }
  }
}