{
  "address": "0x6BDBc0d881dC243a0d803EC5BaA1aa26Ac1598A2",
  "abi": [
    {
      "inputs": [
        {
          "internalType": "address",
          "name": "stakedToken_",
          "type": "address"
        },
        {
          "internalType": "address",
          "name": "rewardToken_",
          "type": "address"
        },
        {
          "internalType": "address",
          "name": "bondPool_",
          "type": "address"
        }
      ],
      "stateMutability": "nonpayable",
      "type": "constructor"
    },
    {
      "inputs": [
        {
          "internalType": "uint256",
          "name": "errorCode",
          "type": "uint256"
        }
      ],
      "name": "MangoError",
      "type": "error"
    },
    {
      "anonymous": false,
      "inputs": [
        {
          "indexed": false,
          "internalType": "uint256",
          "name": "amount",
          "type": "uint256"
        },
        {
          "indexed": false,
          "internalType": "uint256",
          "name": "elapsed",
          "type": "uint256"
        }
      ],
      "name": "Distribute",
      "type": "event"
    },
    {
      "anonymous": false,
      "inputs": [
        {
          "indexed": false,
          "internalType": "uint8",
          "name": "version",
          "type": "uint8"
        }
      ],
      "name": "Initialized",
      "type": "event"
    },
    {
      "anonymous": false,
      "inputs": [
        {
          "indexed": true,
          "internalType": "address",
          "name": "previousOwner",
          "type": "address"
        },
        {
          "indexed": true,
          "internalType": "address",
          "name": "newOwner",
          "type": "address"
        }
      ],
      "name": "OwnershipTransferred",
      "type": "event"
    },
    {
      "anonymous": false,
      "inputs": [
        {
          "indexed": true,
          "internalType": "address",
          "name": "sender",
          "type": "address"
        },
        {
          "indexed": false,
          "internalType": "uint256",
          "name": "amount",
          "type": "uint256"
        }
      ],
      "name": "Receive",
      "type": "event"
    },
    {
      "inputs": [],
      "name": "distribute",
      "outputs": [],
      "stateMutability": "nonpayable",
      "type": "function"
    },
    {
      "inputs": [],
      "name": "getDistributableAmount",
      "outputs": [
        {
          "internalType": "uint256",
          "name": "",
          "type": "uint256"
        }
      ],
      "stateMutability": "view",
      "type": "function"
    },
    {
      "inputs": [
        {
          "internalType": "uint256",
          "name": "startsAt",
          "type": "uint256"
        }
      ],
      "name": "initialize",
      "outputs": [],
      "stateMutability": "nonpayable",
      "type": "function"
    },
    {
      "inputs": [],
      "name": "lastDistributedAt",
      "outputs": [
        {
          "internalType": "uint256",
          "name": "",
          "type": "uint256"
        }
      ],
      "stateMutability": "view",
      "type": "function"
    },
    {
      "inputs": [],
      "name": "owner",
      "outputs": [
        {
          "internalType": "address",
          "name": "",
          "type": "address"
        }
      ],
      "stateMutability": "view",
      "type": "function"
    },
    {
      "inputs": [],
      "name": "pause",
      "outputs": [],
      "stateMutability": "nonpayable",
      "type": "function"
    },
    {
      "inputs": [],
      "name": "paused",
      "outputs": [
        {
          "internalType": "bool",
          "name": "",
          "type": "bool"
        }
      ],
      "stateMutability": "view",
      "type": "function"
    },
    {
      "inputs": [
        {
          "internalType": "uint256",
          "name": "amount",
          "type": "uint256"
        }
      ],
      "name": "receiveToken",
      "outputs": [],
      "stateMutability": "nonpayable",
      "type": "function"
    },
    {
      "inputs": [],
      "name": "receivingToken",
      "outputs": [
        {
          "internalType": "address",
          "name": "",
          "type": "address"
        }
      ],
      "stateMutability": "view",
      "type": "function"
    },
    {
      "inputs": [],
      "name": "renounceOwnership",
      "outputs": [],
      "stateMutability": "nonpayable",
      "type": "function"
    },
    {
      "inputs": [],
      "name": "rewardRate",
      "outputs": [
        {
          "internalType": "uint256",
          "name": "",
          "type": "uint256"
        }
      ],
      "stateMutability": "view",
      "type": "function"
    },
    {
      "inputs": [],
      "name": "rewardToken",
      "outputs": [
        {
          "internalType": "address",
          "name": "",
          "type": "address"
        }
      ],
      "stateMutability": "view",
      "type": "function"
    },
    {
      "inputs": [],
      "name": "setApprovals",
      "outputs": [],
      "stateMutability": "nonpayable",
      "type": "function"
    },
    {
      "inputs": [],
      "name": "stakedToken",
      "outputs": [
        {
          "internalType": "address",
          "name": "",
          "type": "address"
        }
      ],
      "stateMutability": "view",
      "type": "function"
    },
    {
      "inputs": [
        {
          "internalType": "address",
          "name": "newOwner",
          "type": "address"
        }
      ],
      "name": "transferOwnership",
      "outputs": [],
      "stateMutability": "nonpayable",
      "type": "function"
    },
    {
      "inputs": [],
      "name": "unpause",
      "outputs": [],
      "stateMutability": "nonpayable",
      "type": "function"
    },
    {
      "inputs": [
        {
          "internalType": "address",
          "name": "token",
          "type": "address"
        },
        {
          "internalType": "address",
          "name": "to",
          "type": "address"
        }
      ],
      "name": "withdrawLostERC20",
      "outputs": [],
      "stateMutability": "nonpayable",
      "type": "function"
    },
    {
      "inputs": [
        {
          "internalType": "uint256",
          "name": "amount",
          "type": "uint256"
        },
        {
          "internalType": "address",
          "name": "to",
          "type": "address"
        }
      ],
      "name": "withdrawRewardByBondPool",
      "outputs": [],
      "stateMutability": "nonpayable",
      "type": "function"
    }
  ],
  "transactionHash": "0x348fa92eb2e7e447092b3e3432c02e6a9863375a1a5fdf196b67409db66cbd89",
  "args": [
    "0xdd38211f2973dc41cd6fC4DB681596Fd6118D894",
    "0xA8CE8aee21bC2A48a5EF670afCc9274C7bbbC035",
    "0x0C39A7993ab849AECBe9ABe6900ED496EC3F5dC0"
  ],
  "numDeployments": 2,
  "solcInputHash": "89d591f651a023808c2d23db4b585fd9",
  "bytecode": "0x610100604052600180553480156200001657600080fd5b50604051620015c0380380620015c0833981016040819052620000399162000165565b6200004433620000ed565b6001600160a01b03808416608052821660a08190526040805163313ce56760e01b8152905163313ce567916004808201926020929091908290030181865afa15801562000095573d6000803e3d6000fd5b505050506040513d601f19601f82011682018060405250810190620000bb9190620001af565b620000c8906012620001f1565b620000d590600a62000310565b60c0526001600160a01b031660e05250620003219050565b600080546001600160a01b038381166201000081810262010000600160b01b0319851617855560405193049190911692909183917f8be0079c531659141344cd1fd0a4f28419497f9722a3daafe3b4186f6b6457e091a35050565b80516001600160a01b03811681146200016057600080fd5b919050565b6000806000606084860312156200017b57600080fd5b620001868462000148565b9250620001966020850162000148565b9150620001a66040850162000148565b90509250925092565b600060208284031215620001c257600080fd5b815160ff81168114620001d457600080fd5b9392505050565b634e487b7160e01b600052601160045260246000fd5b60ff82811682821603908111156200020d576200020d620001db565b92915050565b600181815b8085111562000254578160001904821115620002385762000238620001db565b808516156200024657918102915b93841c939080029062000218565b509250929050565b6000826200026d575060016200020d565b816200027c575060006200020d565b8160018114620002955760028114620002a057620002c0565b60019150506200020d565b60ff841115620002b457620002b4620001db565b50506001821b6200020d565b5060208310610133831016604e8410600b8410161715620002e5575081810a6200020d565b620002f1838362000213565b8060001904821115620003085762000308620001db565b029392505050565b6000620001d460ff8416836200025c565b60805160a05160c05160e051611211620003af600039600061034a015260006103de01526000818161013d01528181610275015281816102c801528181610381015281816104080152818161049601528181610597015281816105ec0152818161067f01526107a1015260008181610233015281816105b90152818161060e01526107d601526112116000f3fe608060405234801561001057600080fd5b50600436106101365760003560e01c80638757b15b116100b2578063e4fc6b6d11610081578063f7c618c111610066578063f7c618c114610270578063fe4b84df14610297578063feb04f7c146102aa57600080fd5b8063e4fc6b6d14610255578063f2fde38b1461025d57600080fd5b80638757b15b146102075780638da5cb5b1461020f57806395a0b59614610226578063cc7a262e1461022e57600080fd5b806364253474116101095780637b0a47ee116100ee5780637b0a47ee146101d65780638284511b146101ec5780638456cb59146101ff57600080fd5b806364253474146101bb578063715018a6146101ce57600080fd5b8063038ad0f41461013b57806337df00c91461017a5780633f4ba83a1461018f5780635c975abb14610197575b600080fd5b7f00000000000000000000000000000000000000000000000000000000000000005b6040516001600160a01b0390911681526020015b60405180910390f35b61018d610188366004611018565b6102b3565b005b61018d610328565b6000546101ab90600160b01b900460ff1681565b6040519015158152602001610171565b61018d6101c936600461104d565b61033f565b61018d6103ac565b6101de6103c0565b604051908152602001610171565b61018d6101fa366004611079565b61048c565b61018d61056d565b61018d61058a565b6000546201000090046001600160a01b031661015d565b6101de610635565b61015d7f000000000000000000000000000000000000000000000000000000000000000081565b61018d610704565b61018d61026b3660046110a3565b6108a0565b61015d7f000000000000000000000000000000000000000000000000000000000000000081565b61018d6102a5366004611018565b610930565b6101de60025481565b6102bb610704565b6102f06001600160a01b037f000000000000000000000000000000000000000000000000000000000000000016333084610a67565b60405181815233907fd6717f327e0cb88b4a97a7f67a453e9258252c34937ccbdd86de7cb840e7def39060200160405180910390a250565b610330610b1e565b6000805460ff60b01b19169055565b336001600160a01b037f0000000000000000000000000000000000000000000000000000000000000000161461037457600080fd5b6103a86001600160a01b037f0000000000000000000000000000000000000000000000000000000000000000168284610b7f565b5050565b6103b4610b1e565b6103be6000610bcd565b565b6040516370a0823160e01b81523060048201526000906305265c00907f0000000000000000000000000000000000000000000000000000000000000000906001600160a01b037f000000000000000000000000000000000000000000000000000000000000000016906370a0823190602401602060405180830381865afa15801561044f573d6000803e3d6000fd5b505050506040513d601f19601f8201168201806040525081019061047391906110c5565b61047d91906110f4565b6104879190611111565b905090565b610494610b1e565b7f00000000000000000000000000000000000000000000000000000000000000006001600160a01b0316826001600160a01b0316036104ee57604051630bc320f560e01b8152600760048201526024015b60405180910390fd5b6040516370a0823160e01b81523060048201526103a89082906001600160a01b038516906370a0823190602401602060405180830381865afa158015610538573d6000803e3d6000fd5b505050506040513d601f19601f8201168201806040525081019061055c91906110c5565b6001600160a01b0385169190610b7f565b610575610b1e565b6000805460ff60b01b1916600160b01b179055565b6105df6001600160a01b037f0000000000000000000000000000000000000000000000000000000000000000167f00000000000000000000000000000000000000000000000000000000000000006000610c3e565b6103be6001600160a01b037f0000000000000000000000000000000000000000000000000000000000000000167f0000000000000000000000000000000000000000000000000000000000000000600019610c3e565b60006002544210156106475750600090565b6000600254426106579190611133565b6040516370a0823160e01b81523060048201529091506305265c009082906001600160a01b037f000000000000000000000000000000000000000000000000000000000000000016906370a0823190602401602060405180830381865afa1580156106c6573d6000803e3d6000fd5b505050506040513d601f19601f820116820180604052508101906106ea91906110c5565b6106f491906110f4565b6106fe9190611111565b91505090565b60015460011461072a57604051630bc320f560e01b8152600260048201526024016104e5565b6002600155600054600160b01b900460ff161561075d57604051630bc320f560e01b8152600160048201526024016104e5565b60025442111561089a576000610771610635565b6040517f5a18d0220000000000000000000000000000000000000000000000000000000081526001600160a01b037f000000000000000000000000000000000000000000000000000000000000000081166004830152602482018390529192506000917f00000000000000000000000000000000000000000000000000000000000000001690635a18d022906044016020604051808303816000875af115801561081f573d6000803e3d6000fd5b505050506040513d601f19601f8201168201806040525081019061084391906110c5565b6002805442918290559192507f9583d1ebe40875c54dbd2e47e758124146366bba1b4a0adf6f4b15a49f896e2190839061087e908490611133565b6040805192835260208301919091520160405180910390a15050505b60018055565b6108a8610b1e565b6001600160a01b0381166109245760405162461bcd60e51b815260206004820152602660248201527f4f776e61626c653a206e6577206f776e657220697320746865207a65726f206160448201527f646472657373000000000000000000000000000000000000000000000000000060648201526084016104e5565b61092d81610bcd565b50565b600054610100900460ff16158080156109505750600054600160ff909116105b8061096a5750303b15801561096a575060005460ff166001145b6109dc5760405162461bcd60e51b815260206004820152602e60248201527f496e697469616c697a61626c653a20636f6e747261637420697320616c72656160448201527f647920696e697469616c697a656400000000000000000000000000000000000060648201526084016104e5565b6000805460ff1916600117905580156109ff576000805461ff0019166101001790555b610a0860018055565b610a1133610bcd565b6002829055610a1e61058a565b80156103a8576000805461ff0019169055604051600181527f7f26b83ff96e1f2b6a682f133852f6798a09c465da95921460cefb38474024989060200160405180910390a15050565b6040516001600160a01b0380851660248301528316604482015260648101829052610b189085907f23b872dd00000000000000000000000000000000000000000000000000000000906084015b60408051601f198184030181529190526020810180517bffffffffffffffffffffffffffffffffffffffffffffffffffffffff167fffffffff0000000000000000000000000000000000000000000000000000000090931692909217909152610d8c565b50505050565b6000546001600160a01b03620100009091041633146103be5760405162461bcd60e51b815260206004820181905260248201527f4f776e61626c653a2063616c6c6572206973206e6f7420746865206f776e657260448201526064016104e5565b6040516001600160a01b038316602482015260448101829052610bc89084907fa9059cbb0000000000000000000000000000000000000000000000000000000090606401610ab4565b505050565b600080546001600160a01b03838116620100008181027fffffffffffffffffffff0000000000000000000000000000000000000000ffff851617855560405193049190911692909183917f8be0079c531659141344cd1fd0a4f28419497f9722a3daafe3b4186f6b6457e091a35050565b801580610cd157506040517fdd62ed3e0000000000000000000000000000000000000000000000000000000081523060048201526001600160a01b03838116602483015284169063dd62ed3e90604401602060405180830381865afa158015610cab573d6000803e3d6000fd5b505050506040513d601f19601f82011682018060405250810190610ccf91906110c5565b155b610d435760405162461bcd60e51b815260206004820152603660248201527f5361666545524332303a20617070726f76652066726f6d206e6f6e2d7a65726f60448201527f20746f206e6f6e2d7a65726f20616c6c6f77616e63650000000000000000000060648201526084016104e5565b6040516001600160a01b038316602482015260448101829052610bc89084907f095ea7b30000000000000000000000000000000000000000000000000000000090606401610ab4565b6000610de1826040518060400160405280602081526020017f5361666545524332303a206c6f772d6c6576656c2063616c6c206661696c6564815250856001600160a01b0316610e719092919063ffffffff16565b805190915015610bc85780806020019051810190610dff9190611146565b610bc85760405162461bcd60e51b815260206004820152602a60248201527f5361666545524332303a204552433230206f7065726174696f6e20646964206e60448201527f6f7420737563636565640000000000000000000000000000000000000000000060648201526084016104e5565b6060610e808484600085610e88565b949350505050565b606082471015610f005760405162461bcd60e51b815260206004820152602660248201527f416464726573733a20696e73756666696369656e742062616c616e636520666f60448201527f722063616c6c000000000000000000000000000000000000000000000000000060648201526084016104e5565b600080866001600160a01b03168587604051610f1c919061118c565b60006040518083038185875af1925050503d8060008114610f59576040519150601f19603f3d011682016040523d82523d6000602084013e610f5e565b606091505b5091509150610f6f87838387610f7a565b979650505050505050565b60608315610fe9578251600003610fe2576001600160a01b0385163b610fe25760405162461bcd60e51b815260206004820152601d60248201527f416464726573733a2063616c6c20746f206e6f6e2d636f6e747261637400000060448201526064016104e5565b5081610e80565b610e808383815115610ffe5781518083602001fd5b8060405162461bcd60e51b81526004016104e591906111a8565b60006020828403121561102a57600080fd5b5035919050565b80356001600160a01b038116811461104857600080fd5b919050565b6000806040838503121561106057600080fd5b8235915061107060208401611031565b90509250929050565b6000806040838503121561108c57600080fd5b61109583611031565b915061107060208401611031565b6000602082840312156110b557600080fd5b6110be82611031565b9392505050565b6000602082840312156110d757600080fd5b5051919050565b634e487b7160e01b600052601160045260246000fd5b808202811582820484141761110b5761110b6110de565b92915050565b60008261112e57634e487b7160e01b600052601260045260246000fd5b500490565b8181038181111561110b5761110b6110de565b60006020828403121561115857600080fd5b815180151581146110be57600080fd5b60005b8381101561118357818101518382015260200161116b565b50506000910152565b6000825161119e818460208701611168565b9190910192915050565b60208152600082518060208401526111c7816040850160208701611168565b601f01601f1916919091016040019291505056fea2646970667358221220de97866e606ee8812438680444915eed54cc0315b9d6e1b91b021b9d33bf10b264736f6c63430008110033",
  "devdoc": {
    "kind": "dev",
    "methods": {
      "owner()": {
        "details": "Returns the address of the current owner."
      },
      "receiveToken(uint256)": {
        "params": {
          "amount": "The amount of tokens to be received."
        }
      },
      "receivingToken()": {
        "returns": {
          "_0": "The address of the receivable token."
        }
      },
      "renounceOwnership()": {
        "details": "Leaves the contract without owner. It will not be possible to call `onlyOwner` functions anymore. Can only be called by the current owner. NOTE: Renouncing ownership will leave the contract without an owner, thereby removing any functionality that is only available to the owner."
      },
      "transferOwnership(address)": {
        "details": "Transfers ownership of the contract to a new account (`newOwner`). Can only be called by the current owner."
      }
    },
    "version": 1
  },
  "userdoc": {
    "events": {
      "Receive(address,uint256)": {
        "notice": "Emitted when tokens are received."
      }
    },
    "kind": "user",
    "methods": {
      "receiveToken(uint256)": {
        "notice": "Allows the contract to receive tokens."
      },
      "receivingToken()": {
        "notice": "Returns the address of the receivable token."
      }
    },
    "version": 1
  },
  "storageLayout": {
    "storage": [
      {
        "astId": 119,
        "contract": "contracts/MangoTreasury.sol:MangoTreasury",
        "label": "_initialized",
        "offset": 0,
        "slot": "0",
        "type": "t_uint8"
      },
      {
        "astId": 122,
        "contract": "contracts/MangoTreasury.sol:MangoTreasury",
        "label": "_initializing",
        "offset": 1,
        "slot": "0",
        "type": "t_bool"
      },
      {
        "astId": 7,
        "contract": "contracts/MangoTreasury.sol:MangoTreasury",
        "label": "_owner",
        "offset": 2,
        "slot": "0",
        "type": "t_address"
      },
      {
        "astId": 6393,
        "contract": "contracts/MangoTreasury.sol:MangoTreasury",
        "label": "paused",
        "offset": 22,
        "slot": "0",
        "type": "t_bool"
      },
      {
        "astId": 6450,
        "contract": "contracts/MangoTreasury.sol:MangoTreasury",
        "label": "_locked",
        "offset": 0,
        "slot": "1",
        "type": "t_uint256"
      },
      {
        "astId": 5032,
        "contract": "contracts/MangoTreasury.sol:MangoTreasury",
        "label": "lastDistributedAt",
        "offset": 0,
        "slot": "2",
        "type": "t_uint256"
      }
    ],
    "types": {
      "t_address": {
        "encoding": "inplace",
        "label": "address",
        "numberOfBytes": "20"
      },
      "t_bool": {
        "encoding": "inplace",
        "label": "bool",
        "numberOfBytes": "1"
      },
      "t_uint256": {
        "encoding": "inplace",
        "label": "uint256",
        "numberOfBytes": "32"
      },
      "t_uint8": {
        "encoding": "inplace",
        "label": "uint8",
        "numberOfBytes": "1"
      }
    }
  }
}