{
  "address": "0x523b4e6BAEdFD92fF6feD850CEF9636a41481D29",
  "abi": [
    {
      "inputs": [
        {
          "internalType": "address",
          "name": "treasury_",
          "type": "address"
        },
        {
          "internalType": "address",
          "name": "burnAddress_",
          "type": "address"
        },
        {
          "internalType": "address",
          "name": "underlyingToken_",
          "type": "address"
        },
        {
          "internalType": "uint256",
          "name": "cancelFee_",
          "type": "uint256"
        },
        {
          "internalType": "address",
          "name": "market_",
          "type": "address"
        },
        {
          "internalType": "uint256",
          "name": "releaseRate_",
          "type": "uint256"
        },
        {
          "internalType": "uint256",
          "name": "maxReleaseAmount_",
          "type": "uint256"
        },
        {
          "internalType": "uint16",
          "name": "initialBondPriceIndex_",
          "type": "uint16"
        }
      ],
      "stateMutability": "nonpayable",
      "type": "constructor"
    },
    {
      "inputs": [
        {
          "internalType": "uint256",
          "name": "errorCode",
          "type": "uint256"
        }
      ],
      "name": "MangoError",
      "type": "error"
    },
    {
      "anonymous": false,
      "inputs": [
        {
          "indexed": false,
          "internalType": "uint8",
          "name": "version",
          "type": "uint8"
        }
      ],
      "name": "Initialized",
      "type": "event"
    },
    {
      "anonymous": false,
      "inputs": [
        {
          "indexed": true,
          "internalType": "address",
          "name": "previousOwner",
          "type": "address"
        },
        {
          "indexed": true,
          "internalType": "address",
          "name": "newOwner",
          "type": "address"
        }
      ],
      "name": "OwnershipTransferred",
      "type": "event"
    },
    {
      "anonymous": false,
      "inputs": [
        {
          "indexed": true,
          "internalType": "address",
          "name": "payer",
          "type": "address"
        },
        {
          "indexed": true,
          "internalType": "address",
          "name": "to",
          "type": "address"
        },
        {
          "indexed": true,
          "internalType": "uint256",
          "name": "orderId",
          "type": "uint256"
        },
        {
          "indexed": false,
          "internalType": "uint256",
          "name": "spentAmount",
          "type": "uint256"
        },
        {
          "indexed": false,
          "internalType": "uint8",
          "name": "bonus",
          "type": "uint8"
        },
        {
          "indexed": false,
          "internalType": "uint256",
          "name": "bondedAmount",
          "type": "uint256"
        }
      ],
      "name": "PurchaseBond",
      "type": "event"
    },
    {
      "inputs": [],
      "name": "availableAmount",
      "outputs": [
        {
          "internalType": "uint256",
          "name": "",
          "type": "uint256"
        }
      ],
      "stateMutability": "view",
      "type": "function"
    },
    {
      "inputs": [
        {
          "internalType": "uint256",
          "name": "orderId",
          "type": "uint256"
        }
      ],
      "name": "bondInfo",
      "outputs": [
        {
          "components": [
            {
              "internalType": "uint256",
              "name": "orderId",
              "type": "uint256"
            },
            {
              "internalType": "address",
              "name": "owner",
              "type": "address"
            },
            {
              "internalType": "uint8",
              "name": "bonus",
              "type": "uint8"
            },
            {
              "internalType": "bool",
              "name": "isValid",
              "type": "bool"
            },
            {
              "internalType": "uint256",
              "name": "spentAmount",
              "type": "uint256"
            },
            {
              "internalType": "uint256",
              "name": "bondedAmount",
              "type": "uint256"
            },
            {
              "internalType": "uint256",
              "name": "claimedAmount",
              "type": "uint256"
            },
            {
              "internalType": "uint256",
              "name": "canceledAmount",
              "type": "uint256"
            }
          ],
          "internalType": "struct IBondPool.BondInfo",
          "name": "",
          "type": "tuple"
        }
      ],
      "stateMutability": "view",
      "type": "function"
    },
    {
      "inputs": [
        {
          "internalType": "uint256[]",
          "name": "orderIds",
          "type": "uint256[]"
        }
      ],
      "name": "bondInfos",
      "outputs": [
        {
          "components": [
            {
              "internalType": "uint256",
              "name": "orderId",
              "type": "uint256"
            },
            {
              "internalType": "address",
              "name": "owner",
              "type": "address"
            },
            {
              "internalType": "uint8",
              "name": "bonus",
              "type": "uint8"
            },
            {
              "internalType": "bool",
              "name": "isValid",
              "type": "bool"
            },
            {
              "internalType": "uint256",
              "name": "spentAmount",
              "type": "uint256"
            },
            {
              "internalType": "uint256",
              "name": "bondedAmount",
              "type": "uint256"
            },
            {
              "internalType": "uint256",
              "name": "claimedAmount",
              "type": "uint256"
            },
            {
              "internalType": "uint256",
              "name": "canceledAmount",
              "type": "uint256"
            }
          ],
          "internalType": "struct IBondPool.BondInfo[]",
          "name": "infos",
          "type": "tuple[]"
        }
      ],
      "stateMutability": "view",
      "type": "function"
    },
    {
      "inputs": [
        {
          "internalType": "uint256[]",
          "name": "orderIds",
          "type": "uint256[]"
        }
      ],
      "name": "breakBonds",
      "outputs": [],
      "stateMutability": "nonpayable",
      "type": "function"
    },
    {
      "inputs": [],
      "name": "burnAddress",
      "outputs": [
        {
          "internalType": "address",
          "name": "",
          "type": "address"
        }
      ],
      "stateMutability": "view",
      "type": "function"
    },
    {
      "inputs": [],
      "name": "cancelFee",
      "outputs": [
        {
          "internalType": "uint256",
          "name": "",
          "type": "uint256"
        }
      ],
      "stateMutability": "view",
      "type": "function"
    },
    {
      "inputs": [
        {
          "internalType": "uint8",
          "name": "min",
          "type": "uint8"
        },
        {
          "internalType": "uint8",
          "name": "max",
          "type": "uint8"
        }
      ],
      "name": "changeAvailableBonusRange",
      "outputs": [],
      "stateMutability": "nonpayable",
      "type": "function"
    },
    {
      "inputs": [
        {
          "internalType": "uint16",
          "name": "newSampleSize",
          "type": "uint16"
        }
      ],
      "name": "changePriceSampleSize",
      "outputs": [],
      "stateMutability": "nonpayable",
      "type": "function"
    },
    {
      "inputs": [
        {
          "internalType": "uint256[]",
          "name": "orderIds",
          "type": "uint256[]"
        }
      ],
      "name": "claim",
      "outputs": [],
      "stateMutability": "nonpayable",
      "type": "function"
    },
    {
      "inputs": [
        {
          "internalType": "uint256",
          "name": "orderId",
          "type": "uint256"
        }
      ],
      "name": "claimable",
      "outputs": [
        {
          "internalType": "uint256",
          "name": "claimableAmount",
          "type": "uint256"
        }
      ],
      "stateMutability": "view",
      "type": "function"
    },
    {
      "inputs": [
        {
          "internalType": "address",
          "name": "inputToken",
          "type": "address"
        },
        {
          "internalType": "address",
          "name": "outputToken",
          "type": "address"
        },
        {
          "internalType": "uint256",
          "name": "inputAmount",
          "type": "uint256"
        },
        {
          "internalType": "uint256",
          "name": "",
          "type": "uint256"
        },
        {
          "internalType": "bytes",
          "name": "",
          "type": "bytes"
        }
      ],
      "name": "cloberMarketSwapCallback",
      "outputs": [],
      "stateMutability": "payable",
      "type": "function"
    },
    {
      "inputs": [
        {
          "internalType": "uint256",
          "name": "spentAmount",
          "type": "uint256"
        },
        {
          "internalType": "uint8",
          "name": "bonus",
          "type": "uint8"
        }
      ],
      "name": "expectedBondAmount",
      "outputs": [
        {
          "internalType": "uint256",
          "name": "amount",
          "type": "uint256"
        }
      ],
      "stateMutability": "view",
      "type": "function"
    },
    {
      "inputs": [],
      "name": "getBasisPrice",
      "outputs": [
        {
          "internalType": "uint256",
          "name": "price",
          "type": "uint256"
        }
      ],
      "stateMutability": "view",
      "type": "function"
    },
    {
      "inputs": [],
      "name": "getBasisPriceIndex",
      "outputs": [
        {
          "internalType": "uint16",
          "name": "priceIndex",
          "type": "uint16"
        }
      ],
      "stateMutability": "view",
      "type": "function"
    },
    {
      "inputs": [],
      "name": "initialBondPriceIndex",
      "outputs": [
        {
          "internalType": "uint16",
          "name": "",
          "type": "uint16"
        }
      ],
      "stateMutability": "view",
      "type": "function"
    },
    {
      "inputs": [
        {
          "internalType": "uint8",
          "name": "minBonus_",
          "type": "uint8"
        },
        {
          "internalType": "uint8",
          "name": "maxBonus_",
          "type": "uint8"
        },
        {
          "internalType": "uint64",
          "name": "startAt_",
          "type": "uint64"
        },
        {
          "internalType": "uint16",
          "name": "sampleSize_",
          "type": "uint16"
        }
      ],
      "name": "initialize",
      "outputs": [],
      "stateMutability": "nonpayable",
      "type": "function"
    },
    {
      "inputs": [],
      "name": "lastRecordedReleasedAmount",
      "outputs": [
        {
          "internalType": "uint256",
          "name": "",
          "type": "uint256"
        }
      ],
      "stateMutability": "view",
      "type": "function"
    },
    {
      "inputs": [],
      "name": "lastReleasedAt",
      "outputs": [
        {
          "internalType": "uint64",
          "name": "",
          "type": "uint64"
        }
      ],
      "stateMutability": "view",
      "type": "function"
    },
    {
      "inputs": [],
      "name": "market",
      "outputs": [
        {
          "internalType": "address",
          "name": "",
          "type": "address"
        }
      ],
      "stateMutability": "view",
      "type": "function"
    },
    {
      "inputs": [],
      "name": "maxBonus",
      "outputs": [
        {
          "internalType": "uint8",
          "name": "",
          "type": "uint8"
        }
      ],
      "stateMutability": "view",
      "type": "function"
    },
    {
      "inputs": [],
      "name": "maxReleaseAmount",
      "outputs": [
        {
          "internalType": "uint256",
          "name": "",
          "type": "uint256"
        }
      ],
      "stateMutability": "view",
      "type": "function"
    },
    {
      "inputs": [],
      "name": "minBonus",
      "outputs": [
        {
          "internalType": "uint8",
          "name": "",
          "type": "uint8"
        }
      ],
      "stateMutability": "view",
      "type": "function"
    },
    {
      "inputs": [],
      "name": "owner",
      "outputs": [
        {
          "internalType": "address",
          "name": "",
          "type": "address"
        }
      ],
      "stateMutability": "view",
      "type": "function"
    },
    {
      "inputs": [
        {
          "internalType": "uint256",
          "name": "orderId",
          "type": "uint256"
        }
      ],
      "name": "ownerOf",
      "outputs": [
        {
          "internalType": "address",
          "name": "",
          "type": "address"
        }
      ],
      "stateMutability": "view",
      "type": "function"
    },
    {
      "inputs": [
        {
          "internalType": "uint256[]",
          "name": "orderIds",
          "type": "uint256[]"
        }
      ],
      "name": "ownersOf",
      "outputs": [
        {
          "components": [
            {
              "internalType": "address",
              "name": "owner",
              "type": "address"
            },
            {
              "internalType": "uint256",
              "name": "orderId",
              "type": "uint256"
            }
          ],
          "internalType": "struct IBondPool.BondOwner[]",
          "name": "owners",
          "type": "tuple[]"
        }
      ],
      "stateMutability": "view",
      "type": "function"
    },
    {
      "inputs": [],
      "name": "pause",
      "outputs": [],
      "stateMutability": "nonpayable",
      "type": "function"
    },
    {
      "inputs": [],
      "name": "paused",
      "outputs": [
        {
          "internalType": "bool",
          "name": "",
          "type": "bool"
        }
      ],
      "stateMutability": "view",
      "type": "function"
    },
    {
      "inputs": [
        {
          "internalType": "uint256",
          "name": "spentAmount",
          "type": "uint256"
        },
        {
          "internalType": "uint8",
          "name": "bonus",
          "type": "uint8"
        },
        {
          "internalType": "address",
          "name": "to",
          "type": "address"
        },
        {
          "internalType": "uint16",
          "name": "limitPriceIndex",
          "type": "uint16"
        }
      ],
      "name": "purchaseBond",
      "outputs": [
        {
          "internalType": "uint256",
          "name": "orderId",
          "type": "uint256"
        }
      ],
      "stateMutability": "nonpayable",
      "type": "function"
    },
    {
      "inputs": [],
      "name": "quoteToken",
      "outputs": [
        {
          "internalType": "address",
          "name": "",
          "type": "address"
        }
      ],
      "stateMutability": "view",
      "type": "function"
    },
    {
      "inputs": [],
      "name": "releaseRate",
      "outputs": [
        {
          "internalType": "uint256",
          "name": "",
          "type": "uint256"
        }
      ],
      "stateMutability": "view",
      "type": "function"
    },
    {
      "inputs": [],
      "name": "releasedAmount",
      "outputs": [
        {
          "internalType": "uint256",
          "name": "newReleasedAmount",
          "type": "uint256"
        }
      ],
      "stateMutability": "view",
      "type": "function"
    },
    {
      "inputs": [],
      "name": "renounceOwnership",
      "outputs": [],
      "stateMutability": "nonpayable",
      "type": "function"
    },
    {
      "inputs": [],
      "name": "sampleSize",
      "outputs": [
        {
          "internalType": "uint16",
          "name": "",
          "type": "uint16"
        }
      ],
      "stateMutability": "view",
      "type": "function"
    },
    {
      "inputs": [],
      "name": "setApprovals",
      "outputs": [],
      "stateMutability": "nonpayable",
      "type": "function"
    },
    {
      "inputs": [],
      "name": "soldAmount",
      "outputs": [
        {
          "internalType": "uint256",
          "name": "",
          "type": "uint256"
        }
      ],
      "stateMutability": "view",
      "type": "function"
    },
    {
      "inputs": [
        {
          "internalType": "address",
          "name": "newOwner",
          "type": "address"
        }
      ],
      "name": "transferOwnership",
      "outputs": [],
      "stateMutability": "nonpayable",
      "type": "function"
    },
    {
      "inputs": [],
      "name": "treasury",
      "outputs": [
        {
          "internalType": "address",
          "name": "",
          "type": "address"
        }
      ],
      "stateMutability": "view",
      "type": "function"
    },
    {
      "inputs": [
        {
          "internalType": "uint256",
          "name": "orderId",
          "type": "uint256"
        }
      ],
      "name": "unaccountedClaimedAmount",
      "outputs": [
        {
          "internalType": "uint256",
          "name": "",
          "type": "uint256"
        }
      ],
      "stateMutability": "view",
      "type": "function"
    },
    {
      "inputs": [],
      "name": "underlyingToken",
      "outputs": [
        {
          "internalType": "address",
          "name": "",
          "type": "address"
        }
      ],
      "stateMutability": "view",
      "type": "function"
    },
    {
      "inputs": [],
      "name": "unpause",
      "outputs": [],
      "stateMutability": "nonpayable",
      "type": "function"
    },
    {
      "inputs": [
        {
          "internalType": "address",
          "name": "receiver",
          "type": "address"
        },
        {
          "internalType": "uint256",
          "name": "amount",
          "type": "uint256"
        }
      ],
      "name": "withdrawAsDebt",
      "outputs": [],
      "stateMutability": "nonpayable",
      "type": "function"
    },
    {
      "inputs": [
        {
          "internalType": "address",
          "name": "receiver",
          "type": "address"
        }
      ],
      "name": "withdrawExceededUnderlyingToken",
      "outputs": [],
      "stateMutability": "nonpayable",
      "type": "function"
    },
    {
      "inputs": [
        {
          "internalType": "address",
          "name": "token",
          "type": "address"
        },
        {
          "internalType": "address",
          "name": "to",
          "type": "address"
        }
      ],
      "name": "withdrawLostERC20",
      "outputs": [],
      "stateMutability": "nonpayable",
      "type": "function"
    }
  ],
  "transactionHash": "0xa126a05a3e7093f6b72e65b7c0af18790956c1207163673540b14148bd8b6384",
  "args": [
    "0x4eA8496D4D1d4EcF6eD6DaeA95D1A0856F8A5177",
    "0x000000000000000000000000000000000000dEaD",
    "0x1fA03eDB1B8839a5319A7D2c1Ae6AAE492342bAD",
    0,
    "0x1FC38BA10E741F357b1c8B69DC08eA654c21Ae37",
    "92592592592592592592",
    "4000000000000000000000000000",
    220
  ],
  "numDeployments": 3,
  "solcInputHash": "113e1522c1b0400ad151b287e252a915",
  "bytecode": "0x6101c0604052600180553480156200001657600080fd5b5060405162004e2738038062004e2783398101604081905262000039916200033a565b6200004433620002c2565b6001600160a01b0380891660805287811660a0528416610180819052604080516385d1891760e01b815290516385d18917916004808201926020929091908290030181865afa1580156200009c573d6000803e3d6000fd5b505050506040513d601f19601f82011682018060405250810190620000c29190620003d1565b6001600160a01b03166101a0816001600160a01b031681525050856001600160a01b0316610180516001600160a01b031663c55dae636040518163ffffffff1660e01b8152600401602060405180830381865afa15801562000128573d6000803e3d6000fd5b505050506040513d601f19601f820116820180604052508101906200014e9190620003d1565b6001600160a01b0316146200017e57604051630bc320f560e01b8152600760048201526024015b60405180910390fd5b610180516001600160a01b031663fc741c7c6040518163ffffffff1660e01b8152600401602060405180830381865afa158015620001c0573d6000803e3d6000fd5b505050506040513d601f19601f82011682018060405250810190620001e69190620003f6565b60020b156200020c57604051630bc320f560e01b81526009600482015260240162000175565b856001600160a01b031660c0816001600160a01b031681525050846101008181525050610180516001600160a01b031663217a4b706040518163ffffffff1660e01b8152600401602060405180830381865afa15801562000271573d6000803e3d6000fd5b505050506040513d601f19601f82011682018060405250810190620002979190620003d1565b6001600160a01b031660e052610120929092526101405261ffff1661016052506200041b9350505050565b600080546001600160a01b038381166201000081810262010000600160b01b0319851617855560405193049190911692909183917f8be0079c531659141344cd1fd0a4f28419497f9722a3daafe3b4186f6b6457e091a35050565b80516001600160a01b03811681146200033557600080fd5b919050565b600080600080600080600080610100898b0312156200035857600080fd5b62000363896200031d565b97506200037360208a016200031d565b96506200038360408a016200031d565b9550606089015194506200039a60808a016200031d565b935060a0890151925060c0890151915060e089015161ffff81168114620003c057600080fd5b809150509295985092959890939650565b600060208284031215620003e457600080fd5b620003ef826200031d565b9392505050565b6000602082840312156200040957600080fd5b81518060020b8114620003ef57600080fd5b60805160a05160c05160e05161010051610120516101405161016051610180516101a0516147ec6200063b600039600081816126e2015261343101526000818161068e01528181610a7b01528181610b5e01528181610bfe01528181610caf01528181610fb70152818161104b015281816113690152818161165001528181611ab601528181611c360152818161205b01528181612124015281816121d7015281816123ff01528181612494015281816125b301528181612772015281816129a001528181612bdb01528181612c8901528181612fed015281816132db015281816135da015281816136ca01528181613a5b01528181613b090152613ba70152600081816108dc0152818161226201528181612292015261230801526000818161045701528181610d9a01528181610dc2015281816131be01526131f70152600081816107830152610d65015260008181610329015261150f01526000818161036b01528181611235015281816113f4015281816115df01528181611a4701528181611b5201528181611bf501528181611ea301528181611fa101528181611ff601528181612516015261335a0152600081816103b7015281816112cb0152818161148e0152818161154c015281816115ab01528181611e3301528181611e6801528181613147015261331e015260008181610628015261156e01526000818161056c01528181611fc3015281816120180152612afa01526147ec6000f3fe6080604052600436106102dc5760003560e01c806380f5560511610184578063aff25c14116100d6578063f09887301161008a578063f6c714d611610064578063f6c714d6146108fe578063fa1a5f591461091e578063fd235fda1461093457600080fd5b8063f09887301461088a578063f2fde38b146108aa578063f35509e4146108ca57600080fd5b8063d1d58b25116100bb578063d1d58b2514610830578063d45c241c14610850578063e5040c421461086a57600080fd5b8063aff25c14146107fa578063c30bdf481461081a57600080fd5b80638da5cb5b11610138578063a756377e11610112578063a756377e146107a5578063aa83a308146107ba578063afe517ee146107da57600080fd5b80638da5cb5b1461073857806391f7cfb91461075c578063a70329981461077157600080fd5b80638456cb59116101695780638456cb59146106d25780638757b15b146106e75780638d0525bb146106fc57600080fd5b806380f556051461067f5780638284511b146106b257600080fd5b806357ef74031161023d57806361f08f23116101f157806370d5ae05116101cb57806370d5ae0514610616578063715018a61461064a5780637aa660471461065f57600080fd5b806361f08f23146105905780636352211e146105bd5780636ba4c138146105f657600080fd5b80635c975abb116102225780635c975abb146104ff5780635ff2f2e81461053057806361d027b31461055d57600080fd5b806357ef7403146104aa5780635ac0d9c0146104bf57600080fd5b806345d30a17116102945780634b86a3d0116102795780634b86a3d01461042557806353701bc11461044557806354c5b6961461047957600080fd5b806345d30a17146103f0578063468e3e2f1461040557600080fd5b8063217a4b70116102c5578063217a4b70146103595780632495a599146103a55780633f4ba83a146103d957600080fd5b806310fc6172146102e157806314025dcd14610317575b600080fd5b3480156102ed57600080fd5b506103016102fc366004613e6c565b610947565b60405161030e9190613e85565b60405180910390f35b34801561032357600080fd5b5061034b7f000000000000000000000000000000000000000000000000000000000000000081565b60405190815260200161030e565b34801561036557600080fd5b5061038d7f000000000000000000000000000000000000000000000000000000000000000081565b6040516001600160a01b03909116815260200161030e565b3480156103b157600080fd5b5061038d7f000000000000000000000000000000000000000000000000000000000000000081565b3480156103e557600080fd5b506103ee610d24565b005b3480156103fc57600080fd5b5061034b610d3b565b34801561041157600080fd5b506103ee610420366004613eeb565b610de8565b34801561043157600080fd5b506103ee610440366004613f70565b611614565b34801561045157600080fd5b5061034b7f000000000000000000000000000000000000000000000000000000000000000081565b34801561048557600080fd5b5060025461049890610100900460ff1681565b60405160ff909116815260200161030e565b3480156104b657600080fd5b5061034b61164c565b3480156104cb57600080fd5b506002546104e69062010000900467ffffffffffffffff1681565b60405167ffffffffffffffff909116815260200161030e565b34801561050b57600080fd5b5060005461052090600160b01b900460ff1681565b604051901515815260200161030e565b34801561053c57600080fd5b5061055061054b366004613eeb565b611705565b60405161030e9190613f8d565b34801561056957600080fd5b507f000000000000000000000000000000000000000000000000000000000000000061038d565b34801561059c57600080fd5b506105b06105ab366004613eeb565b611810565b60405161030e9190613fe5565b3480156105c957600080fd5b5061038d6105d8366004613e6c565b6000908152600560205260409020600101546001600160a01b031690565b34801561060257600080fd5b506103ee610611366004613eeb565b61190f565b34801561062257600080fd5b5061038d7f000000000000000000000000000000000000000000000000000000000000000081565b34801561065657600080fd5b506103ee611e0a565b34801561066b57600080fd5b506103ee61067a3660046140a0565b611e1e565b34801561068b57600080fd5b507f000000000000000000000000000000000000000000000000000000000000000061038d565b3480156106be57600080fd5b506103ee6106cd3660046140cc565b611e5e565b3480156106de57600080fd5b506103ee611f77565b3480156106f357600080fd5b506103ee611f94565b34801561070857600080fd5b50600254610725906a0100000000000000000000900461ffff1681565b60405161ffff909116815260200161030e565b34801561074457600080fd5b506000546201000090046001600160a01b031661038d565b34801561076857600080fd5b5061034b61203f565b34801561077d57600080fd5b5061034b7f000000000000000000000000000000000000000000000000000000000000000081565b3480156107b157600080fd5b50610725612056565b3480156107c657600080fd5b5061034b6107d536600461411b565b612335565b3480156107e657600080fd5b5061034b6107f536600461416c565b612b71565b34801561080657600080fd5b506103ee6108153660046141ae565b612da1565b34801561082657600080fd5b5061034b60035481565b34801561083c57600080fd5b5061034b61084b366004613e6c565b612f29565b34801561085c57600080fd5b506002546104989060ff1681565b34801561087657600080fd5b5061034b610885366004613e6c565b613087565b34801561089657600080fd5b506103ee6108a53660046141eb565b613127565b3480156108b657600080fd5b506103ee6108c53660046141eb565b61322e565b3480156108d657600080fd5b506107257f000000000000000000000000000000000000000000000000000000000000000081565b34801561090a57600080fd5b506103ee610919366004614208565b6132be565b34801561092a57600080fd5b5061034b60045481565b6103ee610942366004614232565b6132d0565b61099d6040518061010001604052806000815260200160006001600160a01b03168152602001600060ff168152602001600015158152602001600081526020016000815260200160008152602001600081525090565b6000828152600560209081526040808320815160e081018352815467ffffffffffffffff8082168352600160401b8204811695830195909552600160801b8104851693820193909352600160c01b90920490921660608201526001909101546001600160a01b038116608083015260ff600160a01b8204811660a0840152600160a81b90910416151560c082015290610a35846133e1565b60200151905060405180610100016040528085815260200183608001516001600160a01b031681526020018360a0015160ff1681526020018360c00151151581526020017f00000000000000000000000000000000000000000000000000000000000000006001600160a01b031663240ddd2e85600001516040518263ffffffff1660e01b8152600401610ad9919067ffffffffffffffff91909116815260200190565b602060405180830381865afa158015610af6573d6000803e3d6000fd5b505050506040513d601f19601f82011682018060405250810190610b1a91906142dc565b81526020848101516040516363e320a160e11b815267ffffffffffffffff909116600482015261ffff85166024820152600060448201529101906001600160a01b037f0000000000000000000000000000000000000000000000000000000000000000169063c7c6414290606401602060405180830381865afa158015610ba5573d6000803e3d6000fd5b505050506040513d601f19601f82011682018060405250810190610bc991906142dc565b81526040808501519051631206ee9760e11b815267ffffffffffffffff90911660048201526020909101906001600160a01b037f0000000000000000000000000000000000000000000000000000000000000000169063240ddd2e90602401602060405180830381865afa158015610c45573d6000803e3d6000fd5b505050506040513d601f19601f82011682018060405250810190610c6991906142dc565b815260608401516040516363e320a160e11b815267ffffffffffffffff909116600482015261ffff84166024820152600060448201526020909101906001600160a01b037f0000000000000000000000000000000000000000000000000000000000000000169063c7c6414290606401602060405180830381865afa158015610cf6573d6000803e3d6000fd5b505050506040513d601f19601f82011682018060405250810190610d1a91906142dc565b9052949350505050565b610d2c61349c565b6000805460ff60b01b19169055565b6002546000908190610d5d9062010000900467ffffffffffffffff164261430b565b9050610d89817f000000000000000000000000000000000000000000000000000000000000000061431e565b600354610d969190614335565b91507f0000000000000000000000000000000000000000000000000000000000000000821115610de4577f000000000000000000000000000000000000000000000000000000000000000091505b5090565b600154600114610e1357604051630bc320f560e01b8152600260048201526024015b60405180910390fd5b600260015560008167ffffffffffffffff811115610e3357610e33614348565b604051908082528060200260200182016040528015610e7e57816020015b6040805160608101825260008082526020808301829052928201528252600019909201910181610e515790505b50905060005b8281101561121c576000848483818110610ea057610ea061435e565b60209081029290920135600081815260058452604090819020815160e081018352815467ffffffffffffffff8082168352600160401b8204811697830197909752600160801b8104871693820193909352600160c01b90920490941660608201526001909301546001600160a01b0381166080850181905260ff600160a01b8304811660a0870152600160a81b909204909116151560c085015290935033149050610f6157604051630bc320f560e01b815260006004820152602401610e0a565b6000610f6c836133e1565b905080858581518110610f8157610f8161435e565b60200260200101819052508160c00151610f9d5750505061120c565b604051634cd9c08160e11b81526000906001600160a01b037f000000000000000000000000000000000000000000000000000000000000000016906399b3810290610fec908590600401614374565b606060405180830381865afa158015611009573d6000803e3d6000fd5b505050506040513d601f19601f8201168201806040525081019061102d91906143d2565b51604051635fec377960e01b81529091506000906001600160a01b037f00000000000000000000000000000000000000000000000000000000000000001690635fec377990611080908690600401614374565b608060405180830381865afa15801561109d573d6000803e3d6000fd5b505050506040513d601f19601f820116820180604052508101906110c1919061442f565b505050905080826110d2919061446e565b67ffffffffffffffff166060850181905260208501516110f2919061446e565b67ffffffffffffffff9081166040808701918252600060c08801818152988152600560209081529190208751815492890151935160608a01518616600160c01b0277ffffffffffffffffffffffffffffffffffffffffffffffff918716600160801b02919091166fffffffffffffffffffffffffffffffff958716600160401b026fffffffffffffffffffffffffffffffff1990951692909616919091179290921792909216929092179190911781556080850151600191909101805460a09096015196511515600160a81b0260ff60a81b1960ff909816600160a01b0274ffffffffffffffffffffffffffffffffffffffffff199097166001600160a01b03909316929092179590951795909516949094179092555050505b6112158161448f565b9050610e84565b506040516370a0823160e01b81523060048201526000907f00000000000000000000000000000000000000000000000000000000000000006001600160a01b0316906370a0823190602401602060405180830381865afa158015611284573d6000803e3d6000fd5b505050506040513d601f19601f820116820180604052508101906112a891906142dc565b6040516370a0823160e01b81523060048201529091506000906001600160a01b037f000000000000000000000000000000000000000000000000000000000000000016906370a0823190602401602060405180830381865afa158015611312573d6000803e3d6000fd5b505050506040513d601f19601f8201168201806040525081019061133691906142dc565b6040517fdfdc93880000000000000000000000000000000000000000000000000000000081529091506001600160a01b037f0000000000000000000000000000000000000000000000000000000000000000169063dfdc9388906113a090309087906004016144a8565b600060405180830381600087803b1580156113ba57600080fd5b505af11580156113ce573d6000803e3d6000fd5b50506040516370a0823160e01b8152306004820152600092508491506001600160a01b037f000000000000000000000000000000000000000000000000000000000000000016906370a0823190602401602060405180830381865afa15801561143b573d6000803e3d6000fd5b505050506040513d601f19601f8201168201806040525081019061145f91906142dc565b611469919061430b565b6040516370a0823160e01b815230600482015290915060009083906001600160a01b037f000000000000000000000000000000000000000000000000000000000000000016906370a0823190602401602060405180830381865afa1580156114d5573d6000803e3d6000fd5b505050506040513d601f19601f820116820180604052508101906114f991906142dc565b611503919061430b565b9050600061153d6115347f00000000000000000000000000000000000000000000000000000000000000008461431e565b620f42406134fd565b90506115936001600160a01b037f0000000000000000000000000000000000000000000000000000000000000000167f000000000000000000000000000000000000000000000000000000000000000083613527565b6115d2336115a1838561430b565b6001600160a01b037f0000000000000000000000000000000000000000000000000000000000000000169190613527565b6116066001600160a01b037f0000000000000000000000000000000000000000000000000000000000000000163385613527565b505060018055505050505050565b61161c61349c565b6002805461ffff9092166a0100000000000000000000026bffff0000000000000000000019909216919091179055565b60007f00000000000000000000000000000000000000000000000000000000000000006001600160a01b0316636a204d0c611685612056565b6040517fffffffff0000000000000000000000000000000000000000000000000000000060e084901b16815261ffff9091166004820152602401602060405180830381865afa1580156116dc573d6000803e3d6000fd5b505050506040513d601f19601f8201168201806040525081019061170091906142dc565b905090565b60608167ffffffffffffffff81111561172057611720614348565b60405190808252806020026020018201604052801561176557816020015b604080518082019091526000808252602082015281526020019060019003908161173e5790505b50905060005b82811015611808576040518060400160405280600560008787868181106117945761179461435e565b6020908102929092013583525081810192909252604001600020600101546001600160a01b03168252018585848181106117d0576117d061435e565b905060200201358152508282815181106117ec576117ec61435e565b6020026020010181905250806118019061448f565b905061176b565b505b92915050565b60608167ffffffffffffffff81111561182b5761182b614348565b6040519080825280602002602001820160405280156118b257816020015b61189f6040518061010001604052806000815260200160006001600160a01b03168152602001600060ff168152602001600015158152602001600081526020016000815260200160008152602001600081525090565b8152602001906001900390816118495790505b50905060005b82811015611808576118e18484838181106118d5576118d561435e565b90506020020135610947565b8282815181106118f3576118f361435e565b6020026020010181905250806119089061448f565b90506118b8565b60015460011461193557604051630bc320f560e01b815260026004820152602401610e0a565b600260015560005b81811015611e015760008084848481811061195a5761195a61435e565b60209081029290920135600081815260058452604090819020815160e081018352815467ffffffffffffffff8082168352600160401b8204811697830197909752600160801b8104871693820193909352600160c01b90920490941660608201526001909301546001600160a01b038116608085015260ff600160a01b8204811660a0860152600160a81b90910416151560c084018190529093509050611a0357505050611df1565b6000611a0e836133e1565b9050611a1a82826135d5565b611a249085614335565b6040516370a0823160e01b81523060048201529094506000906001600160a01b037f000000000000000000000000000000000000000000000000000000000000000016906370a0823190602401602060405180830381865afa158015611a8e573d6000803e3d6000fd5b505050506040513d601f19601f82011682018060405250810190611ab291906142dc565b90507f00000000000000000000000000000000000000000000000000000000000000006001600160a01b03166375375e9633611aed85613746565b6040518363ffffffff1660e01b8152600401611b0a9291906144a8565b600060405180830381600087803b158015611b2457600080fd5b505af1158015611b38573d6000803e3d6000fd5b50506040516370a0823160e01b81523060048201528392507f00000000000000000000000000000000000000000000000000000000000000006001600160a01b031691506370a0823190602401602060405180830381865afa158015611ba2573d6000803e3d6000fd5b505050506040513d601f19601f82011682018060405250810190611bc691906142dc565b611bd0919061430b565b611bda9086614335565b94508415611deb576080830151611c1c906001600160a01b037f0000000000000000000000000000000000000000000000000000000000000000169087613527565b604051634cd9c08160e11b81526000906001600160a01b037f000000000000000000000000000000000000000000000000000000000000000016906399b3810290611c6b908690600401614374565b606060405180830381865afa158015611c88573d6000803e3d6000fd5b505050506040513d601f19601f82011682018060405250810190611cac91906143d2565b516020850151909150611cc090829061446e565b67ffffffffffffffff90811660408601819052602086015190911603611ce857600060c08501525b50600084815260056020908152604091829020855181549287015193870151606088015167ffffffffffffffff908116600160c01b0277ffffffffffffffffffffffffffffffffffffffffffffffff928216600160801b02929092166fffffffffffffffffffffffffffffffff968216600160401b026fffffffffffffffffffffffffffffffff19909616919093161793909317939093169290921717815560808401516001909101805460a086015160c08701511515600160a81b0260ff60a81b1960ff909216600160a01b0274ffffffffffffffffffffffffffffffffffffffffff199093166001600160a01b039095169490941791909117169190911790555b50505050505b611dfa8161448f565b905061193d565b50506001805550565b611e1261349c565b611e1c60006137b0565b565b611e2661349c565b611e5a6001600160a01b037f0000000000000000000000000000000000000000000000000000000000000000168383613527565b5050565b611e6661349c565b7f00000000000000000000000000000000000000000000000000000000000000006001600160a01b0316826001600160a01b03161480611ed757507f00000000000000000000000000000000000000000000000000000000000000006001600160a01b0316826001600160a01b0316145b15611ef857604051630bc320f560e01b815260076004820152602401610e0a565b6040516370a0823160e01b8152306004820152611e5a9082906001600160a01b038516906370a0823190602401602060405180830381865afa158015611f42573d6000803e3d6000fd5b505050506040513d601f19601f82011682018060405250810190611f6691906142dc565b6001600160a01b0385169190613527565b611f7f61349c565b6000805460ff60b01b1916600160b01b179055565b611fe96001600160a01b037f0000000000000000000000000000000000000000000000000000000000000000167f00000000000000000000000000000000000000000000000000000000000000006000613821565b611e1c6001600160a01b037f0000000000000000000000000000000000000000000000000000000000000000167f0000000000000000000000000000000000000000000000000000000000000000600019613821565b600060045461204c610d3b565b611700919061430b565b6000807f00000000000000000000000000000000000000000000000000000000000000006001600160a01b031663c9ed23766040518163ffffffff1660e01b8152600401602060405180830381865afa1580156120b7573d6000803e3d6000fd5b505050506040513d601f19601f820116820180604052508101906120db919061452d565b60028054600094509192506a010000000000000000000090910461ffff1690835b8261ffff168110156122f95760405163092337eb60e21b815261ffff851660048201526000907f00000000000000000000000000000000000000000000000000000000000000006001600160a01b03169063248cdfac9060240160e060405180830381865afa158015612173573d6000803e3d6000fd5b505050506040513d601f19601f82011682018060405250810190612197919061454a565b9050811580156121b15750805167ffffffffffffffff1642145b1561224d5760405163092337eb60e21b815261ffff6000199690960195861660048201527f00000000000000000000000000000000000000000000000000000000000000006001600160a01b03169063248cdfac9060240160e060405180830381865afa158015612226573d6000803e3d6000fd5b505050506040513d601f19601f8201168201806040525081019061224a919061454a565b90505b805167ffffffffffffffff166000036122c1577f000000000000000000000000000000000000000000000000000000000000000061ffff168661ffff1610156122bb577f00000000000000000000000000000000000000000000000000000000000000009550505050505090565b506122f9565b8561ffff16816080015161ffff1611156122dd57806080015195505b5092819003926002909102906122f28161448f565b90506120fc565b508361ffff1660000361232f577f0000000000000000000000000000000000000000000000000000000000000000935050505090565b50505090565b600060015460011461235d57604051630bc320f560e01b815260026004820152602401610e0a565b6002600155600054600160b01b900460ff161561239057604051630bc320f560e01b815260016004820152602401610e0a565b600254849060ff610100909104811690821611806123b6575060025460ff908116908216105b156123d757604051630bc320f560e01b8152600a6004820152602401610e0a565b6123df61396f565b60405163441055f560e01b815260048101879052600060248201819052907f00000000000000000000000000000000000000000000000000000000000000006001600160a01b03169063441055f590604401602060405180830381865afa15801561244e573d6000803e3d6000fd5b505050506040513d601f19601f820116820180604052508101906124729190614610565b604051631206ee9760e11b815267ffffffffffffffff821660048201529091507f00000000000000000000000000000000000000000000000000000000000000006001600160a01b03169063240ddd2e90602401602060405180830381865afa1580156124e3573d6000803e3d6000fd5b505050506040513d601f19601f8201168201806040525081019061250791906142dc565b965061253e6001600160a01b037f00000000000000000000000000000000000000000000000000000000000000001633308a6139ba565b60008061254b8389613a11565b915091508061255861203f565b101561257a57604051630bc320f560e01b815260036004820152602401610e0a565b8561ffff168261ffff1611156125a657604051630bc320f560e01b815260056004820152602401610e0a565b6000806001600160a01b037f00000000000000000000000000000000000000000000000000000000000000001663bfc18aef308684876002826040519080825280601f01601f191660200182016040528015612609576020820181803683370190505b506040518763ffffffff1660e01b815260040161262b9695949392919061467d565b6020604051808303816000875af115801561264a573d6000803e3d6000fd5b505050506040513d601f19601f8201168201806040525081019061266e91906142dc565b9050600019810361269557604051630bc320f560e01b815260066004820152602401610e0a565b604080516060810182526000815261ffff8616602082015280820183905290517fc776d5830000000000000000000000000000000000000000000000000000000081526001600160a01b037f0000000000000000000000000000000000000000000000000000000000000000169063c776d58390612717908490600401614374565b602060405180830381865afa158015612734573d6000803e3d6000fd5b505050506040513d601f19601f8201168201806040525081019061275891906142dc565b604051634cd9c08160e11b81529098506001600160a01b037f000000000000000000000000000000000000000000000000000000000000000016906399b38102906127a7908490600401614374565b606060405180830381865afa1580156127c4573d6000803e3d6000fd5b505050506040513d601f19601f820116820180604052508101906127e891906143d2565b60000151925050506040518060e001604052808567ffffffffffffffff1681526020018267ffffffffffffffff168152602001600067ffffffffffffffff168152602001600067ffffffffffffffff168152602001896001600160a01b031681526020018a60ff168152602001600115158152506005600088815260200190815260200160002060008201518160000160006101000a81548167ffffffffffffffff021916908367ffffffffffffffff16021790555060208201518160000160086101000a81548167ffffffffffffffff021916908367ffffffffffffffff16021790555060408201518160000160106101000a81548167ffffffffffffffff021916908367ffffffffffffffff16021790555060608201518160000160186101000a81548167ffffffffffffffff021916908367ffffffffffffffff16021790555060808201518160010160006101000a8154816001600160a01b0302191690836001600160a01b0316021790555060a08201518160010160146101000a81548160ff021916908360ff16021790555060c08201518160010160156101000a81548160ff02191690831515021790555090505060007f00000000000000000000000000000000000000000000000000000000000000006001600160a01b031663c7c64142838660006040518463ffffffff1660e01b8152600401612a129392919067ffffffffffffffff93909316835261ffff9190911660208301521515604082015260600190565b602060405180830381865afa158015612a2f573d6000803e3d6000fd5b505050506040513d601f19601f82011682018060405250810190612a5391906142dc565b905080600003612a7957604051630bc320f560e01b815260066004820152602401610e0a565b604080518c815260ff8c16602082015290810182905287906001600160a01b038b169033907f267dddb881e07bcf2b2f2fea4452c4a4a99ac8577aaf7c026f68210185fb90479060600160405180910390a46040517f37df00c9000000000000000000000000000000000000000000000000000000008152600481018c90527f00000000000000000000000000000000000000000000000000000000000000006001600160a01b0316906337df00c990602401600060405180830381600087803b158015612b4657600080fd5b505af1158015612b5a573d6000803e3d6000fd5b50506001805550969b9a5050505050505050505050565b600254600090829060ff61010090910481169082161180612b9a575060025460ff908116908216105b15612bbb57604051630bc320f560e01b8152600a6004820152602401610e0a565b60405163441055f560e01b815260048101859052600060248201819052907f00000000000000000000000000000000000000000000000000000000000000006001600160a01b03169063441055f590604401602060405180830381865afa158015612c2a573d6000803e3d6000fd5b505050506040513d601f19601f82011682018060405250810190612c4e9190614610565b9050600080612c5d8387613a11565b60405163151d468760e11b81526004810182905261ffff831660248201526000604482015291935091507f00000000000000000000000000000000000000000000000000000000000000006001600160a01b03169063c7c64142908290632a3a8d0e90606401602060405180830381865afa158015612ce0573d6000803e3d6000fd5b505050506040513d601f19601f82011682018060405250810190612d049190614610565b6040517fffffffff0000000000000000000000000000000000000000000000000000000060e084901b16815267ffffffffffffffff909116600482015261ffff8516602482015260006044820152606401602060405180830381865afa158015612d72573d6000803e3d6000fd5b505050506040513d601f19601f82011682018060405250810190612d9691906142dc565b979650505050505050565b600054610100900460ff1615808015612dc15750600054600160ff909116105b80612ddb5750303b158015612ddb575060005460ff166001145b612e4d5760405162461bcd60e51b815260206004820152602e60248201527f496e697469616c697a61626c653a20636f6e747261637420697320616c72656160448201527f647920696e697469616c697a65640000000000000000000000000000000000006064820152608401610e0a565b6000805460ff191660011790558015612e70576000805461ff0019166101001790555b612e7960018055565b612e82336137b0565b612e8c8585613c26565b600280546bffffffffffffffffffff000019166201000067ffffffffffffffff8616026bffff000000000000000000001916176a010000000000000000000061ffff851602179055612edc611f94565b8015612f22576000805461ff0019169055604051600181527f7f26b83ff96e1f2b6a682f133852f6798a09c465da95921460cefb38474024989060200160405180910390a15b5050505050565b600080612f35836133e1565b600084815260056020908152604091829020825160e081018452815467ffffffffffffffff8082168352600160401b8204811694830194909452600160801b8104841694820194909452600160c01b9093049091166060830152600101546001600160a01b038116608083015260ff600160a01b8204811660a0840152600160a81b90910416151560c0820181905291925090612fd6575060009392505050565b604051635fec377960e01b81526001600160a01b037f00000000000000000000000000000000000000000000000000000000000000001690635fec377990613022908590600401614374565b608060405180830381865afa15801561303f573d6000803e3d6000fd5b505050506040513d601f19601f82011682018060405250810190613063919061442f565b509094506130759150829050836135d5565b61307f9084614335565b949350505050565b6000818152600560209081526040808320815160e081018352815467ffffffffffffffff8082168352600160401b8204811695830195909552600160801b8104851693820193909352600160c01b90920490921660608201526001909101546001600160a01b038116608083015260ff600160a01b8204811660a0840152600160a81b90910416151560c082015261180a90613122846133e1565b6135d5565b61312f61349c565b6040516370a0823160e01b81523060048201526000907f00000000000000000000000000000000000000000000000000000000000000006001600160a01b0316906370a0823190602401602060405180830381865afa158015613196573d6000803e3d6000fd5b505050506040513d601f19601f820116820180604052508101906131ba91906142dc565b90507f0000000000000000000000000000000000000000000000000000000000000000600454826131eb9190614335565b1115611e5a57611e5a827f0000000000000000000000000000000000000000000000000000000000000000600454846132249190614335565b6115a1919061430b565b61323661349c565b6001600160a01b0381166132b25760405162461bcd60e51b815260206004820152602660248201527f4f776e61626c653a206e6577206f776e657220697320746865207a65726f206160448201527f64647265737300000000000000000000000000000000000000000000000000006064820152608401610e0a565b6132bb816137b0565b50565b6132c661349c565b611e5a8282613c26565b336001600160a01b037f0000000000000000000000000000000000000000000000000000000000000000161461331c57604051630bc320f560e01b815260006004820152602401610e0a565b7f00000000000000000000000000000000000000000000000000000000000000006001600160a01b0316866001600160a01b031614801561338e57507f00000000000000000000000000000000000000000000000000000000000000006001600160a01b0316856001600160a01b0316145b6133ae57604051630bc320f560e01b815260076004820152602401610e0a565b6133c26001600160a01b0387163386613527565b83600460008282546133d49190614335565b9091555050505050505050565b604080516060810182526000808252602082018190528183015290517fdc20c6fa000000000000000000000000000000000000000000000000000000008152600481018390526001600160a01b037f0000000000000000000000000000000000000000000000000000000000000000169063dc20c6fa90602401606060405180830381865afa158015613478573d6000803e3d6000fd5b505050506040513d601f19601f8201168201806040525081019061180a91906146e4565b6000546001600160a01b0362010000909104163314611e1c5760405162461bcd60e51b815260206004820181905260248201527f4f776e61626c653a2063616c6c6572206973206e6f7420746865206f776e65726044820152606401610e0a565b600081600161350c8286614335565b613516919061430b565b613520919061472f565b9392505050565b6040516001600160a01b0383166024820152604481018290526135d09084907fa9059cbb00000000000000000000000000000000000000000000000000000000906064015b60408051601f198184030181529190526020810180517bffffffffffffffffffffffffffffffffffffffffffffffffffffffff167fffffffff0000000000000000000000000000000000000000000000000000000090931692909217909152613c74565b505050565b6000807f00000000000000000000000000000000000000000000000000000000000000006001600160a01b03166399b38102846040518263ffffffff1660e01b81526004016136249190614374565b606060405180830381865afa158015613641573d6000803e3d6000fd5b505050506040513d601f19601f8201168201806040525081019061366591906143d2565b60000151905060008460400151828660200151613682919061446e565b61368c919061446e565b90508067ffffffffffffffff166000036136ab5760009250505061180a565b604051631206ee9760e11b815267ffffffffffffffff821660048201527f00000000000000000000000000000000000000000000000000000000000000006001600160a01b03169063240ddd2e90602401602060405180830381865afa158015613719573d6000803e3d6000fd5b505050506040513d601f19601f8201168201806040525081019061373d91906142dc565b95945050505050565b604080516001808252818301909252606091816020015b604080516060810182526000808252602080830182905292820152825260001990920191018161375d57905050905081816000815181106137a0576137a061435e565b6020026020010181905250919050565b600080546001600160a01b03838116620100008181027fffffffffffffffffffff0000000000000000000000000000000000000000ffff851617855560405193049190911692909183917f8be0079c531659141344cd1fd0a4f28419497f9722a3daafe3b4186f6b6457e091a35050565b8015806138b457506040517fdd62ed3e0000000000000000000000000000000000000000000000000000000081523060048201526001600160a01b03838116602483015284169063dd62ed3e90604401602060405180830381865afa15801561388e573d6000803e3d6000fd5b505050506040513d601f19601f820116820180604052508101906138b291906142dc565b155b6139265760405162461bcd60e51b815260206004820152603660248201527f5361666545524332303a20617070726f76652066726f6d206e6f6e2d7a65726f60448201527f20746f206e6f6e2d7a65726f20616c6c6f77616e6365000000000000000000006064820152608401610e0a565b6040516001600160a01b0383166024820152604481018290526135d09084907f095ea7b3000000000000000000000000000000000000000000000000000000009060640161356c565b60025462010000900467ffffffffffffffff16421115611e1c57613991610d3b565b6003556002805469ffffffffffffffff00001916620100004267ffffffffffffffff1602179055565b6040516001600160a01b0380851660248301528316604482015260648101829052613a0b9085907f23b872dd000000000000000000000000000000000000000000000000000000009060840161356c565b50505050565b6000806000613a1e612056565b6040516363e320a160e11b815267ffffffffffffffff8716600482015261ffff821660248201526000604482018190529192506001600160a01b037f0000000000000000000000000000000000000000000000000000000000000000169063c7c6414290606401602060405180830381865afa158015613aa2573d6000803e3d6000fd5b505050506040513d601f19601f82011682018060405250810190613ac691906142dc565b9050613ad560ff861683614751565b60405163151d468760e11b81526004810183905261ffff821660248201526000604482018190529195506001600160a01b037f00000000000000000000000000000000000000000000000000000000000000001690632a3a8d0e90606401602060405180830381865afa158015613b50573d6000803e3d6000fd5b505050506040513d601f19601f82011682018060405250810190613b749190614610565b6040516363e320a160e11b815267ffffffffffffffff8216600482015261ffff85166024820152600060448201529091507f00000000000000000000000000000000000000000000000000000000000000006001600160a01b03169063c7c6414290606401602060405180830381865afa158015613bf6573d6000803e3d6000fd5b505050506040513d601f19601f82011682018060405250810190613c1a91906142dc565b93505050509250929050565b8060ff168260ff161115613c5057604051630bc320f560e01b8152600a6004820152602401610e0a565b6002805460ff9283166101000261ffff199091169290931691909117919091179055565b6000613cc9826040518060400160405280602081526020017f5361666545524332303a206c6f772d6c6576656c2063616c6c206661696c6564815250856001600160a01b0316613d599092919063ffffffff16565b8051909150156135d05780806020019051810190613ce7919061476c565b6135d05760405162461bcd60e51b815260206004820152602a60248201527f5361666545524332303a204552433230206f7065726174696f6e20646964206e60448201527f6f742073756363656564000000000000000000000000000000000000000000006064820152608401610e0a565b606061307f848460008585600080866001600160a01b03168587604051613d809190614787565b60006040518083038185875af1925050503d8060008114613dbd576040519150601f19603f3d011682016040523d82523d6000602084013e613dc2565b606091505b5091509150612d968783838760608315613e3d578251600003613e36576001600160a01b0385163b613e365760405162461bcd60e51b815260206004820152601d60248201527f416464726573733a2063616c6c20746f206e6f6e2d636f6e74726163740000006044820152606401610e0a565b508161307f565b61307f8383815115613e525781518083602001fd5b8060405162461bcd60e51b8152600401610e0a91906147a3565b600060208284031215613e7e57600080fd5b5035919050565b610100810161180a8284805182526001600160a01b03602082015116602083015260ff60408201511660408301526060810151151560608301526080810151608083015260a081015160a083015260c081015160c083015260e081015160e08301525050565b60008060208385031215613efe57600080fd5b823567ffffffffffffffff80821115613f1657600080fd5b818501915085601f830112613f2a57600080fd5b813581811115613f3957600080fd5b8660208260051b8501011115613f4e57600080fd5b60209290920196919550909350505050565b61ffff811681146132bb57600080fd5b600060208284031215613f8257600080fd5b813561352081613f60565b602080825282518282018190526000919060409081850190868401855b82811015613fd857815180516001600160a01b03168552860151868501529284019290850190600101613faa565b5091979650505050505050565b6020808252825182820181905260009190848201906040850190845b8181101561407f5761406b838551805182526001600160a01b03602082015116602083015260ff60408201511660408301526060810151151560608301526080810151608083015260a081015160a083015260c081015160c083015260e081015160e08301525050565b928401926101009290920191600101614001565b50909695505050505050565b6001600160a01b03811681146132bb57600080fd5b600080604083850312156140b357600080fd5b82356140be8161408b565b946020939093013593505050565b600080604083850312156140df57600080fd5b82356140ea8161408b565b915060208301356140fa8161408b565b809150509250929050565b803560ff8116811461411657600080fd5b919050565b6000806000806080858703121561413157600080fd5b8435935061414160208601614105565b925060408501356141518161408b565b9150606085013561416181613f60565b939692955090935050565b6000806040838503121561417f57600080fd5b8235915061418f60208401614105565b90509250929050565b67ffffffffffffffff811681146132bb57600080fd5b600080600080608085870312156141c457600080fd5b6141cd85614105565b93506141db60208601614105565b9250604085013561415181614198565b6000602082840312156141fd57600080fd5b81356135208161408b565b6000806040838503121561421b57600080fd5b61422483614105565b915061418f60208401614105565b60008060008060008060a0878903121561424b57600080fd5b86356142568161408b565b955060208701356142668161408b565b94506040870135935060608701359250608087013567ffffffffffffffff8082111561429157600080fd5b818901915089601f8301126142a557600080fd5b8135818111156142b457600080fd5b8a60208285010111156142c657600080fd5b6020830194508093505050509295509295509295565b6000602082840312156142ee57600080fd5b5051919050565b634e487b7160e01b600052601160045260246000fd5b8181038181111561180a5761180a6142f5565b808202811582820484141761180a5761180a6142f5565b8082018082111561180a5761180a6142f5565b634e487b7160e01b600052604160045260246000fd5b634e487b7160e01b600052603260045260246000fd5b81511515815260208083015161ffff1690820152604080830151908201526060810161180a565b6040516060810167ffffffffffffffff811182821017156143cc57634e487b7160e01b600052604160045260246000fd5b60405290565b6000606082840312156143e457600080fd5b6143ec61439b565b82516143f781614198565b8152602083015163ffffffff8116811461441057600080fd5b602082015260408301516144238161408b565b60408201529392505050565b6000806000806080858703121561444557600080fd5b845161445081614198565b60208601516040870151606090970151919890975090945092505050565b67ffffffffffffffff828116828216039080821115611808576118086142f5565b6000600182016144a1576144a16142f5565b5060010190565b6000604082016001600160a01b0385168352602060408185015281855180845260609350838601915082870160005b828110156145145761450484835180511515825260208082015161ffff1690830152604090810151910152565b92850192908401906001016144d7565b509198975050505050505050565b805161411681613f60565b60006020828403121561453f57600080fd5b815161352081613f60565b600060e0828403121561455c57600080fd5b60405160e0810181811067ffffffffffffffff8211171561458d57634e487b7160e01b600052604160045260246000fd5b604052825161459b81614198565b815260208301516145ab81614198565b602082015260408301516145be81614198565b604082015260608301516145d181613f60565b60608201526145e260808401614522565b60808201526145f360a08401614522565b60a082015261460460c08401614522565b60c08201529392505050565b60006020828403121561462257600080fd5b815161352081614198565b60005b83811015614648578181015183820152602001614630565b50506000910152565b6000815180845261466981602086016020860161462d565b601f01601f19169290920160200192915050565b6001600160a01b038716815261ffff8616602082015267ffffffffffffffff8516604082015283606082015260ff8316608082015260c060a082015260006146c860c0830184614651565b98975050505050505050565b8051801515811461411657600080fd5b6000606082840312156146f657600080fd5b6146fe61439b565b614707836146d4565b8152602083015161471781613f60565b60208201526040928301519281019290925250919050565b60008261474c57634e487b7160e01b600052601260045260246000fd5b500490565b61ffff818116838216019080821115611808576118086142f5565b60006020828403121561477e57600080fd5b613520826146d4565b6000825161479981846020870161462d565b9190910192915050565b602081526000613520602083018461465156fea2646970667358221220a8c625694e02c2240b1ccca45439c0d60d2dbbd59bc738e4a22f6664119b8e2364736f6c63430008110033",
  "devdoc": {
    "kind": "dev",
    "methods": {
      "owner()": {
        "details": "Returns the address of the current owner."
      },
      "renounceOwnership()": {
        "details": "Leaves the contract without owner. It will not be possible to call `onlyOwner` functions anymore. Can only be called by the current owner. NOTE: Renouncing ownership will leave the contract without an owner, thereby removing any functionality that is only available to the owner."
      },
      "transferOwnership(address)": {
        "details": "Transfers ownership of the contract to a new account (`newOwner`). Can only be called by the current owner."
      }
    },
    "version": 1
  },
  "userdoc": {
    "kind": "user",
    "methods": {},
    "version": 1
  },
  "storageLayout": {
    "storage": [
      {
        "astId": 119,
        "contract": "contracts/MangoBondPool.sol:MangoBondPool",
        "label": "_initialized",
        "offset": 0,
        "slot": "0",
        "type": "t_uint8"
      },
      {
        "astId": 122,
        "contract": "contracts/MangoBondPool.sol:MangoBondPool",
        "label": "_initializing",
        "offset": 1,
        "slot": "0",
        "type": "t_bool"
      },
      {
        "astId": 7,
        "contract": "contracts/MangoBondPool.sol:MangoBondPool",
        "label": "_owner",
        "offset": 2,
        "slot": "0",
        "type": "t_address"
      },
      {
        "astId": 3742,
        "contract": "contracts/MangoBondPool.sol:MangoBondPool",
        "label": "paused",
        "offset": 22,
        "slot": "0",
        "type": "t_bool"
      },
      {
        "astId": 3784,
        "contract": "contracts/MangoBondPool.sol:MangoBondPool",
        "label": "_locked",
        "offset": 0,
        "slot": "1",
        "type": "t_uint256"
      },
      {
        "astId": 1292,
        "contract": "contracts/MangoBondPool.sol:MangoBondPool",
        "label": "minBonus",
        "offset": 0,
        "slot": "2",
        "type": "t_uint8"
      },
      {
        "astId": 1295,
        "contract": "contracts/MangoBondPool.sol:MangoBondPool",
        "label": "maxBonus",
        "offset": 1,
        "slot": "2",
        "type": "t_uint8"
      },
      {
        "astId": 1298,
        "contract": "contracts/MangoBondPool.sol:MangoBondPool",
        "label": "lastReleasedAt",
        "offset": 2,
        "slot": "2",
        "type": "t_uint64"
      },
      {
        "astId": 1301,
        "contract": "contracts/MangoBondPool.sol:MangoBondPool",
        "label": "sampleSize",
        "offset": 10,
        "slot": "2",
        "type": "t_uint16"
      },
      {
        "astId": 1304,
        "contract": "contracts/MangoBondPool.sol:MangoBondPool",
        "label": "lastRecordedReleasedAmount",
        "offset": 0,
        "slot": "3",
        "type": "t_uint256"
      },
      {
        "astId": 1307,
        "contract": "contracts/MangoBondPool.sol:MangoBondPool",
        "label": "soldAmount",
        "offset": 0,
        "slot": "4",
        "type": "t_uint256"
      },
      {
        "astId": 1312,
        "contract": "contracts/MangoBondPool.sol:MangoBondPool",
        "label": "_bonds",
        "offset": 0,
        "slot": "5",
        "type": "t_mapping(t_uint256,t_struct(Bond)3440_storage)"
      }
    ],
    "types": {
      "t_address": {
        "encoding": "inplace",
        "label": "address",
        "numberOfBytes": "20"
      },
      "t_bool": {
        "encoding": "inplace",
        "label": "bool",
        "numberOfBytes": "1"
      },
      "t_mapping(t_uint256,t_struct(Bond)3440_storage)": {
        "encoding": "mapping",
        "key": "t_uint256",
        "label": "mapping(uint256 => struct IBondPool.Bond)",
        "numberOfBytes": "32",
        "value": "t_struct(Bond)3440_storage"
      },
      "t_struct(Bond)3440_storage": {
        "encoding": "inplace",
        "label": "struct IBondPool.Bond",
        "members": [
          {
            "astId": 3427,
            "contract": "contracts/MangoBondPool.sol:MangoBondPool",
            "label": "spentRawAmount",
            "offset": 0,
            "slot": "0",
            "type": "t_uint64"
          },
          {
            "astId": 3429,
            "contract": "contracts/MangoBondPool.sol:MangoBondPool",
            "label": "purchasedRawAmount",
            "offset": 8,
            "slot": "0",
            "type": "t_uint64"
          },
          {
            "astId": 3431,
            "contract": "contracts/MangoBondPool.sol:MangoBondPool",
            "label": "claimedRawAmount",
            "offset": 16,
            "slot": "0",
            "type": "t_uint64"
          },
          {
            "astId": 3433,
            "contract": "contracts/MangoBondPool.sol:MangoBondPool",
            "label": "canceledRawAmount",
            "offset": 24,
            "slot": "0",
            "type": "t_uint64"
          },
          {
            "astId": 3435,
            "contract": "contracts/MangoBondPool.sol:MangoBondPool",
            "label": "owner",
            "offset": 0,
            "slot": "1",
            "type": "t_address"
          },
          {
            "astId": 3437,
            "contract": "contracts/MangoBondPool.sol:MangoBondPool",
            "label": "bonus",
            "offset": 20,
            "slot": "1",
            "type": "t_uint8"
          },
          {
            "astId": 3439,
            "contract": "contracts/MangoBondPool.sol:MangoBondPool",
            "label": "isValid",
            "offset": 21,
            "slot": "1",
            "type": "t_bool"
          }
        ],
        "numberOfBytes": "64"
      },
      "t_uint16": {
        "encoding": "inplace",
        "label": "uint16",
        "numberOfBytes": "2"
      },
      "t_uint256": {
        "encoding": "inplace",
        "label": "uint256",
        "numberOfBytes": "32"
      },
      "t_uint64": {
        "encoding": "inplace",
        "label": "uint64",
        "numberOfBytes": "8"
      },
      "t_uint8": {
        "encoding": "inplace",
        "label": "uint8",
        "numberOfBytes": "1"
      }
    }
  }
}