{
  "address": "0x94334443022b4E772bb1Bc0AC779aa1fe31f26e8",
  "abi": [
    {
      "inputs": [
        {
          "internalType": "uint256",
          "name": "startTime_",
          "type": "uint256"
        },
        {
          "internalType": "address",
          "name": "mangoToken_",
          "type": "address"
        },
        {
          "internalType": "address",
          "name": "usdcToken_",
          "type": "address"
        }
      ],
      "stateMutability": "nonpayable",
      "type": "constructor"
    },
    {
      "inputs": [
        {
          "internalType": "uint256",
          "name": "errorCode",
          "type": "uint256"
        }
      ],
      "name": "MangoError",
      "type": "error"
    },
    {
      "anonymous": false,
      "inputs": [
        {
          "indexed": true,
          "internalType": "address",
          "name": "claimer",
          "type": "address"
        },
        {
          "indexed": true,
          "internalType": "address",
          "name": "receiver",
          "type": "address"
        },
        {
          "indexed": false,
          "internalType": "uint256",
          "name": "mangoAmount",
          "type": "uint256"
        },
        {
          "indexed": false,
          "internalType": "uint256",
          "name": "usdcRefundAmount",
          "type": "uint256"
        }
      ],
      "name": "Claim",
      "type": "event"
    },
    {
      "anonymous": false,
      "inputs": [
        {
          "indexed": true,
          "internalType": "address",
          "name": "user",
          "type": "address"
        },
        {
          "indexed": false,
          "internalType": "uint256",
          "name": "amount",
          "type": "uint256"
        }
      ],
      "name": "Deposit",
      "type": "event"
    },
    {
      "anonymous": false,
      "inputs": [
        {
          "indexed": false,
          "internalType": "uint8",
          "name": "version",
          "type": "uint8"
        }
      ],
      "name": "Initialized",
      "type": "event"
    },
    {
      "anonymous": false,
      "inputs": [
        {
          "indexed": true,
          "internalType": "address",
          "name": "previousOwner",
          "type": "address"
        },
        {
          "indexed": true,
          "internalType": "address",
          "name": "newOwner",
          "type": "address"
        }
      ],
      "name": "OwnershipTransferred",
      "type": "event"
    },
    {
      "inputs": [],
      "name": "burnUnsoldMango",
      "outputs": [],
      "stateMutability": "nonpayable",
      "type": "function"
    },
    {
      "inputs": [
        {
          "internalType": "address",
          "name": "receiver",
          "type": "address"
        }
      ],
      "name": "claim",
      "outputs": [],
      "stateMutability": "nonpayable",
      "type": "function"
    },
    {
      "inputs": [
        {
          "internalType": "address",
          "name": "",
          "type": "address"
        }
      ],
      "name": "claimed",
      "outputs": [
        {
          "internalType": "bool",
          "name": "",
          "type": "bool"
        }
      ],
      "stateMutability": "view",
      "type": "function"
    },
    {
      "inputs": [
        {
          "internalType": "uint256",
          "name": "amount",
          "type": "uint256"
        }
      ],
      "name": "deposit",
      "outputs": [],
      "stateMutability": "nonpayable",
      "type": "function"
    },
    {
      "inputs": [
        {
          "internalType": "address",
          "name": "",
          "type": "address"
        }
      ],
      "name": "depositAmount",
      "outputs": [
        {
          "internalType": "uint256",
          "name": "",
          "type": "uint256"
        }
      ],
      "stateMutability": "view",
      "type": "function"
    },
    {
      "inputs": [],
      "name": "endTime",
      "outputs": [
        {
          "internalType": "uint256",
          "name": "",
          "type": "uint256"
        }
      ],
      "stateMutability": "view",
      "type": "function"
    },
    {
      "inputs": [],
      "name": "initialize",
      "outputs": [],
      "stateMutability": "nonpayable",
      "type": "function"
    },
    {
      "inputs": [],
      "name": "owner",
      "outputs": [
        {
          "internalType": "address",
          "name": "",
          "type": "address"
        }
      ],
      "stateMutability": "view",
      "type": "function"
    },
    {
      "inputs": [],
      "name": "pause",
      "outputs": [],
      "stateMutability": "nonpayable",
      "type": "function"
    },
    {
      "inputs": [],
      "name": "paused",
      "outputs": [
        {
          "internalType": "bool",
          "name": "",
          "type": "bool"
        }
      ],
      "stateMutability": "view",
      "type": "function"
    },
    {
      "inputs": [],
      "name": "renounceOwnership",
      "outputs": [],
      "stateMutability": "nonpayable",
      "type": "function"
    },
    {
      "inputs": [],
      "name": "startTime",
      "outputs": [
        {
          "internalType": "uint256",
          "name": "",
          "type": "uint256"
        }
      ],
      "stateMutability": "view",
      "type": "function"
    },
    {
      "inputs": [],
      "name": "totalDeposit",
      "outputs": [
        {
          "internalType": "uint256",
          "name": "",
          "type": "uint256"
        }
      ],
      "stateMutability": "view",
      "type": "function"
    },
    {
      "inputs": [
        {
          "internalType": "address",
          "name": "newOwner",
          "type": "address"
        }
      ],
      "name": "transferOwnership",
      "outputs": [],
      "stateMutability": "nonpayable",
      "type": "function"
    },
    {
      "inputs": [
        {
          "internalType": "address",
          "name": "usdcReceiver",
          "type": "address"
        }
      ],
      "name": "transferUSDCToReceiver",
      "outputs": [],
      "stateMutability": "nonpayable",
      "type": "function"
    },
    {
      "inputs": [],
      "name": "unpause",
      "outputs": [],
      "stateMutability": "nonpayable",
      "type": "function"
    }
  ],
  "transactionHash": "0x09234e4f69c3279851d8cee333b11fb5e2ce5d7fd9e0fcb6ad79ecc2357894c5",
  "args": [
    1681740000,
    "0x1fA03eDB1B8839a5319A7D2c1Ae6AAE492342bAD",
    "0xA8CE8aee21bC2A48a5EF670afCc9274C7bbbC035"
  ],
  "numDeployments": 1,
  "solcInputHash": "ff2103aba1e3b8d7be3a041635ccba06",
  "bytecode": "0x61010060405260016000553480156200001757600080fd5b5060405162001569380380620015698339810160408190526200003a916200010c565b62000045336200009d565b4283116200006d57604051630bc320f560e01b81526008600482015260240160405180910390fd5b60c0839052620000818362093a806200014d565b60e0526001600160a01b039182166080521660a0525062000175565b600180546001600160a01b038381166001600160a01b0319831681179093556040519116919082907f8be0079c531659141344cd1fd0a4f28419497f9722a3daafe3b4186f6b6457e090600090a35050565b80516001600160a01b03811681146200010757600080fd5b919050565b6000806000606084860312156200012257600080fd5b835192506200013460208501620000ef565b91506200014460408501620000ef565b90509250925092565b808201808211156200016f57634e487b7160e01b600052601160045260246000fd5b92915050565b60805160a05160c05160e05161137b620001ee6000396000818161012701528181610271015281816103e1015281816108b00152610a6f0152600081816101b50152610a4501526000818161059e0152818161095c0152610b410152600081816103590152818161056a015261066b015261137b6000f3fe608060405234801561001057600080fd5b50600436106101005760003560e01c80638129fc1c11610097578063b6b55f2511610066578063b6b55f2514610215578063c884ef8314610228578063f2fde38b1461024b578063f6153ccd1461025e57600080fd5b80638129fc1c146101d75780638456cb59146101df5780638da5cb5b146101e7578063a267bdce1461020257600080fd5b806350f62da7116100d357806350f62da7146101645780635c975abb14610184578063715018a6146101a857806378e97925146101b057600080fd5b8063113e1387146101055780631e83409a1461010f5780633197cbb6146101225780633f4ba83a1461015c575b600080fd5b61010d610267565b005b61010d61011d366004611102565b610386565b6101497f000000000000000000000000000000000000000000000000000000000000000081565b6040519081526020015b60405180910390f35b61010d610704565b610149610172366004611102565b60026020526000908152604090205481565b60015461019890600160a01b900460ff1681565b6040519015158152602001610153565b61010d61071b565b6101497f000000000000000000000000000000000000000000000000000000000000000081565b61010d61072d565b61010d610889565b6001546040516001600160a01b039091168152602001610153565b61010d610210366004611102565b6108a6565b61010d610223366004611132565b610a43565b610198610236366004611102565b60036020526000908152604090205460ff1681565b61010d610259366004611102565b610bde565b61014960045481565b61026f610c6b565b7f00000000000000000000000000000000000000000000000000000000000000004210156102b857604051630bc320f560e01b8152600860048201526024015b60405180910390fd5b6102c46006600a611245565b6102d19062061a80611251565b60045410156103845760006103256102eb6012600a611245565b6102fa9064010c388d00611251565b6004546103079190611251565b6103136006600a611245565b6103209062061a80611251565b610cc5565b6103316012600a611245565b6103409064010c388d00611251565b61034a9190611268565b90506103826001600160a01b037f00000000000000000000000000000000000000000000000000000000000000001661dead83610cf1565b505b565b6000546001146103ac57604051630bc320f560e01b8152600260048201526024016102af565b6002600055600154600160a01b900460ff16156103df57604051630bc320f560e01b8152600160048201526024016102af565b7f000000000000000000000000000000000000000000000000000000000000000042101561042357604051630bc320f560e01b8152600860048201526024016102af565b6001600160a01b038116600090815260026020526040812054900361045e57604051630bc320f560e01b8152600360048201526024016102af565b6001600160a01b03811660009081526003602052604090205460ff161561049b57604051630bc320f560e01b8152600060048201526024016102af565b6001600160a01b0381166000908152600260205260409020546104c06006600a611245565b6104cd9062061a80611251565b600454111561061257600454600090826104e96012600a611245565b6104f89064010c388d00611251565b6105029190611251565b61050c919061127b565b9050600061055161051f6006600a611245565b61052c9062061a80611251565b6105369084611251565b6105426012600a611245565b6103209064010c388d00611251565b61055b9084611268565b90506105916001600160a01b037f0000000000000000000000000000000000000000000000000000000000000000168584610cf1565b6105c56001600160a01b037f0000000000000000000000000000000000000000000000000000000000000000168583610cf1565b60408051838152602081018390526001600160a01b0386169133917f865ca08d59f5cb456e85cd2f7ef63664ea4f73327414e9d8152c4158b0e94645910160405180910390a350506106da565b60006106206006600a611245565b61062d9062061a80611251565b6106396012600a611245565b6106489064010c388d00611251565b6106529084611251565b61065c919061127b565b90506106926001600160a01b037f0000000000000000000000000000000000000000000000000000000000000000168483610cf1565b60408051828152600060208201526001600160a01b0385169133917f865ca08d59f5cb456e85cd2f7ef63664ea4f73327414e9d8152c4158b0e94645910160405180910390a3505b506001600160a01b03166000908152600360205260408120805460ff191660019081179091559055565b61070c610c6b565b6001805460ff60a01b19169055565b610723610c6b565b6103846000610d9f565b600154600160b01b900460ff1615808015610753575060018054600160a81b900460ff16105b806107735750303b158015610773575060018054600160a81b900460ff16145b6107e55760405162461bcd60e51b815260206004820152602e60248201527f496e697469616c697a61626c653a20636f6e747261637420697320616c72656160448201527f647920696e697469616c697a656400000000000000000000000000000000000060648201526084016102af565b600180547fffffffffffffffffffff00ffffffffffffffffffffffffffffffffffffffffff16600160a81b179055801561082d576001805460ff60b01b1916600160b01b1790555b6108376001600055565b61084033610d9f565b8015610382576001805460ff60b01b191681556040519081527f7f26b83ff96e1f2b6a682f133852f6798a09c465da95921460cefb38474024989060200160405180910390a150565b610891610c6b565b6001805460ff60a01b1916600160a01b179055565b6108ae610c6b565b7f00000000000000000000000000000000000000000000000000000000000000004210156108f257604051630bc320f560e01b8152600860048201526024016102af565b600061091a6004546006600a6109089190611245565b6109159062061a80611251565b610e09565b6040517f095ea7b30000000000000000000000000000000000000000000000000000000081526001600160a01b038481166004830152602482018390529192507f00000000000000000000000000000000000000000000000000000000000000009091169063095ea7b3906044016020604051808303816000875af11580156109a7573d6000803e3d6000fd5b505050506040513d601f19601f820116820180604052508101906109cb919061129d565b506040517f37df00c9000000000000000000000000000000000000000000000000000000008152600481018290526001600160a01b038316906337df00c990602401600060405180830381600087803b158015610a2757600080fd5b505af1158015610a3b573d6000803e3d6000fd5b505050505050565b7f0000000000000000000000000000000000000000000000000000000000000000421080610a915750427f000000000000000000000000000000000000000000000000000000000000000011155b15610ab257604051630bc320f560e01b8152600860048201526024016102af565b600154600160a01b900460ff1615610ae057604051630bc320f560e01b8152600160048201526024016102af565b610aec6006600a611245565b610af8906103e8611251565b33600090815260026020526040902054610b139083906112bf565b1115610b3457604051630bc320f560e01b81526004818101526024016102af565b610b696001600160a01b037f000000000000000000000000000000000000000000000000000000000000000016333084610e1f565b3360009081526002602052604081208054839290610b889084906112bf565b925050819055508060046000828254610ba191906112bf565b909155505060405181815233907fe1fffcc4923d04b559f4d29a8bfc6cda04eb5b0d3c460751c2402c5c5cc9109c9060200160405180910390a250565b610be6610c6b565b6001600160a01b038116610c625760405162461bcd60e51b815260206004820152602660248201527f4f776e61626c653a206e6577206f776e657220697320746865207a65726f206160448201527f646472657373000000000000000000000000000000000000000000000000000060648201526084016102af565b61038281610d9f565b6001546001600160a01b031633146103845760405162461bcd60e51b815260206004820181905260248201527f4f776e61626c653a2063616c6c6572206973206e6f7420746865206f776e657260448201526064016102af565b6000816001610cd482866112bf565b610cde9190611268565b610ce8919061127b565b90505b92915050565b6040516001600160a01b038316602482015260448101829052610d9a9084907fa9059cbb00000000000000000000000000000000000000000000000000000000906064015b60408051601f198184030181529190526020810180517bffffffffffffffffffffffffffffffffffffffffffffffffffffffff167fffffffff0000000000000000000000000000000000000000000000000000000090931692909217909152610e76565b505050565b600180546001600160a01b038381167fffffffffffffffffffffffff0000000000000000000000000000000000000000831681179093556040519116919082907f8be0079c531659141344cd1fd0a4f28419497f9722a3daafe3b4186f6b6457e090600090a35050565b6000818310610e185781610ce8565b5090919050565b6040516001600160a01b0380851660248301528316604482015260648101829052610e709085907f23b872dd0000000000000000000000000000000000000000000000000000000090608401610d36565b50505050565b6000610ecb826040518060400160405280602081526020017f5361666545524332303a206c6f772d6c6576656c2063616c6c206661696c6564815250856001600160a01b0316610f5b9092919063ffffffff16565b805190915015610d9a5780806020019051810190610ee9919061129d565b610d9a5760405162461bcd60e51b815260206004820152602a60248201527f5361666545524332303a204552433230206f7065726174696f6e20646964206e60448201527f6f7420737563636565640000000000000000000000000000000000000000000060648201526084016102af565b6060610f6a8484600085610f72565b949350505050565b606082471015610fea5760405162461bcd60e51b815260206004820152602660248201527f416464726573733a20696e73756666696369656e742062616c616e636520666f60448201527f722063616c6c000000000000000000000000000000000000000000000000000060648201526084016102af565b600080866001600160a01b0316858760405161100691906112f6565b60006040518083038185875af1925050503d8060008114611043576040519150601f19603f3d011682016040523d82523d6000602084013e611048565b606091505b509150915061105987838387611064565b979650505050505050565b606083156110d35782516000036110cc576001600160a01b0385163b6110cc5760405162461bcd60e51b815260206004820152601d60248201527f416464726573733a2063616c6c20746f206e6f6e2d636f6e747261637400000060448201526064016102af565b5081610f6a565b610f6a83838151156110e85781518083602001fd5b8060405162461bcd60e51b81526004016102af9190611312565b60006020828403121561111457600080fd5b81356001600160a01b038116811461112b57600080fd5b9392505050565b60006020828403121561114457600080fd5b5035919050565b634e487b7160e01b600052601160045260246000fd5b600181815b8085111561119c5781600019048211156111825761118261114b565b8085161561118f57918102915b93841c9390800290611166565b509250929050565b6000826111b357506001610ceb565b816111c057506000610ceb565b81600181146111d657600281146111e0576111fc565b6001915050610ceb565b60ff8411156111f1576111f161114b565b50506001821b610ceb565b5060208310610133831016604e8410600b841016171561121f575081810a610ceb565b6112298383611161565b806000190482111561123d5761123d61114b565b029392505050565b6000610ce883836111a4565b8082028115828204841417610ceb57610ceb61114b565b81810381811115610ceb57610ceb61114b565b60008261129857634e487b7160e01b600052601260045260246000fd5b500490565b6000602082840312156112af57600080fd5b8151801515811461112b57600080fd5b80820180821115610ceb57610ceb61114b565b60005b838110156112ed5781810151838201526020016112d5565b50506000910152565b600082516113088184602087016112d2565b9190910192915050565b60208152600082518060208401526113318160408501602087016112d2565b601f01601f1916919091016040019291505056fea26469706673582212204366bc1f7690b642c557d2354d2f1218b6222546495140cd5e582fd46a6a0fb464736f6c63430008110033",
  "devdoc": {
    "kind": "dev",
    "methods": {
      "claim(address)": {
        "params": {
          "receiver": "The address to receive the proceeds."
        }
      },
      "deposit(uint256)": {
        "params": {
          "amount": "The amount to be deposited."
        }
      },
      "owner()": {
        "details": "Returns the address of the current owner."
      },
      "renounceOwnership()": {
        "details": "Leaves the contract without owner. It will not be possible to call `onlyOwner` functions anymore. Can only be called by the current owner. NOTE: Renouncing ownership will leave the contract without an owner, thereby removing any functionality that is only available to the owner."
      },
      "transferOwnership(address)": {
        "details": "Transfers ownership of the contract to a new account (`newOwner`). Can only be called by the current owner."
      },
      "transferUSDCToReceiver(address)": {
        "params": {
          "usdcReceiver": "The treasury address to receive the proceeds."
        }
      }
    },
    "stateVariables": {
      "claimed": {
        "params": {
          "user": "The address of the user to query."
        },
        "return": "If the user has claimed or not.",
        "returns": {
          "_0": "If the user has claimed or not."
        }
      },
      "depositAmount": {
        "params": {
          "user": "The address of the user to query."
        },
        "return": "The amount deposited by the user.",
        "returns": {
          "_0": "The amount deposited by the user."
        }
      },
      "endTime": {
        "return": "The end time in unix timestamp.",
        "returns": {
          "_0": "The end time in unix timestamp."
        }
      },
      "startTime": {
        "return": "The start time in unix timestamp.",
        "returns": {
          "_0": "The start time in unix timestamp."
        }
      },
      "totalDeposit": {
        "return": "The current total amount deposited amount.",
        "returns": {
          "_0": "The current total amount deposited amount."
        }
      }
    },
    "version": 1
  },
  "userdoc": {
    "events": {
      "Claim(address,address,uint256,uint256)": {
        "notice": "Emitted when a claim is made by a user."
      },
      "Deposit(address,uint256)": {
        "notice": "Emitted when a deposit is made by a user."
      }
    },
    "kind": "user",
    "methods": {
      "burnUnsoldMango()": {
        "notice": "Burns the remaining MANGO tokens not sold during the event."
      },
      "claim(address)": {
        "notice": "Allows a user to claim the proceeds of the deposit."
      },
      "claimed(address)": {
        "notice": "Returns if the user has claimed or not."
      },
      "deposit(uint256)": {
        "notice": "Allows a user to make a deposit."
      },
      "depositAmount(address)": {
        "notice": "Returns the amount deposited by the user."
      },
      "endTime()": {
        "notice": "Returns the end time of the public registration."
      },
      "startTime()": {
        "notice": "Returns the start time of the public registration."
      },
      "totalDeposit()": {
        "notice": "Returns the current total deposited amount."
      },
      "transferUSDCToReceiver(address)": {
        "notice": "Transfers the USDC collected from the event to the treasury."
      }
    },
    "version": 1
  },
  "storageLayout": {
    "storage": [
      {
        "astId": 7097,
        "contract": "contracts/MangoPublicRegistration.sol:MangoPublicRegistration",
        "label": "_locked",
        "offset": 0,
        "slot": "0",
        "type": "t_uint256"
      },
      {
        "astId": 7,
        "contract": "contracts/MangoPublicRegistration.sol:MangoPublicRegistration",
        "label": "_owner",
        "offset": 0,
        "slot": "1",
        "type": "t_address"
      },
      {
        "astId": 7055,
        "contract": "contracts/MangoPublicRegistration.sol:MangoPublicRegistration",
        "label": "paused",
        "offset": 20,
        "slot": "1",
        "type": "t_bool"
      },
      {
        "astId": 119,
        "contract": "contracts/MangoPublicRegistration.sol:MangoPublicRegistration",
        "label": "_initialized",
        "offset": 21,
        "slot": "1",
        "type": "t_uint8"
      },
      {
        "astId": 122,
        "contract": "contracts/MangoPublicRegistration.sol:MangoPublicRegistration",
        "label": "_initializing",
        "offset": 22,
        "slot": "1",
        "type": "t_bool"
      },
      {
        "astId": 4354,
        "contract": "contracts/MangoPublicRegistration.sol:MangoPublicRegistration",
        "label": "depositAmount",
        "offset": 0,
        "slot": "2",
        "type": "t_mapping(t_address,t_uint256)"
      },
      {
        "astId": 4359,
        "contract": "contracts/MangoPublicRegistration.sol:MangoPublicRegistration",
        "label": "claimed",
        "offset": 0,
        "slot": "3",
        "type": "t_mapping(t_address,t_bool)"
      },
      {
        "astId": 4362,
        "contract": "contracts/MangoPublicRegistration.sol:MangoPublicRegistration",
        "label": "totalDeposit",
        "offset": 0,
        "slot": "4",
        "type": "t_uint256"
      }
    ],
    "types": {
      "t_address": {
        "encoding": "inplace",
        "label": "address",
        "numberOfBytes": "20"
      },
      "t_bool": {
        "encoding": "inplace",
        "label": "bool",
        "numberOfBytes": "1"
      },
      "t_mapping(t_address,t_bool)": {
        "encoding": "mapping",
        "key": "t_address",
        "label": "mapping(address => bool)",
        "numberOfBytes": "32",
        "value": "t_bool"
      },
      "t_mapping(t_address,t_uint256)": {
        "encoding": "mapping",
        "key": "t_address",
        "label": "mapping(address => uint256)",
        "numberOfBytes": "32",
        "value": "t_uint256"
      },
      "t_uint256": {
        "encoding": "inplace",
        "label": "uint256",
        "numberOfBytes": "32"
      },
      "t_uint8": {
        "encoding": "inplace",
        "label": "uint8",
        "numberOfBytes": "1"
      }
    }
  }
}