{
  "address": "0x5A5d1CA71A555D8612151ab8982AB60Ea66c983B",
  "abi": [
    {
      "inputs": [
        {
          "internalType": "address",
          "name": "treasury_",
          "type": "address"
        },
        {
          "internalType": "address",
          "name": "burnAddress_",
          "type": "address"
        },
        {
          "internalType": "address",
          "name": "underlyingToken_",
          "type": "address"
        },
        {
          "internalType": "uint256",
          "name": "cancelFee_",
          "type": "uint256"
        },
        {
          "internalType": "address",
          "name": "market_",
          "type": "address"
        },
        {
          "internalType": "uint256",
          "name": "releaseRate_",
          "type": "uint256"
        },
        {
          "internalType": "uint256",
          "name": "maxReleaseAmount_",
          "type": "uint256"
        },
        {
          "internalType": "uint16",
          "name": "initialBondPriceIndex_",
          "type": "uint16"
        }
      ],
      "stateMutability": "nonpayable",
      "type": "constructor"
    },
    {
      "inputs": [
        {
          "internalType": "uint256",
          "name": "errorCode",
          "type": "uint256"
        }
      ],
      "name": "MangoError",
      "type": "error"
    },
    {
      "anonymous": false,
      "inputs": [
        {
          "indexed": false,
          "internalType": "uint8",
          "name": "version",
          "type": "uint8"
        }
      ],
      "name": "Initialized",
      "type": "event"
    },
    {
      "anonymous": false,
      "inputs": [
        {
          "indexed": true,
          "internalType": "address",
          "name": "previousOwner",
          "type": "address"
        },
        {
          "indexed": true,
          "internalType": "address",
          "name": "newOwner",
          "type": "address"
        }
      ],
      "name": "OwnershipTransferred",
      "type": "event"
    },
    {
      "anonymous": false,
      "inputs": [
        {
          "indexed": true,
          "internalType": "address",
          "name": "payer",
          "type": "address"
        },
        {
          "indexed": true,
          "internalType": "address",
          "name": "to",
          "type": "address"
        },
        {
          "indexed": true,
          "internalType": "uint256",
          "name": "orderId",
          "type": "uint256"
        },
        {
          "indexed": false,
          "internalType": "uint256",
          "name": "spentAmount",
          "type": "uint256"
        },
        {
          "indexed": false,
          "internalType": "uint8",
          "name": "bonus",
          "type": "uint8"
        },
        {
          "indexed": false,
          "internalType": "uint256",
          "name": "bondedAmount",
          "type": "uint256"
        }
      ],
      "name": "PurchaseBond",
      "type": "event"
    },
    {
      "inputs": [],
      "name": "availableAmount",
      "outputs": [
        {
          "internalType": "uint256",
          "name": "",
          "type": "uint256"
        }
      ],
      "stateMutability": "view",
      "type": "function"
    },
    {
      "inputs": [
        {
          "internalType": "uint256",
          "name": "orderId",
          "type": "uint256"
        }
      ],
      "name": "bondInfo",
      "outputs": [
        {
          "components": [
            {
              "internalType": "uint256",
              "name": "orderId",
              "type": "uint256"
            },
            {
              "internalType": "address",
              "name": "owner",
              "type": "address"
            },
            {
              "internalType": "uint8",
              "name": "bonus",
              "type": "uint8"
            },
            {
              "internalType": "bool",
              "name": "isValid",
              "type": "bool"
            },
            {
              "internalType": "uint256",
              "name": "spentAmount",
              "type": "uint256"
            },
            {
              "internalType": "uint256",
              "name": "bondedAmount",
              "type": "uint256"
            },
            {
              "internalType": "uint256",
              "name": "claimedAmount",
              "type": "uint256"
            },
            {
              "internalType": "uint256",
              "name": "canceledAmount",
              "type": "uint256"
            }
          ],
          "internalType": "struct IBondPool.BondInfo",
          "name": "",
          "type": "tuple"
        }
      ],
      "stateMutability": "view",
      "type": "function"
    },
    {
      "inputs": [
        {
          "internalType": "uint256[]",
          "name": "orderIds",
          "type": "uint256[]"
        }
      ],
      "name": "bondInfos",
      "outputs": [
        {
          "components": [
            {
              "internalType": "uint256",
              "name": "orderId",
              "type": "uint256"
            },
            {
              "internalType": "address",
              "name": "owner",
              "type": "address"
            },
            {
              "internalType": "uint8",
              "name": "bonus",
              "type": "uint8"
            },
            {
              "internalType": "bool",
              "name": "isValid",
              "type": "bool"
            },
            {
              "internalType": "uint256",
              "name": "spentAmount",
              "type": "uint256"
            },
            {
              "internalType": "uint256",
              "name": "bondedAmount",
              "type": "uint256"
            },
            {
              "internalType": "uint256",
              "name": "claimedAmount",
              "type": "uint256"
            },
            {
              "internalType": "uint256",
              "name": "canceledAmount",
              "type": "uint256"
            }
          ],
          "internalType": "struct IBondPool.BondInfo[]",
          "name": "infos",
          "type": "tuple[]"
        }
      ],
      "stateMutability": "view",
      "type": "function"
    },
    {
      "inputs": [
        {
          "internalType": "uint256[]",
          "name": "orderIds",
          "type": "uint256[]"
        }
      ],
      "name": "breakBonds",
      "outputs": [],
      "stateMutability": "nonpayable",
      "type": "function"
    },
    {
      "inputs": [],
      "name": "burnAddress",
      "outputs": [
        {
          "internalType": "address",
          "name": "",
          "type": "address"
        }
      ],
      "stateMutability": "view",
      "type": "function"
    },
    {
      "inputs": [],
      "name": "cancelFee",
      "outputs": [
        {
          "internalType": "uint256",
          "name": "",
          "type": "uint256"
        }
      ],
      "stateMutability": "view",
      "type": "function"
    },
    {
      "inputs": [
        {
          "internalType": "uint8",
          "name": "min",
          "type": "uint8"
        },
        {
          "internalType": "uint8",
          "name": "max",
          "type": "uint8"
        }
      ],
      "name": "changeAvailableBonusRange",
      "outputs": [],
      "stateMutability": "nonpayable",
      "type": "function"
    },
    {
      "inputs": [
        {
          "internalType": "uint16",
          "name": "newSampleSize",
          "type": "uint16"
        }
      ],
      "name": "changePriceSampleSize",
      "outputs": [],
      "stateMutability": "nonpayable",
      "type": "function"
    },
    {
      "inputs": [
        {
          "internalType": "uint256[]",
          "name": "orderIds",
          "type": "uint256[]"
        }
      ],
      "name": "claim",
      "outputs": [],
      "stateMutability": "nonpayable",
      "type": "function"
    },
    {
      "inputs": [
        {
          "internalType": "uint256",
          "name": "orderId",
          "type": "uint256"
        }
      ],
      "name": "claimable",
      "outputs": [
        {
          "internalType": "uint256",
          "name": "claimableAmount",
          "type": "uint256"
        }
      ],
      "stateMutability": "view",
      "type": "function"
    },
    {
      "inputs": [
        {
          "internalType": "address",
          "name": "inputToken",
          "type": "address"
        },
        {
          "internalType": "address",
          "name": "outputToken",
          "type": "address"
        },
        {
          "internalType": "uint256",
          "name": "inputAmount",
          "type": "uint256"
        },
        {
          "internalType": "uint256",
          "name": "",
          "type": "uint256"
        },
        {
          "internalType": "bytes",
          "name": "",
          "type": "bytes"
        }
      ],
      "name": "cloberMarketSwapCallback",
      "outputs": [],
      "stateMutability": "payable",
      "type": "function"
    },
    {
      "inputs": [
        {
          "internalType": "uint256",
          "name": "spentAmount",
          "type": "uint256"
        },
        {
          "internalType": "uint8",
          "name": "bonus",
          "type": "uint8"
        }
      ],
      "name": "expectedBondAmount",
      "outputs": [
        {
          "internalType": "uint256",
          "name": "amount",
          "type": "uint256"
        }
      ],
      "stateMutability": "view",
      "type": "function"
    },
    {
      "inputs": [],
      "name": "getBasisPrice",
      "outputs": [
        {
          "internalType": "uint256",
          "name": "price",
          "type": "uint256"
        }
      ],
      "stateMutability": "view",
      "type": "function"
    },
    {
      "inputs": [],
      "name": "getBasisPriceIndex",
      "outputs": [
        {
          "internalType": "uint16",
          "name": "priceIndex",
          "type": "uint16"
        }
      ],
      "stateMutability": "view",
      "type": "function"
    },
    {
      "inputs": [],
      "name": "initialBondPriceIndex",
      "outputs": [
        {
          "internalType": "uint16",
          "name": "",
          "type": "uint16"
        }
      ],
      "stateMutability": "view",
      "type": "function"
    },
    {
      "inputs": [
        {
          "internalType": "uint8",
          "name": "minBonus_",
          "type": "uint8"
        },
        {
          "internalType": "uint8",
          "name": "maxBonus_",
          "type": "uint8"
        },
        {
          "internalType": "uint64",
          "name": "startAt_",
          "type": "uint64"
        },
        {
          "internalType": "uint16",
          "name": "sampleSize_",
          "type": "uint16"
        }
      ],
      "name": "initialize",
      "outputs": [],
      "stateMutability": "nonpayable",
      "type": "function"
    },
    {
      "inputs": [],
      "name": "lastReleasedAt",
      "outputs": [
        {
          "internalType": "uint64",
          "name": "",
          "type": "uint64"
        }
      ],
      "stateMutability": "view",
      "type": "function"
    },
    {
      "inputs": [],
      "name": "market",
      "outputs": [
        {
          "internalType": "address",
          "name": "",
          "type": "address"
        }
      ],
      "stateMutability": "view",
      "type": "function"
    },
    {
      "inputs": [],
      "name": "maxBonus",
      "outputs": [
        {
          "internalType": "uint8",
          "name": "",
          "type": "uint8"
        }
      ],
      "stateMutability": "view",
      "type": "function"
    },
    {
      "inputs": [],
      "name": "maxReleaseAmount",
      "outputs": [
        {
          "internalType": "uint256",
          "name": "",
          "type": "uint256"
        }
      ],
      "stateMutability": "view",
      "type": "function"
    },
    {
      "inputs": [],
      "name": "minBonus",
      "outputs": [
        {
          "internalType": "uint8",
          "name": "",
          "type": "uint8"
        }
      ],
      "stateMutability": "view",
      "type": "function"
    },
    {
      "inputs": [],
      "name": "owner",
      "outputs": [
        {
          "internalType": "address",
          "name": "",
          "type": "address"
        }
      ],
      "stateMutability": "view",
      "type": "function"
    },
    {
      "inputs": [
        {
          "internalType": "uint256",
          "name": "orderId",
          "type": "uint256"
        }
      ],
      "name": "ownerOf",
      "outputs": [
        {
          "internalType": "address",
          "name": "",
          "type": "address"
        }
      ],
      "stateMutability": "view",
      "type": "function"
    },
    {
      "inputs": [
        {
          "internalType": "uint256[]",
          "name": "orderIds",
          "type": "uint256[]"
        }
      ],
      "name": "ownersOf",
      "outputs": [
        {
          "components": [
            {
              "internalType": "address",
              "name": "owner",
              "type": "address"
            },
            {
              "internalType": "uint256",
              "name": "orderId",
              "type": "uint256"
            }
          ],
          "internalType": "struct IBondPool.BondOwner[]",
          "name": "owners",
          "type": "tuple[]"
        }
      ],
      "stateMutability": "view",
      "type": "function"
    },
    {
      "inputs": [],
      "name": "pause",
      "outputs": [],
      "stateMutability": "nonpayable",
      "type": "function"
    },
    {
      "inputs": [],
      "name": "paused",
      "outputs": [
        {
          "internalType": "bool",
          "name": "",
          "type": "bool"
        }
      ],
      "stateMutability": "view",
      "type": "function"
    },
    {
      "inputs": [
        {
          "internalType": "uint256",
          "name": "spentAmount",
          "type": "uint256"
        },
        {
          "internalType": "uint8",
          "name": "bonus",
          "type": "uint8"
        },
        {
          "internalType": "address",
          "name": "to",
          "type": "address"
        },
        {
          "internalType": "uint16",
          "name": "limitPriceIndex",
          "type": "uint16"
        }
      ],
      "name": "purchaseBond",
      "outputs": [
        {
          "internalType": "uint256",
          "name": "orderId",
          "type": "uint256"
        }
      ],
      "stateMutability": "nonpayable",
      "type": "function"
    },
    {
      "inputs": [],
      "name": "quoteToken",
      "outputs": [
        {
          "internalType": "address",
          "name": "",
          "type": "address"
        }
      ],
      "stateMutability": "view",
      "type": "function"
    },
    {
      "inputs": [],
      "name": "releaseRate",
      "outputs": [
        {
          "internalType": "uint256",
          "name": "",
          "type": "uint256"
        }
      ],
      "stateMutability": "view",
      "type": "function"
    },
    {
      "inputs": [],
      "name": "releasedAmount",
      "outputs": [
        {
          "internalType": "uint256",
          "name": "newReleasedAmount",
          "type": "uint256"
        }
      ],
      "stateMutability": "view",
      "type": "function"
    },
    {
      "inputs": [],
      "name": "renounceOwnership",
      "outputs": [],
      "stateMutability": "nonpayable",
      "type": "function"
    },
    {
      "inputs": [],
      "name": "sampleSize",
      "outputs": [
        {
          "internalType": "uint16",
          "name": "",
          "type": "uint16"
        }
      ],
      "stateMutability": "view",
      "type": "function"
    },
    {
      "inputs": [],
      "name": "setApprovals",
      "outputs": [],
      "stateMutability": "nonpayable",
      "type": "function"
    },
    {
      "inputs": [
        {
          "internalType": "address",
          "name": "newOwner",
          "type": "address"
        }
      ],
      "name": "transferOwnership",
      "outputs": [],
      "stateMutability": "nonpayable",
      "type": "function"
    },
    {
      "inputs": [],
      "name": "treasury",
      "outputs": [
        {
          "internalType": "address",
          "name": "",
          "type": "address"
        }
      ],
      "stateMutability": "view",
      "type": "function"
    },
    {
      "inputs": [
        {
          "internalType": "uint256",
          "name": "orderId",
          "type": "uint256"
        }
      ],
      "name": "unaccountedClaimedAmount",
      "outputs": [
        {
          "internalType": "uint256",
          "name": "",
          "type": "uint256"
        }
      ],
      "stateMutability": "view",
      "type": "function"
    },
    {
      "inputs": [],
      "name": "underlyingToken",
      "outputs": [
        {
          "internalType": "address",
          "name": "",
          "type": "address"
        }
      ],
      "stateMutability": "view",
      "type": "function"
    },
    {
      "inputs": [],
      "name": "unpause",
      "outputs": [],
      "stateMutability": "nonpayable",
      "type": "function"
    },
    {
      "inputs": [
        {
          "internalType": "address",
          "name": "token",
          "type": "address"
        },
        {
          "internalType": "address",
          "name": "to",
          "type": "address"
        }
      ],
      "name": "withdrawLostERC20",
      "outputs": [],
      "stateMutability": "nonpayable",
      "type": "function"
    }
  ],
  "transactionHash": "0x6572030d10115d277f1cd3c7f3f23b888e71ba86fad2d4d23c054996bc71f63e",
  "args": [
    "0x4eA8496D4D1d4EcF6eD6DaeA95D1A0856F8A5177",
    "0x000000000000000000000000000000000000dEaD",
    "0x1fA03eDB1B8839a5319A7D2c1Ae6AAE492342bAD",
    200000,
    "0x1FC38BA10E741F357b1c8B69DC08eA654c21Ae37",
    "115740740740740740740",
    "5000000000000000000000000000",
    220
  ],
  "numDeployments": 1,
  "solcInputHash": "9b43978420c0ff4c6bcbca9d11f7d35a",
  "bytecode": "0x6101c0604052600180553480156200001657600080fd5b5060405162004c5038038062004c5083398101604081905262000039916200033a565b6200004433620002c2565b6001600160a01b0380891660805287811660a0528416610180819052604080516385d1891760e01b815290516385d18917916004808201926020929091908290030181865afa1580156200009c573d6000803e3d6000fd5b505050506040513d601f19601f82011682018060405250810190620000c29190620003d1565b6001600160a01b03166101a0816001600160a01b031681525050856001600160a01b0316610180516001600160a01b031663c55dae636040518163ffffffff1660e01b8152600401602060405180830381865afa15801562000128573d6000803e3d6000fd5b505050506040513d601f19601f820116820180604052508101906200014e9190620003d1565b6001600160a01b0316146200017e57604051630bc320f560e01b8152600760048201526024015b60405180910390fd5b610180516001600160a01b031663fc741c7c6040518163ffffffff1660e01b8152600401602060405180830381865afa158015620001c0573d6000803e3d6000fd5b505050506040513d601f19601f82011682018060405250810190620001e69190620003f6565b60020b156200020c57604051630bc320f560e01b81526009600482015260240162000175565b856001600160a01b031660c0816001600160a01b031681525050846101008181525050610180516001600160a01b031663217a4b706040518163ffffffff1660e01b8152600401602060405180830381865afa15801562000271573d6000803e3d6000fd5b505050506040513d601f19601f82011682018060405250810190620002979190620003d1565b6001600160a01b031660e052610120929092526101405261ffff1661016052506200041b9350505050565b600080546001600160a01b038381166201000081810262010000600160b01b0319851617855560405193049190911692909183917f8be0079c531659141344cd1fd0a4f28419497f9722a3daafe3b4186f6b6457e091a35050565b80516001600160a01b03811681146200033557600080fd5b919050565b600080600080600080600080610100898b0312156200035857600080fd5b62000363896200031d565b97506200037360208a016200031d565b96506200038360408a016200031d565b9550606089015194506200039a60808a016200031d565b935060a0890151925060c0890151915060e089015161ffff81168114620003c057600080fd5b809150509295985092959890939650565b600060208284031215620003e457600080fd5b620003ef826200031d565b9392505050565b6000602082840312156200040957600080fd5b81518060020b8114620003ef57600080fd5b60805160a05160c05160e05161010051610120516101405161016051610180516101a0516146316200061f6000396000818161265a01526132a2015260008181610632015281816109d301528181610ab601528181610b5601528181610c0701528181610f3d01528181610fd1015281816112ef015281816115d601528181611a6a01528181611bea01528181611fd30152818161209c0152818161214f015281816123770152818161240c0152818161252b015281816126ea0152818161291801528181612b5301528181612c0101528181612f650152818161314c0152818161344b0152818161353b015281816138cc0152818161397a0152613a1801526000818161084a015281816121da0152818161220a015261228001526000818161041b01528181610cf20152610d1a0152600081816107270152610cbd0152600081816102ed015261149501526000818161032f015281816111bb0152818161137a01528181611565015281816119fb01528181611b0601528181611ba901528181611e1701528181611f1901528181611f6e0152818161248e01526131cb01526000818161037b0152818161125101528181611414015281816114d20152818161153101528181611ddc015261318f0152600081816105ec01526114f401526000818161053001528181611f3b01528181611f900152612a7201526146316000f3fe6080604052600436106102a05760003560e01c8063715018a61161016e578063aa83a308116100cb578063e5040c421161007f578063f35509e411610064578063f35509e414610838578063f6c714d61461086c578063fd235fda1461088c57600080fd5b8063e5040c42146107f8578063f2fde38b1461081857600080fd5b8063aff25c14116100b0578063aff25c141461079e578063d1d58b25146107be578063d45c241c146107de57600080fd5b8063aa83a3081461075e578063afe517ee1461077e57600080fd5b80638d0525bb1161012257806391f7cfb91161010757806391f7cfb914610700578063a703299814610715578063a756377e1461074957600080fd5b80638d0525bb146106a05780638da5cb5b146106dc57600080fd5b80638284511b116101535780638284511b146106565780638456cb59146106765780638757b15b1461068b57600080fd5b8063715018a61461060e57806380f556051461062357600080fd5b806354c5b6961161021c57806361d027b3116101d05780636352211e116101b55780636352211e146105815780636ba4c138146105ba57806370d5ae05146105da57600080fd5b806361d027b31461052157806361f08f231461055457600080fd5b80635ac0d9c0116102015780635ac0d9c0146104835780635c975abb146104c35780635ff2f2e8146104f457600080fd5b806354c5b6961461043d57806357ef74031461046e57600080fd5b80633f4ba83a11610273578063468e3e2f11610258578063468e3e2f146103c95780634b86a3d0146103e957806353701bc11461040957600080fd5b80633f4ba83a1461039d57806345d30a17146103b457600080fd5b806310fc6172146102a557806314025dcd146102db578063217a4b701461031d5780632495a59914610369575b600080fd5b3480156102b157600080fd5b506102c56102c0366004613cdd565b61089f565b6040516102d29190613cf6565b60405180910390f35b3480156102e757600080fd5b5061030f7f000000000000000000000000000000000000000000000000000000000000000081565b6040519081526020016102d2565b34801561032957600080fd5b506103517f000000000000000000000000000000000000000000000000000000000000000081565b6040516001600160a01b0390911681526020016102d2565b34801561037557600080fd5b506103517f000000000000000000000000000000000000000000000000000000000000000081565b3480156103a957600080fd5b506103b2610c7c565b005b3480156103c057600080fd5b5061030f610c93565b3480156103d557600080fd5b506103b26103e4366004613d5c565b610d40565b3480156103f557600080fd5b506103b2610404366004613de1565b61159a565b34801561041557600080fd5b5061030f7f000000000000000000000000000000000000000000000000000000000000000081565b34801561044957600080fd5b5060025461045c90610100900460ff1681565b60405160ff90911681526020016102d2565b34801561047a57600080fd5b5061030f6115d2565b34801561048f57600080fd5b506002546104aa9062010000900467ffffffffffffffff1681565b60405167ffffffffffffffff90911681526020016102d2565b3480156104cf57600080fd5b506000546104e490600160b01b900460ff1681565b60405190151581526020016102d2565b34801561050057600080fd5b5061051461050f366004613d5c565b61168b565b6040516102d29190613dfe565b34801561052d57600080fd5b507f0000000000000000000000000000000000000000000000000000000000000000610351565b34801561056057600080fd5b5061057461056f366004613d5c565b611796565b6040516102d29190613e56565b34801561058d57600080fd5b5061035161059c366004613cdd565b6000908152600560205260409020600101546001600160a01b031690565b3480156105c657600080fd5b506103b26105d5366004613d5c565b611895565b3480156105e657600080fd5b506103517f000000000000000000000000000000000000000000000000000000000000000081565b34801561061a57600080fd5b506103b2611dbe565b34801561062f57600080fd5b507f0000000000000000000000000000000000000000000000000000000000000000610351565b34801561066257600080fd5b506103b2610671366004613f11565b611dd2565b34801561068257600080fd5b506103b2611eef565b34801561069757600080fd5b506103b2611f0c565b3480156106ac57600080fd5b506002546106c9906a0100000000000000000000900461ffff1681565b60405161ffff90911681526020016102d2565b3480156106e857600080fd5b506000546201000090046001600160a01b0316610351565b34801561070c57600080fd5b5061030f611fb7565b34801561072157600080fd5b5061030f7f000000000000000000000000000000000000000000000000000000000000000081565b34801561075557600080fd5b506106c9611fce565b34801561076a57600080fd5b5061030f610779366004613f60565b6122ad565b34801561078a57600080fd5b5061030f610799366004613fb1565b612ae9565b3480156107aa57600080fd5b506103b26107b9366004613ff3565b612d19565b3480156107ca57600080fd5b5061030f6107d9366004613cdd565b612ea1565b3480156107ea57600080fd5b5060025461045c9060ff1681565b34801561080457600080fd5b5061030f610813366004613cdd565b612fff565b34801561082457600080fd5b506103b2610833366004614030565b61309f565b34801561084457600080fd5b506106c97f000000000000000000000000000000000000000000000000000000000000000081565b34801561087857600080fd5b506103b261088736600461404d565b61312f565b6103b261089a366004614077565b613141565b6108f56040518061010001604052806000815260200160006001600160a01b03168152602001600060ff168152602001600015158152602001600081526020016000815260200160008152602001600081525090565b6000828152600560209081526040808320815160e081018352815467ffffffffffffffff8082168352600160401b8204811695830195909552600160801b8104851693820193909352600160c01b90920490921660608201526001909101546001600160a01b038116608083015260ff600160a01b8204811660a0840152600160a81b90910416151560c08201529061098d84613252565b60200151905060405180610100016040528085815260200183608001516001600160a01b031681526020018360a0015160ff1681526020018360c00151151581526020017f00000000000000000000000000000000000000000000000000000000000000006001600160a01b031663240ddd2e85600001516040518263ffffffff1660e01b8152600401610a31919067ffffffffffffffff91909116815260200190565b602060405180830381865afa158015610a4e573d6000803e3d6000fd5b505050506040513d601f19601f82011682018060405250810190610a729190614121565b81526020848101516040516363e320a160e11b815267ffffffffffffffff909116600482015261ffff85166024820152600060448201529101906001600160a01b037f0000000000000000000000000000000000000000000000000000000000000000169063c7c6414290606401602060405180830381865afa158015610afd573d6000803e3d6000fd5b505050506040513d601f19601f82011682018060405250810190610b219190614121565b81526040808501519051631206ee9760e11b815267ffffffffffffffff90911660048201526020909101906001600160a01b037f0000000000000000000000000000000000000000000000000000000000000000169063240ddd2e90602401602060405180830381865afa158015610b9d573d6000803e3d6000fd5b505050506040513d601f19601f82011682018060405250810190610bc19190614121565b815260608401516040516363e320a160e11b815267ffffffffffffffff909116600482015261ffff84166024820152600060448201526020909101906001600160a01b037f0000000000000000000000000000000000000000000000000000000000000000169063c7c6414290606401602060405180830381865afa158015610c4e573d6000803e3d6000fd5b505050506040513d601f19601f82011682018060405250810190610c729190614121565b9052949350505050565b610c8461330d565b6000805460ff60b01b19169055565b6002546000908190610cb59062010000900467ffffffffffffffff1642614150565b9050610ce1817f0000000000000000000000000000000000000000000000000000000000000000614163565b600354610cee919061417a565b91507f0000000000000000000000000000000000000000000000000000000000000000821115610d3c577f000000000000000000000000000000000000000000000000000000000000000091505b5090565b600154600114610d6b57604051630bc320f560e01b8152600260048201526024015b60405180910390fd5b6002600155600054600160b01b900460ff1615610d9e57604051630bc320f560e01b815260016004820152602401610d62565b60008167ffffffffffffffff811115610db957610db961418d565b604051908082528060200260200182016040528015610e0457816020015b6040805160608101825260008082526020808301829052928201528252600019909201910181610dd75790505b50905060005b828110156111a2576000848483818110610e2657610e266141a3565b60209081029290920135600081815260058452604090819020815160e081018352815467ffffffffffffffff8082168352600160401b8204811697830197909752600160801b8104871693820193909352600160c01b90920490941660608201526001909301546001600160a01b0381166080850181905260ff600160a01b8304811660a0870152600160a81b909204909116151560c085015290935033149050610ee757604051630bc320f560e01b815260006004820152602401610d62565b6000610ef283613252565b905080858581518110610f0757610f076141a3565b60200260200101819052508160c00151610f2357505050611192565b604051634cd9c08160e11b81526000906001600160a01b037f000000000000000000000000000000000000000000000000000000000000000016906399b3810290610f729085906004016141b9565b606060405180830381865afa158015610f8f573d6000803e3d6000fd5b505050506040513d601f19601f82011682018060405250810190610fb39190614217565b51604051635fec377960e01b81529091506000906001600160a01b037f00000000000000000000000000000000000000000000000000000000000000001690635fec3779906110069086906004016141b9565b608060405180830381865afa158015611023573d6000803e3d6000fd5b505050506040513d601f19601f820116820180604052508101906110479190614274565b5050509050808261105891906142b3565b67ffffffffffffffff1660608501819052602085015161107891906142b3565b67ffffffffffffffff9081166040808701918252600060c08801818152988152600560209081529190208751815492890151935160608a01518616600160c01b0277ffffffffffffffffffffffffffffffffffffffffffffffff918716600160801b02919091166fffffffffffffffffffffffffffffffff958716600160401b026fffffffffffffffffffffffffffffffff1990951692909616919091179290921792909216929092179190911781556080850151600191909101805460a09096015196511515600160a81b0260ff60a81b1960ff909816600160a01b0274ffffffffffffffffffffffffffffffffffffffffff199097166001600160a01b03909316929092179590951795909516949094179092555050505b61119b816142d4565b9050610e0a565b506040516370a0823160e01b81523060048201526000907f00000000000000000000000000000000000000000000000000000000000000006001600160a01b0316906370a0823190602401602060405180830381865afa15801561120a573d6000803e3d6000fd5b505050506040513d601f19601f8201168201806040525081019061122e9190614121565b6040516370a0823160e01b81523060048201529091506000906001600160a01b037f000000000000000000000000000000000000000000000000000000000000000016906370a0823190602401602060405180830381865afa158015611298573d6000803e3d6000fd5b505050506040513d601f19601f820116820180604052508101906112bc9190614121565b6040517fdfdc93880000000000000000000000000000000000000000000000000000000081529091506001600160a01b037f0000000000000000000000000000000000000000000000000000000000000000169063dfdc93889061132690309087906004016142ed565b600060405180830381600087803b15801561134057600080fd5b505af1158015611354573d6000803e3d6000fd5b50506040516370a0823160e01b8152306004820152600092508491506001600160a01b037f000000000000000000000000000000000000000000000000000000000000000016906370a0823190602401602060405180830381865afa1580156113c1573d6000803e3d6000fd5b505050506040513d601f19601f820116820180604052508101906113e59190614121565b6113ef9190614150565b6040516370a0823160e01b815230600482015290915060009083906001600160a01b037f000000000000000000000000000000000000000000000000000000000000000016906370a0823190602401602060405180830381865afa15801561145b573d6000803e3d6000fd5b505050506040513d601f19601f8201168201806040525081019061147f9190614121565b6114899190614150565b905060006114c36114ba7f000000000000000000000000000000000000000000000000000000000000000084614163565b620f424061336e565b90506115196001600160a01b037f0000000000000000000000000000000000000000000000000000000000000000167f000000000000000000000000000000000000000000000000000000000000000083613398565b611558336115278385614150565b6001600160a01b037f0000000000000000000000000000000000000000000000000000000000000000169190613398565b61158c6001600160a01b037f0000000000000000000000000000000000000000000000000000000000000000163385613398565b505060018055505050505050565b6115a261330d565b6002805461ffff9092166a0100000000000000000000026bffff0000000000000000000019909216919091179055565b60007f00000000000000000000000000000000000000000000000000000000000000006001600160a01b0316636a204d0c61160b611fce565b6040517fffffffff0000000000000000000000000000000000000000000000000000000060e084901b16815261ffff9091166004820152602401602060405180830381865afa158015611662573d6000803e3d6000fd5b505050506040513d601f19601f820116820180604052508101906116869190614121565b905090565b60608167ffffffffffffffff8111156116a6576116a661418d565b6040519080825280602002602001820160405280156116eb57816020015b60408051808201909152600080825260208201528152602001906001900390816116c45790505b50905060005b8281101561178e5760405180604001604052806005600087878681811061171a5761171a6141a3565b6020908102929092013583525081810192909252604001600020600101546001600160a01b0316825201858584818110611756576117566141a3565b90506020020135815250828281518110611772576117726141a3565b602002602001018190525080611787906142d4565b90506116f1565b505b92915050565b60608167ffffffffffffffff8111156117b1576117b161418d565b60405190808252806020026020018201604052801561183857816020015b6118256040518061010001604052806000815260200160006001600160a01b03168152602001600060ff168152602001600015158152602001600081526020016000815260200160008152602001600081525090565b8152602001906001900390816117cf5790505b50905060005b8281101561178e5761186784848381811061185b5761185b6141a3565b9050602002013561089f565b828281518110611879576118796141a3565b60200260200101819052508061188e906142d4565b905061183e565b6001546001146118bb57604051630bc320f560e01b815260026004820152602401610d62565b6002600155600054600160b01b900460ff16156118ee57604051630bc320f560e01b815260016004820152602401610d62565b60005b81811015611db55760008084848481811061190e5761190e6141a3565b60209081029290920135600081815260058452604090819020815160e081018352815467ffffffffffffffff8082168352600160401b8204811697830197909752600160801b8104871693820193909352600160c01b90920490941660608201526001909301546001600160a01b038116608085015260ff600160a01b8204811660a0860152600160a81b90910416151560c0840181905290935090506119b757505050611da5565b60006119c283613252565b90506119ce8282613446565b6119d8908561417a565b6040516370a0823160e01b81523060048201529094506000906001600160a01b037f000000000000000000000000000000000000000000000000000000000000000016906370a0823190602401602060405180830381865afa158015611a42573d6000803e3d6000fd5b505050506040513d601f19601f82011682018060405250810190611a669190614121565b90507f00000000000000000000000000000000000000000000000000000000000000006001600160a01b03166375375e9633611aa1856135b7565b6040518363ffffffff1660e01b8152600401611abe9291906142ed565b600060405180830381600087803b158015611ad857600080fd5b505af1158015611aec573d6000803e3d6000fd5b50506040516370a0823160e01b81523060048201528392507f00000000000000000000000000000000000000000000000000000000000000006001600160a01b031691506370a0823190602401602060405180830381865afa158015611b56573d6000803e3d6000fd5b505050506040513d601f19601f82011682018060405250810190611b7a9190614121565b611b849190614150565b611b8e908661417a565b94508415611d9f576080830151611bd0906001600160a01b037f0000000000000000000000000000000000000000000000000000000000000000169087613398565b604051634cd9c08160e11b81526000906001600160a01b037f000000000000000000000000000000000000000000000000000000000000000016906399b3810290611c1f9086906004016141b9565b606060405180830381865afa158015611c3c573d6000803e3d6000fd5b505050506040513d601f19601f82011682018060405250810190611c609190614217565b516020850151909150611c749082906142b3565b67ffffffffffffffff90811660408601819052602086015190911603611c9c57600060c08501525b50600084815260056020908152604091829020855181549287015193870151606088015167ffffffffffffffff908116600160c01b0277ffffffffffffffffffffffffffffffffffffffffffffffff928216600160801b02929092166fffffffffffffffffffffffffffffffff968216600160401b026fffffffffffffffffffffffffffffffff19909616919093161793909317939093169290921717815560808401516001909101805460a086015160c08701511515600160a81b0260ff60a81b1960ff909216600160a01b0274ffffffffffffffffffffffffffffffffffffffffff199093166001600160a01b039095169490941791909117169190911790555b50505050505b611dae816142d4565b90506118f1565b50506001805550565b611dc661330d565b611dd06000613621565b565b611dda61330d565b7f00000000000000000000000000000000000000000000000000000000000000006001600160a01b0316826001600160a01b03161480611e4b57507f00000000000000000000000000000000000000000000000000000000000000006001600160a01b0316826001600160a01b0316145b15611e6c57604051630bc320f560e01b815260076004820152602401610d62565b6040516370a0823160e01b8152306004820152611eeb9082906001600160a01b038516906370a0823190602401602060405180830381865afa158015611eb6573d6000803e3d6000fd5b505050506040513d601f19601f82011682018060405250810190611eda9190614121565b6001600160a01b0385169190613398565b5050565b611ef761330d565b6000805460ff60b01b1916600160b01b179055565b611f616001600160a01b037f0000000000000000000000000000000000000000000000000000000000000000167f00000000000000000000000000000000000000000000000000000000000000006000613692565b611dd06001600160a01b037f0000000000000000000000000000000000000000000000000000000000000000167f0000000000000000000000000000000000000000000000000000000000000000600019613692565b6000600454611fc4610c93565b6116869190614150565b6000807f00000000000000000000000000000000000000000000000000000000000000006001600160a01b031663c9ed23766040518163ffffffff1660e01b8152600401602060405180830381865afa15801561202f573d6000803e3d6000fd5b505050506040513d601f19601f820116820180604052508101906120539190614372565b60028054600094509192506a010000000000000000000090910461ffff1690835b8261ffff168110156122715760405163092337eb60e21b815261ffff851660048201526000907f00000000000000000000000000000000000000000000000000000000000000006001600160a01b03169063248cdfac9060240160e060405180830381865afa1580156120eb573d6000803e3d6000fd5b505050506040513d601f19601f8201168201806040525081019061210f919061438f565b9050811580156121295750805167ffffffffffffffff1642145b156121c55760405163092337eb60e21b815261ffff6000199690960195861660048201527f00000000000000000000000000000000000000000000000000000000000000006001600160a01b03169063248cdfac9060240160e060405180830381865afa15801561219e573d6000803e3d6000fd5b505050506040513d601f19601f820116820180604052508101906121c2919061438f565b90505b805167ffffffffffffffff16600003612239577f000000000000000000000000000000000000000000000000000000000000000061ffff168661ffff161015612233577f00000000000000000000000000000000000000000000000000000000000000009550505050505090565b50612271565b8561ffff16816080015161ffff16111561225557806080015195505b50928190039260029091029061226a816142d4565b9050612074565b508361ffff166000036122a7577f0000000000000000000000000000000000000000000000000000000000000000935050505090565b50505090565b60006001546001146122d557604051630bc320f560e01b815260026004820152602401610d62565b6002600155600054600160b01b900460ff161561230857604051630bc320f560e01b815260016004820152602401610d62565b600254849060ff6101009091048116908216118061232e575060025460ff908116908216105b1561234f57604051630bc320f560e01b8152600a6004820152602401610d62565b6123576137e0565b60405163441055f560e01b815260048101879052600060248201819052907f00000000000000000000000000000000000000000000000000000000000000006001600160a01b03169063441055f590604401602060405180830381865afa1580156123c6573d6000803e3d6000fd5b505050506040513d601f19601f820116820180604052508101906123ea9190614455565b604051631206ee9760e11b815267ffffffffffffffff821660048201529091507f00000000000000000000000000000000000000000000000000000000000000006001600160a01b03169063240ddd2e90602401602060405180830381865afa15801561245b573d6000803e3d6000fd5b505050506040513d601f19601f8201168201806040525081019061247f9190614121565b96506124b66001600160a01b037f00000000000000000000000000000000000000000000000000000000000000001633308a61382b565b6000806124c38389613882565b91509150806124d0611fb7565b10156124f257604051630bc320f560e01b815260036004820152602401610d62565b8561ffff168261ffff16111561251e57604051630bc320f560e01b815260056004820152602401610d62565b6000806001600160a01b037f00000000000000000000000000000000000000000000000000000000000000001663bfc18aef308684876002826040519080825280601f01601f191660200182016040528015612581576020820181803683370190505b506040518763ffffffff1660e01b81526004016125a3969594939291906144c2565b6020604051808303816000875af11580156125c2573d6000803e3d6000fd5b505050506040513d601f19601f820116820180604052508101906125e69190614121565b9050600019810361260d57604051630bc320f560e01b815260066004820152602401610d62565b604080516060810182526000815261ffff8616602082015280820183905290517fc776d5830000000000000000000000000000000000000000000000000000000081526001600160a01b037f0000000000000000000000000000000000000000000000000000000000000000169063c776d5839061268f9084906004016141b9565b602060405180830381865afa1580156126ac573d6000803e3d6000fd5b505050506040513d601f19601f820116820180604052508101906126d09190614121565b604051634cd9c08160e11b81529098506001600160a01b037f000000000000000000000000000000000000000000000000000000000000000016906399b381029061271f9084906004016141b9565b606060405180830381865afa15801561273c573d6000803e3d6000fd5b505050506040513d601f19601f820116820180604052508101906127609190614217565b60000151925050506040518060e001604052808567ffffffffffffffff1681526020018267ffffffffffffffff168152602001600067ffffffffffffffff168152602001600067ffffffffffffffff168152602001896001600160a01b031681526020018a60ff168152602001600115158152506005600088815260200190815260200160002060008201518160000160006101000a81548167ffffffffffffffff021916908367ffffffffffffffff16021790555060208201518160000160086101000a81548167ffffffffffffffff021916908367ffffffffffffffff16021790555060408201518160000160106101000a81548167ffffffffffffffff021916908367ffffffffffffffff16021790555060608201518160000160186101000a81548167ffffffffffffffff021916908367ffffffffffffffff16021790555060808201518160010160006101000a8154816001600160a01b0302191690836001600160a01b0316021790555060a08201518160010160146101000a81548160ff021916908360ff16021790555060c08201518160010160156101000a81548160ff02191690831515021790555090505060007f00000000000000000000000000000000000000000000000000000000000000006001600160a01b031663c7c64142838660006040518463ffffffff1660e01b815260040161298a9392919067ffffffffffffffff93909316835261ffff9190911660208301521515604082015260600190565b602060405180830381865afa1580156129a7573d6000803e3d6000fd5b505050506040513d601f19601f820116820180604052508101906129cb9190614121565b9050806000036129f157604051630bc320f560e01b815260066004820152602401610d62565b604080518c815260ff8c16602082015290810182905287906001600160a01b038b169033907f267dddb881e07bcf2b2f2fea4452c4a4a99ac8577aaf7c026f68210185fb90479060600160405180910390a46040517f37df00c9000000000000000000000000000000000000000000000000000000008152600481018c90527f00000000000000000000000000000000000000000000000000000000000000006001600160a01b0316906337df00c990602401600060405180830381600087803b158015612abe57600080fd5b505af1158015612ad2573d6000803e3d6000fd5b50506001805550969b9a5050505050505050505050565b600254600090829060ff61010090910481169082161180612b12575060025460ff908116908216105b15612b3357604051630bc320f560e01b8152600a6004820152602401610d62565b60405163441055f560e01b815260048101859052600060248201819052907f00000000000000000000000000000000000000000000000000000000000000006001600160a01b03169063441055f590604401602060405180830381865afa158015612ba2573d6000803e3d6000fd5b505050506040513d601f19601f82011682018060405250810190612bc69190614455565b9050600080612bd58387613882565b60405163151d468760e11b81526004810182905261ffff831660248201526000604482015291935091507f00000000000000000000000000000000000000000000000000000000000000006001600160a01b03169063c7c64142908290632a3a8d0e90606401602060405180830381865afa158015612c58573d6000803e3d6000fd5b505050506040513d601f19601f82011682018060405250810190612c7c9190614455565b6040517fffffffff0000000000000000000000000000000000000000000000000000000060e084901b16815267ffffffffffffffff909116600482015261ffff8516602482015260006044820152606401602060405180830381865afa158015612cea573d6000803e3d6000fd5b505050506040513d601f19601f82011682018060405250810190612d0e9190614121565b979650505050505050565b600054610100900460ff1615808015612d395750600054600160ff909116105b80612d535750303b158015612d53575060005460ff166001145b612dc55760405162461bcd60e51b815260206004820152602e60248201527f496e697469616c697a61626c653a20636f6e747261637420697320616c72656160448201527f647920696e697469616c697a65640000000000000000000000000000000000006064820152608401610d62565b6000805460ff191660011790558015612de8576000805461ff0019166101001790555b612df160018055565b612dfa33613621565b612e048585613a97565b600280546bffffffffffffffffffff000019166201000067ffffffffffffffff8616026bffff000000000000000000001916176a010000000000000000000061ffff851602179055612e54611f0c565b8015612e9a576000805461ff0019169055604051600181527f7f26b83ff96e1f2b6a682f133852f6798a09c465da95921460cefb38474024989060200160405180910390a15b5050505050565b600080612ead83613252565b600084815260056020908152604091829020825160e081018452815467ffffffffffffffff8082168352600160401b8204811694830194909452600160801b8104841694820194909452600160c01b9093049091166060830152600101546001600160a01b038116608083015260ff600160a01b8204811660a0840152600160a81b90910416151560c0820181905291925090612f4e575060009392505050565b604051635fec377960e01b81526001600160a01b037f00000000000000000000000000000000000000000000000000000000000000001690635fec377990612f9a9085906004016141b9565b608060405180830381865afa158015612fb7573d6000803e3d6000fd5b505050506040513d601f19601f82011682018060405250810190612fdb9190614274565b50909450612fed915082905083613446565b612ff7908461417a565b949350505050565b6000818152600560209081526040808320815160e081018352815467ffffffffffffffff8082168352600160401b8204811695830195909552600160801b8104851693820193909352600160c01b90920490921660608201526001909101546001600160a01b038116608083015260ff600160a01b8204811660a0840152600160a81b90910416151560c08201526117909061309a84613252565b613446565b6130a761330d565b6001600160a01b0381166131235760405162461bcd60e51b815260206004820152602660248201527f4f776e61626c653a206e6577206f776e657220697320746865207a65726f206160448201527f64647265737300000000000000000000000000000000000000000000000000006064820152608401610d62565b61312c81613621565b50565b61313761330d565b611eeb8282613a97565b336001600160a01b037f0000000000000000000000000000000000000000000000000000000000000000161461318d57604051630bc320f560e01b815260006004820152602401610d62565b7f00000000000000000000000000000000000000000000000000000000000000006001600160a01b0316866001600160a01b03161480156131ff57507f00000000000000000000000000000000000000000000000000000000000000006001600160a01b0316856001600160a01b0316145b61321f57604051630bc320f560e01b815260076004820152602401610d62565b6132336001600160a01b0387163386613398565b8360046000828254613245919061417a565b9091555050505050505050565b604080516060810182526000808252602082018190528183015290517fdc20c6fa000000000000000000000000000000000000000000000000000000008152600481018390526001600160a01b037f0000000000000000000000000000000000000000000000000000000000000000169063dc20c6fa90602401606060405180830381865afa1580156132e9573d6000803e3d6000fd5b505050506040513d601f19601f820116820180604052508101906117909190614529565b6000546001600160a01b0362010000909104163314611dd05760405162461bcd60e51b815260206004820181905260248201527f4f776e61626c653a2063616c6c6572206973206e6f7420746865206f776e65726044820152606401610d62565b600081600161337d828661417a565b6133879190614150565b6133919190614574565b9392505050565b6040516001600160a01b0383166024820152604481018290526134419084907fa9059cbb00000000000000000000000000000000000000000000000000000000906064015b60408051601f198184030181529190526020810180517bffffffffffffffffffffffffffffffffffffffffffffffffffffffff167fffffffff0000000000000000000000000000000000000000000000000000000090931692909217909152613ae5565b505050565b6000807f00000000000000000000000000000000000000000000000000000000000000006001600160a01b03166399b38102846040518263ffffffff1660e01b815260040161349591906141b9565b606060405180830381865afa1580156134b2573d6000803e3d6000fd5b505050506040513d601f19601f820116820180604052508101906134d69190614217565b600001519050600084604001518286602001516134f391906142b3565b6134fd91906142b3565b90508067ffffffffffffffff1660000361351c57600092505050611790565b604051631206ee9760e11b815267ffffffffffffffff821660048201527f00000000000000000000000000000000000000000000000000000000000000006001600160a01b03169063240ddd2e90602401602060405180830381865afa15801561358a573d6000803e3d6000fd5b505050506040513d601f19601f820116820180604052508101906135ae9190614121565b95945050505050565b604080516001808252818301909252606091816020015b60408051606081018252600080825260208083018290529282015282526000199092019101816135ce5790505090508181600081518110613611576136116141a3565b6020026020010181905250919050565b600080546001600160a01b03838116620100008181027fffffffffffffffffffff0000000000000000000000000000000000000000ffff851617855560405193049190911692909183917f8be0079c531659141344cd1fd0a4f28419497f9722a3daafe3b4186f6b6457e091a35050565b80158061372557506040517fdd62ed3e0000000000000000000000000000000000000000000000000000000081523060048201526001600160a01b03838116602483015284169063dd62ed3e90604401602060405180830381865afa1580156136ff573d6000803e3d6000fd5b505050506040513d601f19601f820116820180604052508101906137239190614121565b155b6137975760405162461bcd60e51b815260206004820152603660248201527f5361666545524332303a20617070726f76652066726f6d206e6f6e2d7a65726f60448201527f20746f206e6f6e2d7a65726f20616c6c6f77616e6365000000000000000000006064820152608401610d62565b6040516001600160a01b0383166024820152604481018290526134419084907f095ea7b300000000000000000000000000000000000000000000000000000000906064016133dd565b60025462010000900467ffffffffffffffff16421115611dd057613802610c93565b6003556002805469ffffffffffffffff00001916620100004267ffffffffffffffff1602179055565b6040516001600160a01b038085166024830152831660448201526064810182905261387c9085907f23b872dd00000000000000000000000000000000000000000000000000000000906084016133dd565b50505050565b600080600061388f611fce565b6040516363e320a160e11b815267ffffffffffffffff8716600482015261ffff821660248201526000604482018190529192506001600160a01b037f0000000000000000000000000000000000000000000000000000000000000000169063c7c6414290606401602060405180830381865afa158015613913573d6000803e3d6000fd5b505050506040513d601f19601f820116820180604052508101906139379190614121565b905061394660ff861683614596565b60405163151d468760e11b81526004810183905261ffff821660248201526000604482018190529195506001600160a01b037f00000000000000000000000000000000000000000000000000000000000000001690632a3a8d0e90606401602060405180830381865afa1580156139c1573d6000803e3d6000fd5b505050506040513d601f19601f820116820180604052508101906139e59190614455565b6040516363e320a160e11b815267ffffffffffffffff8216600482015261ffff85166024820152600060448201529091507f00000000000000000000000000000000000000000000000000000000000000006001600160a01b03169063c7c6414290606401602060405180830381865afa158015613a67573d6000803e3d6000fd5b505050506040513d601f19601f82011682018060405250810190613a8b9190614121565b93505050509250929050565b8060ff168260ff161115613ac157604051630bc320f560e01b8152600a6004820152602401610d62565b6002805460ff9283166101000261ffff199091169290931691909117919091179055565b6000613b3a826040518060400160405280602081526020017f5361666545524332303a206c6f772d6c6576656c2063616c6c206661696c6564815250856001600160a01b0316613bca9092919063ffffffff16565b8051909150156134415780806020019051810190613b5891906145b1565b6134415760405162461bcd60e51b815260206004820152602a60248201527f5361666545524332303a204552433230206f7065726174696f6e20646964206e60448201527f6f742073756363656564000000000000000000000000000000000000000000006064820152608401610d62565b6060612ff7848460008585600080866001600160a01b03168587604051613bf191906145cc565b60006040518083038185875af1925050503d8060008114613c2e576040519150601f19603f3d011682016040523d82523d6000602084013e613c33565b606091505b5091509150612d0e8783838760608315613cae578251600003613ca7576001600160a01b0385163b613ca75760405162461bcd60e51b815260206004820152601d60248201527f416464726573733a2063616c6c20746f206e6f6e2d636f6e74726163740000006044820152606401610d62565b5081612ff7565b612ff78383815115613cc35781518083602001fd5b8060405162461bcd60e51b8152600401610d6291906145e8565b600060208284031215613cef57600080fd5b5035919050565b61010081016117908284805182526001600160a01b03602082015116602083015260ff60408201511660408301526060810151151560608301526080810151608083015260a081015160a083015260c081015160c083015260e081015160e08301525050565b60008060208385031215613d6f57600080fd5b823567ffffffffffffffff80821115613d8757600080fd5b818501915085601f830112613d9b57600080fd5b813581811115613daa57600080fd5b8660208260051b8501011115613dbf57600080fd5b60209290920196919550909350505050565b61ffff8116811461312c57600080fd5b600060208284031215613df357600080fd5b813561339181613dd1565b602080825282518282018190526000919060409081850190868401855b82811015613e4957815180516001600160a01b03168552860151868501529284019290850190600101613e1b565b5091979650505050505050565b6020808252825182820181905260009190848201906040850190845b81811015613ef057613edc838551805182526001600160a01b03602082015116602083015260ff60408201511660408301526060810151151560608301526080810151608083015260a081015160a083015260c081015160c083015260e081015160e08301525050565b928401926101009290920191600101613e72565b50909695505050505050565b6001600160a01b038116811461312c57600080fd5b60008060408385031215613f2457600080fd5b8235613f2f81613efc565b91506020830135613f3f81613efc565b809150509250929050565b803560ff81168114613f5b57600080fd5b919050565b60008060008060808587031215613f7657600080fd5b84359350613f8660208601613f4a565b92506040850135613f9681613efc565b91506060850135613fa681613dd1565b939692955090935050565b60008060408385031215613fc457600080fd5b82359150613fd460208401613f4a565b90509250929050565b67ffffffffffffffff8116811461312c57600080fd5b6000806000806080858703121561400957600080fd5b61401285613f4a565b935061402060208601613f4a565b92506040850135613f9681613fdd565b60006020828403121561404257600080fd5b813561339181613efc565b6000806040838503121561406057600080fd5b61406983613f4a565b9150613fd460208401613f4a565b60008060008060008060a0878903121561409057600080fd5b863561409b81613efc565b955060208701356140ab81613efc565b94506040870135935060608701359250608087013567ffffffffffffffff808211156140d657600080fd5b818901915089601f8301126140ea57600080fd5b8135818111156140f957600080fd5b8a602082850101111561410b57600080fd5b6020830194508093505050509295509295509295565b60006020828403121561413357600080fd5b5051919050565b634e487b7160e01b600052601160045260246000fd5b818103818111156117905761179061413a565b80820281158282048414176117905761179061413a565b808201808211156117905761179061413a565b634e487b7160e01b600052604160045260246000fd5b634e487b7160e01b600052603260045260246000fd5b81511515815260208083015161ffff16908201526040808301519082015260608101611790565b6040516060810167ffffffffffffffff8111828210171561421157634e487b7160e01b600052604160045260246000fd5b60405290565b60006060828403121561422957600080fd5b6142316141e0565b825161423c81613fdd565b8152602083015163ffffffff8116811461425557600080fd5b6020820152604083015161426881613efc565b60408201529392505050565b6000806000806080858703121561428a57600080fd5b845161429581613fdd565b60208601516040870151606090970151919890975090945092505050565b67ffffffffffffffff82811682821603908082111561178e5761178e61413a565b6000600182016142e6576142e661413a565b5060010190565b6000604082016001600160a01b0385168352602060408185015281855180845260609350838601915082870160005b828110156143595761434984835180511515825260208082015161ffff1690830152604090810151910152565b928501929084019060010161431c565b509198975050505050505050565b8051613f5b81613dd1565b60006020828403121561438457600080fd5b815161339181613dd1565b600060e082840312156143a157600080fd5b60405160e0810181811067ffffffffffffffff821117156143d257634e487b7160e01b600052604160045260246000fd5b60405282516143e081613fdd565b815260208301516143f081613fdd565b6020820152604083015161440381613fdd565b6040820152606083015161441681613dd1565b606082015261442760808401614367565b608082015261443860a08401614367565b60a082015261444960c08401614367565b60c08201529392505050565b60006020828403121561446757600080fd5b815161339181613fdd565b60005b8381101561448d578181015183820152602001614475565b50506000910152565b600081518084526144ae816020860160208601614472565b601f01601f19169290920160200192915050565b6001600160a01b038716815261ffff8616602082015267ffffffffffffffff8516604082015283606082015260ff8316608082015260c060a0820152600061450d60c0830184614496565b98975050505050505050565b80518015158114613f5b57600080fd5b60006060828403121561453b57600080fd5b6145436141e0565b61454c83614519565b8152602083015161455c81613dd1565b60208201526040928301519281019290925250919050565b60008261459157634e487b7160e01b600052601260045260246000fd5b500490565b61ffff81811683821601908082111561178e5761178e61413a565b6000602082840312156145c357600080fd5b61339182614519565b600082516145de818460208701614472565b9190910192915050565b602081526000613391602083018461449656fea26469706673582212204e390624ef85f7a058f6a5b6ef3a2d24d7543e76035ea044ec21dfe74812955464736f6c63430008110033",
  "devdoc": {
    "kind": "dev",
    "methods": {
      "owner()": {
        "details": "Returns the address of the current owner."
      },
      "renounceOwnership()": {
        "details": "Leaves the contract without owner. It will not be possible to call `onlyOwner` functions anymore. Can only be called by the current owner. NOTE: Renouncing ownership will leave the contract without an owner, thereby removing any functionality that is only available to the owner."
      },
      "transferOwnership(address)": {
        "details": "Transfers ownership of the contract to a new account (`newOwner`). Can only be called by the current owner."
      }
    },
    "version": 1
  },
  "userdoc": {
    "kind": "user",
    "methods": {},
    "version": 1
  },
  "storageLayout": {
    "storage": [
      {
        "astId": 119,
        "contract": "contracts/MangoBondPool.sol:MangoBondPool",
        "label": "_initialized",
        "offset": 0,
        "slot": "0",
        "type": "t_uint8"
      },
      {
        "astId": 122,
        "contract": "contracts/MangoBondPool.sol:MangoBondPool",
        "label": "_initializing",
        "offset": 1,
        "slot": "0",
        "type": "t_bool"
      },
      {
        "astId": 7,
        "contract": "contracts/MangoBondPool.sol:MangoBondPool",
        "label": "_owner",
        "offset": 2,
        "slot": "0",
        "type": "t_address"
      },
      {
        "astId": 6652,
        "contract": "contracts/MangoBondPool.sol:MangoBondPool",
        "label": "paused",
        "offset": 22,
        "slot": "0",
        "type": "t_bool"
      },
      {
        "astId": 6694,
        "contract": "contracts/MangoBondPool.sol:MangoBondPool",
        "label": "_locked",
        "offset": 0,
        "slot": "1",
        "type": "t_uint256"
      },
      {
        "astId": 1904,
        "contract": "contracts/MangoBondPool.sol:MangoBondPool",
        "label": "minBonus",
        "offset": 0,
        "slot": "2",
        "type": "t_uint8"
      },
      {
        "astId": 1907,
        "contract": "contracts/MangoBondPool.sol:MangoBondPool",
        "label": "maxBonus",
        "offset": 1,
        "slot": "2",
        "type": "t_uint8"
      },
      {
        "astId": 1910,
        "contract": "contracts/MangoBondPool.sol:MangoBondPool",
        "label": "lastReleasedAt",
        "offset": 2,
        "slot": "2",
        "type": "t_uint64"
      },
      {
        "astId": 1913,
        "contract": "contracts/MangoBondPool.sol:MangoBondPool",
        "label": "sampleSize",
        "offset": 10,
        "slot": "2",
        "type": "t_uint16"
      },
      {
        "astId": 1915,
        "contract": "contracts/MangoBondPool.sol:MangoBondPool",
        "label": "_lastRecordedReleasedAmount",
        "offset": 0,
        "slot": "3",
        "type": "t_uint256"
      },
      {
        "astId": 1917,
        "contract": "contracts/MangoBondPool.sol:MangoBondPool",
        "label": "_soldAmount",
        "offset": 0,
        "slot": "4",
        "type": "t_uint256"
      },
      {
        "astId": 1922,
        "contract": "contracts/MangoBondPool.sol:MangoBondPool",
        "label": "_bonds",
        "offset": 0,
        "slot": "5",
        "type": "t_mapping(t_uint256,t_struct(Bond)6092_storage)"
      }
    ],
    "types": {
      "t_address": {
        "encoding": "inplace",
        "label": "address",
        "numberOfBytes": "20"
      },
      "t_bool": {
        "encoding": "inplace",
        "label": "bool",
        "numberOfBytes": "1"
      },
      "t_mapping(t_uint256,t_struct(Bond)6092_storage)": {
        "encoding": "mapping",
        "key": "t_uint256",
        "label": "mapping(uint256 => struct IBondPool.Bond)",
        "numberOfBytes": "32",
        "value": "t_struct(Bond)6092_storage"
      },
      "t_struct(Bond)6092_storage": {
        "encoding": "inplace",
        "label": "struct IBondPool.Bond",
        "members": [
          {
            "astId": 6079,
            "contract": "contracts/MangoBondPool.sol:MangoBondPool",
            "label": "spentRawAmount",
            "offset": 0,
            "slot": "0",
            "type": "t_uint64"
          },
          {
            "astId": 6081,
            "contract": "contracts/MangoBondPool.sol:MangoBondPool",
            "label": "purchasedRawAmount",
            "offset": 8,
            "slot": "0",
            "type": "t_uint64"
          },
          {
            "astId": 6083,
            "contract": "contracts/MangoBondPool.sol:MangoBondPool",
            "label": "claimedRawAmount",
            "offset": 16,
            "slot": "0",
            "type": "t_uint64"
          },
          {
            "astId": 6085,
            "contract": "contracts/MangoBondPool.sol:MangoBondPool",
            "label": "canceledRawAmount",
            "offset": 24,
            "slot": "0",
            "type": "t_uint64"
          },
          {
            "astId": 6087,
            "contract": "contracts/MangoBondPool.sol:MangoBondPool",
            "label": "owner",
            "offset": 0,
            "slot": "1",
            "type": "t_address"
          },
          {
            "astId": 6089,
            "contract": "contracts/MangoBondPool.sol:MangoBondPool",
            "label": "bonus",
            "offset": 20,
            "slot": "1",
            "type": "t_uint8"
          },
          {
            "astId": 6091,
            "contract": "contracts/MangoBondPool.sol:MangoBondPool",
            "label": "isValid",
            "offset": 21,
            "slot": "1",
            "type": "t_bool"
          }
        ],
        "numberOfBytes": "64"
      },
      "t_uint16": {
        "encoding": "inplace",
        "label": "uint16",
        "numberOfBytes": "2"
      },
      "t_uint256": {
        "encoding": "inplace",
        "label": "uint256",
        "numberOfBytes": "32"
      },
      "t_uint64": {
        "encoding": "inplace",
        "label": "uint64",
        "numberOfBytes": "8"
      },
      "t_uint8": {
        "encoding": "inplace",
        "label": "uint8",
        "numberOfBytes": "1"
      }
    }
  }
}